{
  "contractName": "BuyAnAnswer",
  "abi": [
    {
      "constant": true,
      "inputs": [
        {
          "name": "",
          "type": "address"
        },
        {
          "name": "",
          "type": "uint256"
        }
      ],
      "name": "answeredQuestions",
      "outputs": [
        {
          "components": [
            {
              "name": "questionID",
              "type": "bytes32"
            },
            {
              "name": "questionText",
              "type": "string"
            },
            {
              "name": "boardID",
              "type": "bytes32"
            },
            {
              "name": "price",
              "type": "uint256"
            },
            {
              "name": "priorityBonus",
              "type": "uint256"
            },
            {
              "name": "askUser",
              "type": "address"
            },
            {
              "name": "answerUser",
              "type": "address"
            },
            {
              "name": "isAnswered",
              "type": "bool"
            }
          ],
          "name": "question",
          "type": "tuple"
        },
        {
          "name": "answerText",
          "type": "string"
        }
      ],
      "payable": false,
      "stateMutability": "view",
      "type": "function"
    },
    {
      "constant": true,
      "inputs": [
        {
          "name": "",
          "type": "address"
        }
      ],
      "name": "usernameByAddress",
      "outputs": [
        {
          "name": "",
          "type": "string"
        }
      ],
      "payable": false,
      "stateMutability": "view",
      "type": "function"
    },
    {
      "constant": true,
      "inputs": [
        {
          "name": "",
          "type": "address"
        },
        {
          "name": "",
          "type": "uint256"
        }
      ],
      "name": "askedQuestions",
      "outputs": [
        {
          "name": "questionID",
          "type": "bytes32"
        },
        {
          "name": "questionText",
          "type": "string"
        },
        {
          "name": "boardID",
          "type": "bytes32"
        },
        {
          "name": "price",
          "type": "uint256"
        },
        {
          "name": "priorityBonus",
          "type": "uint256"
        },
        {
          "name": "askUser",
          "type": "address"
        },
        {
          "name": "answerUser",
          "type": "address"
        },
        {
          "name": "isAnswered",
          "type": "bool"
        }
      ],
      "payable": false,
      "stateMutability": "view",
      "type": "function"
    },
    {
      "constant": true,
      "inputs": [
        {
          "name": "",
          "type": "address"
        },
        {
          "name": "",
          "type": "uint256"
        }
      ],
      "name": "history",
      "outputs": [
        {
          "name": "questionID",
          "type": "bytes32"
        },
        {
          "name": "questionText",
          "type": "string"
        },
        {
          "name": "boardID",
          "type": "bytes32"
        },
        {
          "name": "price",
          "type": "uint256"
        },
        {
          "name": "priorityBonus",
          "type": "uint256"
        },
        {
          "name": "askUser",
          "type": "address"
        },
        {
          "name": "answerUser",
          "type": "address"
        },
        {
          "name": "isAnswered",
          "type": "bool"
        }
      ],
      "payable": false,
      "stateMutability": "view",
      "type": "function"
    },
    {
      "constant": true,
      "inputs": [
        {
          "name": "",
          "type": "address"
        },
        {
          "name": "",
          "type": "uint256"
        }
      ],
      "name": "declinedQuestions",
      "outputs": [
        {
          "name": "questionID",
          "type": "bytes32"
        },
        {
          "name": "questionText",
          "type": "string"
        },
        {
          "name": "boardID",
          "type": "bytes32"
        },
        {
          "name": "price",
          "type": "uint256"
        },
        {
          "name": "priorityBonus",
          "type": "uint256"
        },
        {
          "name": "askUser",
          "type": "address"
        },
        {
          "name": "answerUser",
          "type": "address"
        },
        {
          "name": "isAnswered",
          "type": "bool"
        }
      ],
      "payable": false,
      "stateMutability": "view",
      "type": "function"
    },
    {
      "constant": true,
      "inputs": [
        {
          "name": "",
          "type": "bytes32"
        }
      ],
      "name": "questions",
      "outputs": [
        {
          "name": "questionID",
          "type": "bytes32"
        },
        {
          "name": "questionText",
          "type": "string"
        },
        {
          "name": "boardID",
          "type": "bytes32"
        },
        {
          "name": "price",
          "type": "uint256"
        },
        {
          "name": "priorityBonus",
          "type": "uint256"
        },
        {
          "name": "askUser",
          "type": "address"
        },
        {
          "name": "answerUser",
          "type": "address"
        },
        {
          "name": "isAnswered",
          "type": "bool"
        }
      ],
      "payable": false,
      "stateMutability": "view",
      "type": "function"
    },
    {
      "constant": true,
      "inputs": [
        {
          "name": "",
          "type": "address"
        }
      ],
      "name": "users",
      "outputs": [
        {
          "name": "userAddress",
          "type": "address"
        },
        {
          "name": "username",
          "type": "string"
        },
        {
          "name": "name",
          "type": "string"
        },
        {
          "name": "email",
          "type": "string"
        },
        {
          "name": "password",
          "type": "string"
        },
        {
          "name": "balance",
          "type": "uint256"
        },
        {
          "name": "boardID",
          "type": "bytes32"
        },
        {
          "name": "headline",
          "type": "string"
        },
        {
          "name": "bio",
          "type": "string"
        },
        {
          "name": "minimumPrice",
          "type": "uint256"
        }
      ],
      "payable": false,
      "stateMutability": "view",
      "type": "function"
    },
    {
      "constant": true,
      "inputs": [
        {
          "name": "",
          "type": "address"
        },
        {
          "name": "",
          "type": "uint256"
        }
      ],
      "name": "unansweredQuestions",
      "outputs": [
        {
          "name": "questionID",
          "type": "bytes32"
        },
        {
          "name": "questionText",
          "type": "string"
        },
        {
          "name": "boardID",
          "type": "bytes32"
        },
        {
          "name": "price",
          "type": "uint256"
        },
        {
          "name": "priorityBonus",
          "type": "uint256"
        },
        {
          "name": "askUser",
          "type": "address"
        },
        {
          "name": "answerUser",
          "type": "address"
        },
        {
          "name": "isAnswered",
          "type": "bool"
        }
      ],
      "payable": false,
      "stateMutability": "view",
      "type": "function"
    },
    {
      "constant": true,
      "inputs": [
        {
          "name": "",
          "type": "address"
        },
        {
          "name": "",
          "type": "uint256"
        }
      ],
      "name": "receivedQuestions",
      "outputs": [
        {
          "name": "questionID",
          "type": "bytes32"
        },
        {
          "name": "questionText",
          "type": "string"
        },
        {
          "name": "boardID",
          "type": "bytes32"
        },
        {
          "name": "price",
          "type": "uint256"
        },
        {
          "name": "priorityBonus",
          "type": "uint256"
        },
        {
          "name": "askUser",
          "type": "address"
        },
        {
          "name": "answerUser",
          "type": "address"
        },
        {
          "name": "isAnswered",
          "type": "bool"
        }
      ],
      "payable": false,
      "stateMutability": "view",
      "type": "function"
    },
    {
      "anonymous": false,
      "inputs": [
        {
          "indexed": false,
          "name": "userAddress",
          "type": "address"
        },
        {
          "indexed": false,
          "name": "username",
          "type": "string"
        },
        {
          "indexed": false,
          "name": "name",
          "type": "string"
        },
        {
          "indexed": false,
          "name": "email",
          "type": "string"
        },
        {
          "indexed": false,
          "name": "password",
          "type": "string"
        },
        {
          "indexed": false,
          "name": "balance",
          "type": "uint256"
        },
        {
          "indexed": false,
          "name": "boardID",
          "type": "bytes32"
        },
        {
          "indexed": false,
          "name": "headline",
          "type": "string"
        },
        {
          "indexed": false,
          "name": "bio",
          "type": "string"
        },
        {
          "indexed": false,
          "name": "minimumPrice",
          "type": "uint256"
        }
      ],
      "name": "UserCreated",
      "type": "event"
    },
    {
      "anonymous": false,
      "inputs": [
        {
          "indexed": false,
          "name": "userAddress",
          "type": "address"
        },
        {
          "indexed": false,
          "name": "username",
          "type": "string"
        },
        {
          "indexed": false,
          "name": "name",
          "type": "string"
        },
        {
          "indexed": false,
          "name": "email",
          "type": "string"
        },
        {
          "indexed": false,
          "name": "password",
          "type": "string"
        },
        {
          "indexed": false,
          "name": "balance",
          "type": "uint256"
        },
        {
          "indexed": false,
          "name": "boardID",
          "type": "bytes32"
        },
        {
          "indexed": false,
          "name": "headline",
          "type": "string"
        },
        {
          "indexed": false,
          "name": "bio",
          "type": "string"
        },
        {
          "indexed": false,
          "name": "minimumPrice",
          "type": "uint256"
        }
      ],
      "name": "UserUpdated",
      "type": "event"
    },
    {
      "anonymous": false,
      "inputs": [
        {
          "indexed": false,
          "name": "questionID",
          "type": "bytes32"
        },
        {
          "indexed": false,
          "name": "questionText",
          "type": "string"
        },
        {
          "indexed": false,
          "name": "boardID",
          "type": "bytes32"
        },
        {
          "indexed": false,
          "name": "price",
          "type": "uint256"
        },
        {
          "indexed": false,
          "name": "priorityBonus",
          "type": "uint256"
        },
        {
          "indexed": false,
          "name": "askUser",
          "type": "address"
        },
        {
          "indexed": false,
          "name": "answerUser",
          "type": "address"
        },
        {
          "indexed": false,
          "name": "isAnswered",
          "type": "bool"
        }
      ],
      "name": "QuestionPosted",
      "type": "event"
    },
    {
      "anonymous": false,
      "inputs": [
        {
          "indexed": false,
          "name": "questionID",
          "type": "bytes32"
        },
        {
          "indexed": false,
          "name": "questionText",
          "type": "string"
        },
        {
          "indexed": false,
          "name": "boardID",
          "type": "bytes32"
        },
        {
          "indexed": false,
          "name": "price",
          "type": "uint256"
        },
        {
          "indexed": false,
          "name": "priorityBonus",
          "type": "uint256"
        },
        {
          "indexed": false,
          "name": "askUser",
          "type": "address"
        },
        {
          "indexed": false,
          "name": "answerUser",
          "type": "address"
        },
        {
          "indexed": false,
          "name": "isAnswered",
          "type": "bool"
        },
        {
          "indexed": false,
          "name": "answerText",
          "type": "string"
        }
      ],
      "name": "AnswerPosted",
      "type": "event"
    },
    {
      "anonymous": false,
      "inputs": [
        {
          "indexed": false,
          "name": "questionID",
          "type": "bytes32"
        },
        {
          "indexed": false,
          "name": "questionText",
          "type": "string"
        },
        {
          "indexed": false,
          "name": "boardID",
          "type": "bytes32"
        },
        {
          "indexed": false,
          "name": "price",
          "type": "uint256"
        },
        {
          "indexed": false,
          "name": "priorityBonus",
          "type": "uint256"
        },
        {
          "indexed": false,
          "name": "askUser",
          "type": "address"
        },
        {
          "indexed": false,
          "name": "answerUser",
          "type": "address"
        },
        {
          "indexed": false,
          "name": "isAnswered",
          "type": "bool"
        }
      ],
      "name": "QuestionDeclined",
      "type": "event"
    },
    {
      "constant": false,
      "inputs": [
        {
          "name": "_username",
          "type": "string"
        },
        {
          "name": "_name",
          "type": "string"
        },
        {
          "name": "_email",
          "type": "string"
        },
        {
          "name": "_password",
          "type": "string"
        },
        {
          "name": "_headline",
          "type": "string"
        },
        {
          "name": "_bio",
          "type": "string"
        },
        {
          "name": "_minimumPrice",
          "type": "uint256"
        }
      ],
      "name": "createUser",
      "outputs": [],
      "payable": false,
      "stateMutability": "nonpayable",
      "type": "function"
    },
    {
      "constant": true,
      "inputs": [
        {
          "name": "_userAddress",
          "type": "address"
        }
      ],
      "name": "getUser",
      "outputs": [
        {
          "components": [
            {
              "name": "userAddress",
              "type": "address"
            },
            {
              "name": "username",
              "type": "string"
            },
            {
              "name": "name",
              "type": "string"
            },
            {
              "name": "email",
              "type": "string"
            },
            {
              "name": "password",
              "type": "string"
            },
            {
              "name": "balance",
              "type": "uint256"
            },
            {
              "name": "boardID",
              "type": "bytes32"
            },
            {
              "name": "headline",
              "type": "string"
            },
            {
              "name": "bio",
              "type": "string"
            },
            {
              "name": "minimumPrice",
              "type": "uint256"
            }
          ],
          "name": "",
          "type": "tuple"
        }
      ],
      "payable": false,
      "stateMutability": "view",
      "type": "function"
    },
    {
      "constant": false,
      "inputs": [
        {
          "name": "_headline",
          "type": "string"
        },
        {
          "name": "_bio",
          "type": "string"
        },
        {
          "name": "_minimumPrice",
          "type": "uint256"
        }
      ],
      "name": "updateUser",
      "outputs": [],
      "payable": false,
      "stateMutability": "nonpayable",
      "type": "function"
    },
    {
      "constant": false,
      "inputs": [
        {
          "name": "_questionText",
          "type": "string"
        },
        {
          "name": "_priorityBonus",
          "type": "uint256"
        },
        {
          "name": "_answerUser",
          "type": "address"
        }
      ],
      "name": "postQuestion",
      "outputs": [],
      "payable": true,
      "stateMutability": "payable",
      "type": "function"
    },
    {
      "constant": false,
      "inputs": [
        {
          "name": "_questionID",
          "type": "bytes32"
        },
        {
          "name": "_answerText",
          "type": "string"
        }
      ],
      "name": "postAnswer",
      "outputs": [],
      "payable": true,
      "stateMutability": "payable",
      "type": "function"
    },
    {
      "constant": false,
      "inputs": [
        {
          "name": "_questionID",
          "type": "bytes32"
        }
      ],
      "name": "declineQuestion",
      "outputs": [],
      "payable": true,
      "stateMutability": "payable",
      "type": "function"
    },
    {
      "constant": true,
      "inputs": [
        {
          "name": "_userAddress",
          "type": "address"
        }
      ],
      "name": "getUserHistory",
      "outputs": [
        {
          "components": [
            {
              "name": "questionID",
              "type": "bytes32"
            },
            {
              "name": "questionText",
              "type": "string"
            },
            {
              "name": "boardID",
              "type": "bytes32"
            },
            {
              "name": "price",
              "type": "uint256"
            },
            {
              "name": "priorityBonus",
              "type": "uint256"
            },
            {
              "name": "askUser",
              "type": "address"
            },
            {
              "name": "answerUser",
              "type": "address"
            },
            {
              "name": "isAnswered",
              "type": "bool"
            }
          ],
          "name": "",
          "type": "tuple[]"
        }
      ],
      "payable": false,
      "stateMutability": "view",
      "type": "function"
    },
    {
      "constant": true,
      "inputs": [],
      "name": "getUnansweredQuestions",
      "outputs": [
        {
          "components": [
            {
              "name": "questionID",
              "type": "bytes32"
            },
            {
              "name": "questionText",
              "type": "string"
            },
            {
              "name": "boardID",
              "type": "bytes32"
            },
            {
              "name": "price",
              "type": "uint256"
            },
            {
              "name": "priorityBonus",
              "type": "uint256"
            },
            {
              "name": "askUser",
              "type": "address"
            },
            {
              "name": "answerUser",
              "type": "address"
            },
            {
              "name": "isAnswered",
              "type": "bool"
            }
          ],
          "name": "",
          "type": "tuple[]"
        }
      ],
      "payable": false,
      "stateMutability": "view",
      "type": "function"
    },
    {
      "constant": true,
      "inputs": [
        {
          "name": "_userAddress",
          "type": "address"
        }
      ],
      "name": "getUserReceivedQuestions",
      "outputs": [
        {
          "components": [
            {
              "name": "questionID",
              "type": "bytes32"
            },
            {
              "name": "questionText",
              "type": "string"
            },
            {
              "name": "boardID",
              "type": "bytes32"
            },
            {
              "name": "price",
              "type": "uint256"
            },
            {
              "name": "priorityBonus",
              "type": "uint256"
            },
            {
              "name": "askUser",
              "type": "address"
            },
            {
              "name": "answerUser",
              "type": "address"
            },
            {
              "name": "isAnswered",
              "type": "bool"
            }
          ],
          "name": "",
          "type": "tuple[]"
        }
      ],
      "payable": false,
      "stateMutability": "view",
      "type": "function"
    },
    {
      "constant": true,
      "inputs": [
        {
          "name": "_userAddress",
          "type": "address"
        }
      ],
      "name": "getUserDeclinedQuestions",
      "outputs": [
        {
          "components": [
            {
              "name": "questionID",
              "type": "bytes32"
            },
            {
              "name": "questionText",
              "type": "string"
            },
            {
              "name": "boardID",
              "type": "bytes32"
            },
            {
              "name": "price",
              "type": "uint256"
            },
            {
              "name": "priorityBonus",
              "type": "uint256"
            },
            {
              "name": "askUser",
              "type": "address"
            },
            {
              "name": "answerUser",
              "type": "address"
            },
            {
              "name": "isAnswered",
              "type": "bool"
            }
          ],
          "name": "",
          "type": "tuple[]"
        }
      ],
      "payable": false,
      "stateMutability": "view",
      "type": "function"
    },
    {
      "constant": true,
      "inputs": [
        {
          "name": "_userAddress",
          "type": "address"
        }
      ],
      "name": "getUserAnsweredQuestions",
      "outputs": [
        {
          "components": [
            {
              "components": [
                {
                  "name": "questionID",
                  "type": "bytes32"
                },
                {
                  "name": "questionText",
                  "type": "string"
                },
                {
                  "name": "boardID",
                  "type": "bytes32"
                },
                {
                  "name": "price",
                  "type": "uint256"
                },
                {
                  "name": "priorityBonus",
                  "type": "uint256"
                },
                {
                  "name": "askUser",
                  "type": "address"
                },
                {
                  "name": "answerUser",
                  "type": "address"
                },
                {
                  "name": "isAnswered",
                  "type": "bool"
                }
              ],
              "name": "question",
              "type": "tuple"
            },
            {
              "name": "answerText",
              "type": "string"
            }
          ],
          "name": "",
          "type": "tuple[]"
        }
      ],
      "payable": false,
      "stateMutability": "view",
      "type": "function"
    },
    {
      "constant": true,
      "inputs": [
        {
          "name": "_userAddress",
          "type": "address"
        }
      ],
      "name": "getUserBalance",
      "outputs": [
        {
          "name": "",
          "type": "uint256"
        }
      ],
      "payable": false,
      "stateMutability": "view",
      "type": "function"
    },
    {
      "constant": true,
      "inputs": [
        {
          "name": "_userAddress",
          "type": "address"
        }
      ],
      "name": "getUserBoardID",
      "outputs": [
        {
          "name": "",
          "type": "bytes32"
        }
      ],
      "payable": false,
      "stateMutability": "view",
      "type": "function"
    },
    {
      "constant": true,
      "inputs": [
        {
          "name": "_userAddress",
          "type": "address"
        }
      ],
      "name": "getUserHeadline",
      "outputs": [
        {
          "name": "",
          "type": "string"
        }
      ],
      "payable": false,
      "stateMutability": "view",
      "type": "function"
    },
    {
      "constant": true,
      "inputs": [
        {
          "name": "_userAddress",
          "type": "address"
        }
      ],
      "name": "getUserBio",
      "outputs": [
        {
          "name": "",
          "type": "string"
        }
      ],
      "payable": false,
      "stateMutability": "view",
      "type": "function"
    },
    {
      "constant": true,
      "inputs": [
        {
          "name": "_userAddress",
          "type": "address"
        }
      ],
      "name": "getUserMinimumPrice",
      "outputs": [
        {
          "name": "",
          "type": "uint256"
        }
      ],
      "payable": false,
      "stateMutability": "view",
      "type": "function"
    },
    {
      "constant": true,
      "inputs": [
        {
          "name": "_userAddress",
          "type": "address"
        }
      ],
      "name": "getUsernameByAddress",
      "outputs": [
        {
          "name": "",
          "type": "string"
        }
      ],
      "payable": false,
      "stateMutability": "view",
      "type": "function"
    }
  ],
  "bytecode": "0x608060405234801561001057600080fd5b50615d0d80620000216000396000f3fe60806040526004361061014e576000357c01000000000000000000000000000000000000000000000000000000009004806303f9706f1461015357806308d8568e146101905780630b2679b6146101ac578063153500aa146101e95780632080cc9714610212578063278d29201461022e578063322befc31461026c57806332bd55fe146102a957806347734892146102ed5780634fb3d3b11461032a578063503af5e1146103675780635a386204146103a45780636f77926b146103e15780637271d9301461041e5780637718f4ec1461044957806385dc9a541461048d578063872f003a146104d157806395addb901461050e578063a87430ba14610552578063b77e17f414610598578063c02d72fd146105b4578063caea00ce146105f1578063d129604b1461062e578063d7d43d1514610657578063e364f3371461069b578063ed1a998d146106df575b600080fd5b34801561015f57600080fd5b5061017a60048036036101759190810190614e62565b61071c565b6040516101879190615ada565b60405180910390f35b6101aa60048036036101a591908101906150f1565b610767565b005b3480156101b857600080fd5b506101d360048036036101ce9190810190614e62565b611147565b6040516101e091906157b4565b60405180910390f35b3480156101f557600080fd5b50610210600480360361020b9190810190615072565b61142e565b005b61022c60048036036102279190810190614ef0565b6116f0565b005b34801561023a57600080fd5b5061025560048036036102509190810190614e8b565b611ee2565b604051610263929190615a81565b60405180910390f35b34801561027857600080fd5b50610293600480360361028e9190810190614e62565b612157565b6040516102a09190615a3d565b60405180910390f35b3480156102b557600080fd5b506102d060048036036102cb9190810190614e8b565b612207565b6040516102e4989796959493929190615898565b60405180910390f35b3480156102f957600080fd5b50610314600480360361030f9190810190614e62565b612350565b6040516103219190615ada565b60405180910390f35b34801561033657600080fd5b50610351600480360361034c9190810190614e62565b61239b565b60405161035e91906157d6565b60405180910390f35b34801561037357600080fd5b5061038e60048036036103899190810190614e62565b6125cc565b60405161039b91906157d6565b60405180910390f35b3480156103b057600080fd5b506103cb60048036036103c69190810190614e62565b6127fd565b6040516103d89190615a5f565b60405180910390f35b3480156103ed57600080fd5b5061040860048036036104039190810190614e62565b6128e0565b6040516104159190615ab8565b60405180910390f35b34801561042a57600080fd5b50610433612d7a565b60405161044091906157d6565b60405180910390f35b34801561045557600080fd5b50610470600480360361046b9190810190614e8b565b612fa9565b604051610484989796959493929190615898565b60405180910390f35b34801561049957600080fd5b506104b460048036036104af9190810190614e8b565b6130f2565b6040516104c8989796959493929190615898565b60405180910390f35b3480156104dd57600080fd5b506104f860048036036104f39190810190614e62565b61323b565b60405161050591906157d6565b60405180910390f35b34801561051a57600080fd5b5061053560048036036105309190810190614ec7565b61346c565b604051610549989796959493929190615898565b60405180910390f35b34801561055e57600080fd5b5061057960048036036105749190810190614e62565b613599565b60405161058f9a99989796959493929190615562565b60405180910390f35b6105b260048036036105ad9190810190614ec7565b61399d565b005b3480156105c057600080fd5b506105db60048036036105d69190810190614e62565b61410c565b6040516105e891906157f8565b60405180910390f35b3480156105fd57600080fd5b5061061860048036036106139190810190614e62565b614157565b6040516106259190615a5f565b60405180910390f35b34801561063a57600080fd5b5061065560048036036106509190810190614f44565b61423a565b005b34801561066357600080fd5b5061067e60048036036106799190810190614e8b565b6146ce565b604051610692989796959493929190615898565b60405180910390f35b3480156106a757600080fd5b506106c260048036036106bd9190810190614e8b565b614817565b6040516106d6989796959493929190615898565b60405180910390f35b3480156106eb57600080fd5b5061070660048036036107019190810190614e62565b614960565b6040516107139190615a5f565b60405180910390f35b60008060008373ffffffffffffffffffffffffffffffffffffffff1673ffffffffffffffffffffffffffffffffffffffff168152602001908152602001600020600901549050919050565b61076f614b14565b6101006040519081016040528085610786856128e0565b60c0015186610794876128e0565b6101200151018733886040516020018087805190602001908083835b6020831015156107d557805182526020820191506020810190506020830392506107b0565b6001836020036101000a0380198251168184511680821785525050505050509050018681526020018581526020018481526020018373ffffffffffffffffffffffffffffffffffffffff1673ffffffffffffffffffffffffffffffffffffffff166c010000000000000000000000000281526014018273ffffffffffffffffffffffffffffffffffffffff1673ffffffffffffffffffffffffffffffffffffffff166c0100000000000000000000000002815260140196505050505050506040516020818303038152906040528051906020012081526020018581526020016108bd846128e0565b60c001518152602001846108d0856128e0565b61012001510181526020018481526020013373ffffffffffffffffffffffffffffffffffffffff1681526020018373ffffffffffffffffffffffffffffffffffffffff168152602001600015158152509050600360003373ffffffffffffffffffffffffffffffffffffffff1673ffffffffffffffffffffffffffffffffffffffff16815260200190815260200160002081908060018154018082558091505090600182039060005260206000209060070201600090919290919091506000820151816000015560208201518160010190805190602001906109b3929190614b8e565b5060408201518160020155606082015181600301556080820151816004015560a08201518160050160006101000a81548173ffffffffffffffffffffffffffffffffffffffff021916908373ffffffffffffffffffffffffffffffffffffffff16021790555060c08201518160060160006101000a81548173ffffffffffffffffffffffffffffffffffffffff021916908373ffffffffffffffffffffffffffffffffffffffff16021790555060e08201518160060160146101000a81548160ff021916908315150217905550505050600360008373ffffffffffffffffffffffffffffffffffffffff1673ffffffffffffffffffffffffffffffffffffffff1681526020019081526020016000208190806001815401808255809150509060018203906000526020600020906007020160009091929091909150600082015181600001556020820151816001019080519060200190610b14929190614b8e565b5060408201518160020155606082015181600301556080820151816004015560a08201518160050160006101000a81548173ffffffffffffffffffffffffffffffffffffffff021916908373ffffffffffffffffffffffffffffffffffffffff16021790555060c08201518160060160006101000a81548173ffffffffffffffffffffffffffffffffffffffff021916908373ffffffffffffffffffffffffffffffffffffffff16021790555060e08201518160060160146101000a81548160ff021916908315150217905550505050600860008373ffffffffffffffffffffffffffffffffffffffff1673ffffffffffffffffffffffffffffffffffffffff1681526020019081526020016000208190806001815401808255809150509060018203906000526020600020906007020160009091929091909150600082015181600001556020820151816001019080519060200190610c75929190614b8e565b5060408201518160020155606082015181600301556080820151816004015560a08201518160050160006101000a81548173ffffffffffffffffffffffffffffffffffffffff021916908373ffffffffffffffffffffffffffffffffffffffff16021790555060c08201518160060160006101000a81548173ffffffffffffffffffffffffffffffffffffffff021916908373ffffffffffffffffffffffffffffffffffffffff16021790555060e08201518160060160146101000a81548160ff021916908315150217905550505050806007600086610d54866128e0565b60c0015187610d62886128e0565b6101200151018833896040516020018087805190602001908083835b602083101515610da35780518252602082019150602081019050602083039250610d7e565b6001836020036101000a0380198251168184511680821785525050505050509050018681526020018581526020018481526020018373ffffffffffffffffffffffffffffffffffffffff1673ffffffffffffffffffffffffffffffffffffffff166c010000000000000000000000000281526014018273ffffffffffffffffffffffffffffffffffffffff1673ffffffffffffffffffffffffffffffffffffffff166c010000000000000000000000000281526014019650505050505050604051602081830303815290604052805190602001208152602001908152602001600020600082015181600001556020820151816001019080519060200190610eab929190614b8e565b5060408201518160020155606082015181600301556080820151816004015560a08201518160050160006101000a81548173ffffffffffffffffffffffffffffffffffffffff021916908373ffffffffffffffffffffffffffffffffffffffff16021790555060c08201518160060160006101000a81548173ffffffffffffffffffffffffffffffffffffffff021916908373ffffffffffffffffffffffffffffffffffffffff16021790555060e08201518160060160146101000a81548160ff021916908315150217905550905050600460008373ffffffffffffffffffffffffffffffffffffffff1673ffffffffffffffffffffffffffffffffffffffff168152602001908152602001600020819080600181540180825580915050906001820390600052602060002090600702016000909192909190915060008201518160000155602082015181600101908051906020019061100c929190614b8e565b5060408201518160020155606082015181600301556080820151816004015560a08201518160050160006101000a81548173ffffffffffffffffffffffffffffffffffffffff021916908373ffffffffffffffffffffffffffffffffffffffff16021790555060c08201518160060160006101000a81548173ffffffffffffffffffffffffffffffffffffffff021916908373ffffffffffffffffffffffffffffffffffffffff16021790555060e08201518160060160146101000a81548160ff0219169083151502179055505050507f42b44d3df304c5a58b6aa021e0159f5018689261d88f89b50dbda8de493eba4a81600001518561110c856128e0565b60c001518661111a876128e0565b6101200151018733886000604051611139989796959493929190615813565b60405180910390a150505050565b6060600660008373ffffffffffffffffffffffffffffffffffffffff1673ffffffffffffffffffffffffffffffffffffffff168152602001908152602001600020805480602002602001604051908101604052809291908181526020016000905b82821015611423578382906000526020600020906008020160408051908101604052908160008201610100604051908101604052908160008201548152602001600182018054600181600116156101000203166002900480601f0160208091040260200160405190810160405280929190818152602001828054600181600116156101000203166002900480156112805780601f1061125557610100808354040283529160200191611280565b820191906000526020600020905b81548152906001019060200180831161126357829003601f168201915b505050505081526020016002820154815260200160038201548152602001600482015481526020016005820160009054906101000a900473ffffffffffffffffffffffffffffffffffffffff1673ffffffffffffffffffffffffffffffffffffffff1673ffffffffffffffffffffffffffffffffffffffff1681526020016006820160009054906101000a900473ffffffffffffffffffffffffffffffffffffffff1673ffffffffffffffffffffffffffffffffffffffff1673ffffffffffffffffffffffffffffffffffffffff1681526020016006820160149054906101000a900460ff1615151515815250508152602001600782018054600181600116156101000203166002900480601f01602080910402602001604051908101604052809291908181526020018280546001816001161561010002031660029004801561140b5780601f106113e05761010080835404028352916020019161140b565b820191906000526020600020905b8154815290600101906020018083116113ee57829003601f168201915b505050505081525050815260200190600101906111a8565b505050509050919050565b826000803373ffffffffffffffffffffffffffffffffffffffff1673ffffffffffffffffffffffffffffffffffffffff1681526020019081526020016000206007019080519060200190611483929190614c0e565b50816000803373ffffffffffffffffffffffffffffffffffffffff1673ffffffffffffffffffffffffffffffffffffffff16815260200190815260200160002060080190805190602001906114d9929190614c0e565b50806000803373ffffffffffffffffffffffffffffffffffffffff1673ffffffffffffffffffffffffffffffffffffffff168152602001908152602001600020600901819055507f2628e9f4cf7654da85545778e6bf2f671cfcb0f9861cc5b3c53c2dbae5eac907336000803373ffffffffffffffffffffffffffffffffffffffff1673ffffffffffffffffffffffffffffffffffffffff1681526020019081526020016000206001016000803373ffffffffffffffffffffffffffffffffffffffff1673ffffffffffffffffffffffffffffffffffffffff1681526020019081526020016000206002016000803373ffffffffffffffffffffffffffffffffffffffff1673ffffffffffffffffffffffffffffffffffffffff1681526020019081526020016000206003016000803373ffffffffffffffffffffffffffffffffffffffff1673ffffffffffffffffffffffffffffffffffffffff1681526020019081526020016000206004016000803373ffffffffffffffffffffffffffffffffffffffff1673ffffffffffffffffffffffffffffffffffffffff168152602001908152602001600020600501546000803373ffffffffffffffffffffffffffffffffffffffff1673ffffffffffffffffffffffffffffffffffffffff168152602001908152602001600020600601548a8a8a6040516116e39a99989796959493929190615628565b60405180910390a1505050565b6116f8614b14565b60008090505b600460003373ffffffffffffffffffffffffffffffffffffffff1673ffffffffffffffffffffffffffffffffffffffff168152602001908152602001600020805490508110156119b95783600460003373ffffffffffffffffffffffffffffffffffffffff1673ffffffffffffffffffffffffffffffffffffffff1681526020019081526020016000208281548110151561179557fe5b90600052602060002090600702016000015414156119ac57600460003373ffffffffffffffffffffffffffffffffffffffff1673ffffffffffffffffffffffffffffffffffffffff168152602001908152602001600020818154811015156117f957fe5b9060005260206000209060070201610100604051908101604052908160008201548152602001600182018054600181600116156101000203166002900480601f0160208091040260200160405190810160405280929190818152602001828054600181600116156101000203166002900480156118b75780601f1061188c576101008083540402835291602001916118b7565b820191906000526020600020905b81548152906001019060200180831161189a57829003601f168201915b505050505081526020016002820154815260200160038201548152602001600482015481526020016005820160009054906101000a900473ffffffffffffffffffffffffffffffffffffffff1673ffffffffffffffffffffffffffffffffffffffff1673ffffffffffffffffffffffffffffffffffffffff1681526020016006820160009054906101000a900473ffffffffffffffffffffffffffffffffffffffff1673ffffffffffffffffffffffffffffffffffffffff1673ffffffffffffffffffffffffffffffffffffffff1681526020016006820160149054906101000a900460ff16151515158152505091506119b9565b80806001019150506116fe565b506119c2614c8e565b6040805190810160405280838152602001848152509050600660003373ffffffffffffffffffffffffffffffffffffffff1673ffffffffffffffffffffffffffffffffffffffff1681526020019081526020016000208190806001815401808255809150509060018203906000526020600020906008020160009091929091909150600082015181600001600082015181600001556020820151816001019080519060200190611a73929190614b8e565b5060408201518160020155606082015181600301556080820151816004015560a08201518160050160006101000a81548173ffffffffffffffffffffffffffffffffffffffff021916908373ffffffffffffffffffffffffffffffffffffffff16021790555060c08201518160060160006101000a81548173ffffffffffffffffffffffffffffffffffffffff021916908373ffffffffffffffffffffffffffffffffffffffff16021790555060e08201518160060160146101000a81548160ff02191690831515021790555050506020820151816007019080519060200190611b5e929190614b8e565b5050505060018260e0019015159081151581525050338260c0019073ffffffffffffffffffffffffffffffffffffffff16908173ffffffffffffffffffffffffffffffffffffffff1681525050600360008360a0015173ffffffffffffffffffffffffffffffffffffffff1673ffffffffffffffffffffffffffffffffffffffff1681526020019081526020016000208290806001815401808255809150509060018203906000526020600020906007020160009091929091909150600082015181600001556020820151816001019080519060200190611c40929190614b8e565b5060408201518160020155606082015181600301556080820151816004015560a08201518160050160006101000a81548173ffffffffffffffffffffffffffffffffffffffff021916908373ffffffffffffffffffffffffffffffffffffffff16021790555060c08201518160060160006101000a81548173ffffffffffffffffffffffffffffffffffffffff021916908373ffffffffffffffffffffffffffffffffffffffff16021790555060e08201518160060160146101000a81548160ff021916908315150217905550505050600360008360c0015173ffffffffffffffffffffffffffffffffffffffff1673ffffffffffffffffffffffffffffffffffffffff1681526020019081526020016000208290806001815401808255809150509060018203906000526020600020906007020160009091929091909150600082015181600001556020820151816001019080519060200190611da5929190614b8e565b5060408201518160020155606082015181600301556080820151816004015560a08201518160050160006101000a81548173ffffffffffffffffffffffffffffffffffffffff021916908373ffffffffffffffffffffffffffffffffffffffff16021790555060c08201518160060160006101000a81548173ffffffffffffffffffffffffffffffffffffffff021916908373ffffffffffffffffffffffffffffffffffffffff16021790555060e08201518160060160146101000a81548160ff0219169083151502179055505050507f5002066b3004dcbb2d04cc64b0d256fdeab9a11c6bc20bcf47b5c5c875e32daa826000015183602001518460400151856060015186608001518760a001518860c001518960e001518b604051611ed4999897969594939291906159a2565b60405180910390a150505050565b600660205281600052604060002081815481101515611efd57fe5b90600052602060002090600802016000915091505080600001610100604051908101604052908160008201548152602001600182018054600181600116156101000203166002900480601f016020809104026020016040519081016040528092919081815260200182805460018160011615610100020316600290048015611fc65780601f10611f9b57610100808354040283529160200191611fc6565b820191906000526020600020905b815481529060010190602001808311611fa957829003601f168201915b505050505081526020016002820154815260200160038201548152602001600482015481526020016005820160009054906101000a900473ffffffffffffffffffffffffffffffffffffffff1673ffffffffffffffffffffffffffffffffffffffff1673ffffffffffffffffffffffffffffffffffffffff1681526020016006820160009054906101000a900473ffffffffffffffffffffffffffffffffffffffff1673ffffffffffffffffffffffffffffffffffffffff1673ffffffffffffffffffffffffffffffffffffffff1681526020016006820160149054906101000a900460ff16151515158152505090806007018054600181600116156101000203166002900480601f01602080910402602001604051908101604052809291908181526020018280546001816001161561010002031660029004801561214d5780601f106121225761010080835404028352916020019161214d565b820191906000526020600020905b81548152906001019060200180831161213057829003601f168201915b5050505050905082565b60016020528060005260406000206000915090508054600181600116156101000203166002900480601f0160208091040260200160405190810160405280929190818152602001828054600181600116156101000203166002900480156121ff5780601f106121d4576101008083540402835291602001916121ff565b820191906000526020600020905b8154815290600101906020018083116121e257829003601f168201915b505050505081565b60026020528160005260406000208181548110151561222257fe5b906000526020600020906007020160009150915050806000015490806001018054600181600116156101000203166002900480601f0160208091040260200160405190810160405280929190818152602001828054600181600116156101000203166002900480156122d55780601f106122aa576101008083540402835291602001916122d5565b820191906000526020600020905b8154815290600101906020018083116122b857829003601f168201915b5050505050908060020154908060030154908060040154908060050160009054906101000a900473ffffffffffffffffffffffffffffffffffffffff16908060060160009054906101000a900473ffffffffffffffffffffffffffffffffffffffff16908060060160149054906101000a900460ff16905088565b60008060008373ffffffffffffffffffffffffffffffffffffffff1673ffffffffffffffffffffffffffffffffffffffff168152602001908152602001600020600501549050919050565b6060600360008373ffffffffffffffffffffffffffffffffffffffff1673ffffffffffffffffffffffffffffffffffffffff168152602001908152602001600020805480602002602001604051908101604052809291908181526020016000905b828210156125c15783829060005260206000209060070201610100604051908101604052908160008201548152602001600182018054600181600116156101000203166002900480601f0160208091040260200160405190810160405280929190818152602001828054600181600116156101000203166002900480156124c45780601f10612499576101008083540402835291602001916124c4565b820191906000526020600020905b8154815290600101906020018083116124a757829003601f168201915b505050505081526020016002820154815260200160038201548152602001600482015481526020016005820160009054906101000a900473ffffffffffffffffffffffffffffffffffffffff1673ffffffffffffffffffffffffffffffffffffffff1673ffffffffffffffffffffffffffffffffffffffff1681526020016006820160009054906101000a900473ffffffffffffffffffffffffffffffffffffffff1673ffffffffffffffffffffffffffffffffffffffff1673ffffffffffffffffffffffffffffffffffffffff1681526020016006820160149054906101000a900460ff161515151581525050815260200190600101906123fc565b505050509050919050565b6060600560008373ffffffffffffffffffffffffffffffffffffffff1673ffffffffffffffffffffffffffffffffffffffff168152602001908152602001600020805480602002602001604051908101604052809291908181526020016000905b828210156127f25783829060005260206000209060070201610100604051908101604052908160008201548152602001600182018054600181600116156101000203166002900480601f0160208091040260200160405190810160405280929190818152602001828054600181600116156101000203166002900480156126f55780601f106126ca576101008083540402835291602001916126f5565b820191906000526020600020905b8154815290600101906020018083116126d857829003601f168201915b505050505081526020016002820154815260200160038201548152602001600482015481526020016005820160009054906101000a900473ffffffffffffffffffffffffffffffffffffffff1673ffffffffffffffffffffffffffffffffffffffff1673ffffffffffffffffffffffffffffffffffffffff1681526020016006820160009054906101000a900473ffffffffffffffffffffffffffffffffffffffff1673ffffffffffffffffffffffffffffffffffffffff1673ffffffffffffffffffffffffffffffffffffffff1681526020016006820160149054906101000a900460ff1615151515815250508152602001906001019061262d565b505050509050919050565b60606000808373ffffffffffffffffffffffffffffffffffffffff1673ffffffffffffffffffffffffffffffffffffffff1681526020019081526020016000206008018054600181600116156101000203166002900480601f0160208091040260200160405190810160405280929190818152602001828054600181600116156101000203166002900480156128d45780601f106128a9576101008083540402835291602001916128d4565b820191906000526020600020905b8154815290600101906020018083116128b757829003601f168201915b50505050509050919050565b6128e8614cb0565b6000808373ffffffffffffffffffffffffffffffffffffffff1673ffffffffffffffffffffffffffffffffffffffff16815260200190815260200160002061014060405190810160405290816000820160009054906101000a900473ffffffffffffffffffffffffffffffffffffffff1673ffffffffffffffffffffffffffffffffffffffff1673ffffffffffffffffffffffffffffffffffffffff168152602001600182018054600181600116156101000203166002900480601f016020809104026020016040519081016040528092919081815260200182805460018160011615610100020316600290048015612a225780601f106129f757610100808354040283529160200191612a22565b820191906000526020600020905b815481529060010190602001808311612a0557829003601f168201915b50505050508152602001600282018054600181600116156101000203166002900480601f016020809104026020016040519081016040528092919081815260200182805460018160011615610100020316600290048015612ac45780601f10612a9957610100808354040283529160200191612ac4565b820191906000526020600020905b815481529060010190602001808311612aa757829003601f168201915b50505050508152602001600382018054600181600116156101000203166002900480601f016020809104026020016040519081016040528092919081815260200182805460018160011615610100020316600290048015612b665780601f10612b3b57610100808354040283529160200191612b66565b820191906000526020600020905b815481529060010190602001808311612b4957829003601f168201915b50505050508152602001600482018054600181600116156101000203166002900480601f016020809104026020016040519081016040528092919081815260200182805460018160011615610100020316600290048015612c085780601f10612bdd57610100808354040283529160200191612c08565b820191906000526020600020905b815481529060010190602001808311612beb57829003601f168201915b505050505081526020016005820154815260200160068201548152602001600782018054600181600116156101000203166002900480601f016020809104026020016040519081016040528092919081815260200182805460018160011615610100020316600290048015612cbe5780601f10612c9357610100808354040283529160200191612cbe565b820191906000526020600020905b815481529060010190602001808311612ca157829003601f168201915b50505050508152602001600882018054600181600116156101000203166002900480601f016020809104026020016040519081016040528092919081815260200182805460018160011615610100020316600290048015612d605780601f10612d3557610100808354040283529160200191612d60565b820191906000526020600020905b815481529060010190602001808311612d4357829003601f168201915b505050505081526020016009820154815250509050919050565b6060600860003373ffffffffffffffffffffffffffffffffffffffff1673ffffffffffffffffffffffffffffffffffffffff168152602001908152602001600020805480602002602001604051908101604052809291908181526020016000905b82821015612fa05783829060005260206000209060070201610100604051908101604052908160008201548152602001600182018054600181600116156101000203166002900480601f016020809104026020016040519081016040528092919081815260200182805460018160011615610100020316600290048015612ea35780601f10612e7857610100808354040283529160200191612ea3565b820191906000526020600020905b815481529060010190602001808311612e8657829003601f168201915b505050505081526020016002820154815260200160038201548152602001600482015481526020016005820160009054906101000a900473ffffffffffffffffffffffffffffffffffffffff1673ffffffffffffffffffffffffffffffffffffffff1673ffffffffffffffffffffffffffffffffffffffff1681526020016006820160009054906101000a900473ffffffffffffffffffffffffffffffffffffffff1673ffffffffffffffffffffffffffffffffffffffff1673ffffffffffffffffffffffffffffffffffffffff1681526020016006820160149054906101000a900460ff16151515158152505081526020019060010190612ddb565b50505050905090565b600360205281600052604060002081815481101515612fc457fe5b906000526020600020906007020160009150915050806000015490806001018054600181600116156101000203166002900480601f0160208091040260200160405190810160405280929190818152602001828054600181600116156101000203166002900480156130775780601f1061304c57610100808354040283529160200191613077565b820191906000526020600020905b81548152906001019060200180831161305a57829003601f168201915b5050505050908060020154908060030154908060040154908060050160009054906101000a900473ffffffffffffffffffffffffffffffffffffffff16908060060160009054906101000a900473ffffffffffffffffffffffffffffffffffffffff16908060060160149054906101000a900460ff16905088565b60056020528160005260406000208181548110151561310d57fe5b906000526020600020906007020160009150915050806000015490806001018054600181600116156101000203166002900480601f0160208091040260200160405190810160405280929190818152602001828054600181600116156101000203166002900480156131c05780601f10613195576101008083540402835291602001916131c0565b820191906000526020600020905b8154815290600101906020018083116131a357829003601f168201915b5050505050908060020154908060030154908060040154908060050160009054906101000a900473ffffffffffffffffffffffffffffffffffffffff16908060060160009054906101000a900473ffffffffffffffffffffffffffffffffffffffff16908060060160149054906101000a900460ff16905088565b6060600460008373ffffffffffffffffffffffffffffffffffffffff1673ffffffffffffffffffffffffffffffffffffffff168152602001908152602001600020805480602002602001604051908101604052809291908181526020016000905b828210156134615783829060005260206000209060070201610100604051908101604052908160008201548152602001600182018054600181600116156101000203166002900480601f0160208091040260200160405190810160405280929190818152602001828054600181600116156101000203166002900480156133645780601f1061333957610100808354040283529160200191613364565b820191906000526020600020905b81548152906001019060200180831161334757829003601f168201915b505050505081526020016002820154815260200160038201548152602001600482015481526020016005820160009054906101000a900473ffffffffffffffffffffffffffffffffffffffff1673ffffffffffffffffffffffffffffffffffffffff1673ffffffffffffffffffffffffffffffffffffffff1681526020016006820160009054906101000a900473ffffffffffffffffffffffffffffffffffffffff1673ffffffffffffffffffffffffffffffffffffffff1673ffffffffffffffffffffffffffffffffffffffff1681526020016006820160149054906101000a900460ff1615151515815250508152602001906001019061329c565b505050509050919050565b6007602052806000526040600020600091509050806000015490806001018054600181600116156101000203166002900480601f01602080910402602001604051908101604052809291908181526020018280546001816001161561010002031660029004801561351e5780601f106134f35761010080835404028352916020019161351e565b820191906000526020600020905b81548152906001019060200180831161350157829003601f168201915b5050505050908060020154908060030154908060040154908060050160009054906101000a900473ffffffffffffffffffffffffffffffffffffffff16908060060160009054906101000a900473ffffffffffffffffffffffffffffffffffffffff16908060060160149054906101000a900460ff16905088565b60006020528060005260406000206000915090508060000160009054906101000a900473ffffffffffffffffffffffffffffffffffffffff1690806001018054600181600116156101000203166002900480601f01602080910402602001604051908101604052809291908181526020018280546001816001161561010002031660029004801561366b5780601f106136405761010080835404028352916020019161366b565b820191906000526020600020905b81548152906001019060200180831161364e57829003601f168201915b505050505090806002018054600181600116156101000203166002900480601f0160208091040260200160405190810160405280929190818152602001828054600181600116156101000203166002900480156137095780601f106136de57610100808354040283529160200191613709565b820191906000526020600020905b8154815290600101906020018083116136ec57829003601f168201915b505050505090806003018054600181600116156101000203166002900480601f0160208091040260200160405190810160405280929190818152602001828054600181600116156101000203166002900480156137a75780601f1061377c576101008083540402835291602001916137a7565b820191906000526020600020905b81548152906001019060200180831161378a57829003601f168201915b505050505090806004018054600181600116156101000203166002900480601f0160208091040260200160405190810160405280929190818152602001828054600181600116156101000203166002900480156138455780601f1061381a57610100808354040283529160200191613845565b820191906000526020600020905b81548152906001019060200180831161382857829003601f168201915b505050505090806005015490806006015490806007018054600181600116156101000203166002900480601f0160208091040260200160405190810160405280929190818152602001828054600181600116156101000203166002900480156138ef5780601f106138c4576101008083540402835291602001916138ef565b820191906000526020600020905b8154815290600101906020018083116138d257829003601f168201915b505050505090806008018054600181600116156101000203166002900480601f01602080910402602001604051908101604052809291908181526020018280546001816001161561010002031660029004801561398d5780601f106139625761010080835404028352916020019161398d565b820191906000526020600020905b81548152906001019060200180831161397057829003601f168201915b505050505090806009015490508a565b6139a5614b14565b60008090505b600460003373ffffffffffffffffffffffffffffffffffffffff1673ffffffffffffffffffffffffffffffffffffffff16815260200190815260200160002080549050811015613c665782600460003373ffffffffffffffffffffffffffffffffffffffff1673ffffffffffffffffffffffffffffffffffffffff16815260200190815260200160002082815481101515613a4257fe5b9060005260206000209060070201600001541415613c5957600460003373ffffffffffffffffffffffffffffffffffffffff1673ffffffffffffffffffffffffffffffffffffffff16815260200190815260200160002081815481101515613aa657fe5b9060005260206000209060070201610100604051908101604052908160008201548152602001600182018054600181600116156101000203166002900480601f016020809104026020016040519081016040528092919081815260200182805460018160011615610100020316600290048015613b645780601f10613b3957610100808354040283529160200191613b64565b820191906000526020600020905b815481529060010190602001808311613b4757829003601f168201915b505050505081526020016002820154815260200160038201548152602001600482015481526020016005820160009054906101000a900473ffffffffffffffffffffffffffffffffffffffff1673ffffffffffffffffffffffffffffffffffffffff1673ffffffffffffffffffffffffffffffffffffffff1681526020016006820160009054906101000a900473ffffffffffffffffffffffffffffffffffffffff1673ffffffffffffffffffffffffffffffffffffffff1673ffffffffffffffffffffffffffffffffffffffff1681526020016006820160149054906101000a900460ff1615151515815250509150613c66565b80806001019150506139ab565b5060018160e0019015159081151581525050600560003373ffffffffffffffffffffffffffffffffffffffff1673ffffffffffffffffffffffffffffffffffffffff1681526020019081526020016000208190806001815401808255809150509060018203906000526020600020906007020160009091929091909150600082015181600001556020820151816001019080519060200190613d09929190614b8e565b5060408201518160020155606082015181600301556080820151816004015560a08201518160050160006101000a81548173ffffffffffffffffffffffffffffffffffffffff021916908373ffffffffffffffffffffffffffffffffffffffff16021790555060c08201518160060160006101000a81548173ffffffffffffffffffffffffffffffffffffffff021916908373ffffffffffffffffffffffffffffffffffffffff16021790555060e08201518160060160146101000a81548160ff021916908315150217905550505050600360008260a0015173ffffffffffffffffffffffffffffffffffffffff1673ffffffffffffffffffffffffffffffffffffffff1681526020019081526020016000208190806001815401808255809150509060018203906000526020600020906007020160009091929091909150600082015181600001556020820151816001019080519060200190613e6e929190614b8e565b5060408201518160020155606082015181600301556080820151816004015560a08201518160050160006101000a81548173ffffffffffffffffffffffffffffffffffffffff021916908373ffffffffffffffffffffffffffffffffffffffff16021790555060c08201518160060160006101000a81548173ffffffffffffffffffffffffffffffffffffffff021916908373ffffffffffffffffffffffffffffffffffffffff16021790555060e08201518160060160146101000a81548160ff021916908315150217905550505050600360008260c0015173ffffffffffffffffffffffffffffffffffffffff1673ffffffffffffffffffffffffffffffffffffffff1681526020019081526020016000208190806001815401808255809150509060018203906000526020600020906007020160009091929091909150600082015181600001556020820151816001019080519060200190613fd3929190614b8e565b5060408201518160020155606082015181600301556080820151816004015560a08201518160050160006101000a81548173ffffffffffffffffffffffffffffffffffffffff021916908373ffffffffffffffffffffffffffffffffffffffff16021790555060c08201518160060160006101000a81548173ffffffffffffffffffffffffffffffffffffffff021916908373ffffffffffffffffffffffffffffffffffffffff16021790555060e08201518160060160146101000a81548160ff0219169083151502179055505050507f0e942693ea300e89ee176a54f6075364b3fb784f11777a48d46a932deab8da76816000015182602001518360400151846060015185608001518660a001518760c001518860e0015160405161410098979695949392919061591d565b60405180910390a15050565b60008060008373ffffffffffffffffffffffffffffffffffffffff1673ffffffffffffffffffffffffffffffffffffffff168152602001908152602001600020600601549050919050565b60606000808373ffffffffffffffffffffffffffffffffffffffff1673ffffffffffffffffffffffffffffffffffffffff1681526020019081526020016000206007018054600181600116156101000203166002900480601f01602080910402602001604051908101604052809291908181526020018280546001816001161561010002031660029004801561422e5780601f106142035761010080835404028352916020019161422e565b820191906000526020600020905b81548152906001019060200180831161421157829003601f168201915b50505050509050919050565b60006142468887614a41565b90506000339050614255614cb0565b610140604051908101604052808373ffffffffffffffffffffffffffffffffffffffff1681526020018b81526020018a815260200189815260200188815260200160008152602001848152602001878152602001868152602001858152509050806000803373ffffffffffffffffffffffffffffffffffffffff1673ffffffffffffffffffffffffffffffffffffffff16815260200190815260200160002060008201518160000160006101000a81548173ffffffffffffffffffffffffffffffffffffffff021916908373ffffffffffffffffffffffffffffffffffffffff1602179055506020820151816001019080519060200190614357929190614b8e565b506040820151816002019080519060200190614374929190614b8e565b506060820151816003019080519060200190614391929190614b8e565b5060808201518160040190805190602001906143ae929190614b8e565b5060a0820151816005015560c0820151816006015560e08201518160070190805190602001906143df929190614b8e565b506101008201518160080190805190602001906143fd929190614b8e565b50610120820151816009015590505089600160003373ffffffffffffffffffffffffffffffffffffffff1673ffffffffffffffffffffffffffffffffffffffff168152602001908152602001600020908051906020019061445f929190614c0e565b507f0ced4802a454836801009dfca10894ad70dfdf5cfd7174d56f40ff57b82af9d3336000803373ffffffffffffffffffffffffffffffffffffffff1673ffffffffffffffffffffffffffffffffffffffff1681526020019081526020016000206001016000803373ffffffffffffffffffffffffffffffffffffffff1673ffffffffffffffffffffffffffffffffffffffff1681526020019081526020016000206002016000803373ffffffffffffffffffffffffffffffffffffffff1673ffffffffffffffffffffffffffffffffffffffff1681526020019081526020016000206003016000803373ffffffffffffffffffffffffffffffffffffffff1673ffffffffffffffffffffffffffffffffffffffff1681526020019081526020016000206004013373ffffffffffffffffffffffffffffffffffffffff16316000803373ffffffffffffffffffffffffffffffffffffffff1673ffffffffffffffffffffffffffffffffffffffff168152602001908152602001600020600601546000803373ffffffffffffffffffffffffffffffffffffffff1673ffffffffffffffffffffffffffffffffffffffff1681526020019081526020016000206007016000803373ffffffffffffffffffffffffffffffffffffffff1673ffffffffffffffffffffffffffffffffffffffff1681526020019081526020016000206008016000803373ffffffffffffffffffffffffffffffffffffffff1673ffffffffffffffffffffffffffffffffffffffff168152602001908152602001600020600901546040516146ba9a999897969594939291906156ee565b60405180910390a150505050505050505050565b6008602052816000526040600020818154811015156146e957fe5b906000526020600020906007020160009150915050806000015490806001018054600181600116156101000203166002900480601f01602080910402602001604051908101604052809291908181526020018280546001816001161561010002031660029004801561479c5780601f106147715761010080835404028352916020019161479c565b820191906000526020600020905b81548152906001019060200180831161477f57829003601f168201915b5050505050908060020154908060030154908060040154908060050160009054906101000a900473ffffffffffffffffffffffffffffffffffffffff16908060060160009054906101000a900473ffffffffffffffffffffffffffffffffffffffff16908060060160149054906101000a900460ff16905088565b60046020528160005260406000208181548110151561483257fe5b906000526020600020906007020160009150915050806000015490806001018054600181600116156101000203166002900480601f0160208091040260200160405190810160405280929190818152602001828054600181600116156101000203166002900480156148e55780601f106148ba576101008083540402835291602001916148e5565b820191906000526020600020905b8154815290600101906020018083116148c857829003601f168201915b5050505050908060020154908060030154908060040154908060050160009054906101000a900473ffffffffffffffffffffffffffffffffffffffff16908060060160009054906101000a900473ffffffffffffffffffffffffffffffffffffffff16908060060160149054906101000a900460ff16905088565b6060600160008373ffffffffffffffffffffffffffffffffffffffff1673ffffffffffffffffffffffffffffffffffffffff1681526020019081526020016000208054600181600116156101000203166002900480601f016020809104026020016040519081016040528092919081815260200182805460018160011615610100020316600290048015614a355780601f10614a0a57610100808354040283529160200191614a35565b820191906000526020600020905b815481529060010190602001808311614a1857829003601f168201915b50505050509050919050565b600082826040516020018083805190602001908083835b602083101515614a7d5780518252602082019150602081019050602083039250614a58565b6001836020036101000a03801982511681845116808217855250505050505090500182805190602001908083835b602083101515614ad05780518252602082019150602081019050602083039250614aab565b6001836020036101000a0380198251168184511680821785525050505050509050019250505060405160208183030381529060405280519060200120905092915050565b610100604051908101604052806000801916815260200160608152602001600080191681526020016000815260200160008152602001600073ffffffffffffffffffffffffffffffffffffffff168152602001600073ffffffffffffffffffffffffffffffffffffffff1681526020016000151581525090565b828054600181600116156101000203166002900490600052602060002090601f016020900481019282601f10614bcf57805160ff1916838001178555614bfd565b82800160010185558215614bfd579182015b82811115614bfc578251825591602001919060010190614be1565b5b509050614c0a9190614d1d565b5090565b828054600181600116156101000203166002900490600052602060002090601f016020900481019282601f10614c4f57805160ff1916838001178555614c7d565b82800160010185558215614c7d579182015b82811115614c7c578251825591602001919060010190614c61565b5b509050614c8a9190614d1d565b5090565b61012060405190810160405280614ca3614d42565b8152602001606081525090565b61014060405190810160405280600073ffffffffffffffffffffffffffffffffffffffff1681526020016060815260200160608152602001606081526020016060815260200160008152602001600080191681526020016060815260200160608152602001600081525090565b614d3f91905b80821115614d3b576000816000905550600101614d23565b5090565b90565b610100604051908101604052806000801916815260200160608152602001600080191681526020016000815260200160008152602001600073ffffffffffffffffffffffffffffffffffffffff168152602001600073ffffffffffffffffffffffffffffffffffffffff1681526020016000151581525090565b6000614dc88235615c12565b905092915050565b6000614ddc8235615c24565b905092915050565b6000614df08235615c36565b905092915050565b600082601f8301121515614e0b57600080fd5b8135614e1e614e1982615b22565b615af5565b91508082526020830160208301858383011115614e3a57600080fd5b614e45838284615c80565b50505092915050565b6000614e5a8235615c40565b905092915050565b600060208284031215614e7457600080fd5b6000614e8284828501614dbc565b91505092915050565b60008060408385031215614e9e57600080fd5b6000614eac85828601614dbc565b9250506020614ebd85828601614e4e565b9150509250929050565b600060208284031215614ed957600080fd5b6000614ee784828501614de4565b91505092915050565b60008060408385031215614f0357600080fd5b6000614f1185828601614de4565b925050602083013567ffffffffffffffff811115614f2e57600080fd5b614f3a85828601614df8565b9150509250929050565b600080600080600080600060e0888a031215614f5f57600080fd5b600088013567ffffffffffffffff811115614f7957600080fd5b614f858a828b01614df8565b975050602088013567ffffffffffffffff811115614fa257600080fd5b614fae8a828b01614df8565b965050604088013567ffffffffffffffff811115614fcb57600080fd5b614fd78a828b01614df8565b955050606088013567ffffffffffffffff811115614ff457600080fd5b6150008a828b01614df8565b945050608088013567ffffffffffffffff81111561501d57600080fd5b6150298a828b01614df8565b93505060a088013567ffffffffffffffff81111561504657600080fd5b6150528a828b01614df8565b92505060c06150638a828b01614e4e565b91505092959891949750929550565b60008060006060848603121561508757600080fd5b600084013567ffffffffffffffff8111156150a157600080fd5b6150ad86828701614df8565b935050602084013567ffffffffffffffff8111156150ca57600080fd5b6150d686828701614df8565b92505060406150e786828701614e4e565b9150509250925092565b60008060006060848603121561510657600080fd5b600084013567ffffffffffffffff81111561512057600080fd5b61512c86828701614df8565b935050602061513d86828701614e4e565b925050604061514e86828701614dd0565b9150509250925092565b61516181615c4a565b82525050565b61517081615bc0565b82525050565b600061518182615b7a565b8084526020840193508360208202850161519a85615b4e565b60005b848110156151d35783830388526151b5838351615362565b92506151c082615ba6565b915060208801975060018101905061519d565b508196508694505050505092915050565b60006151ef82615b85565b8084526020840193508360208202850161520885615b5b565b60005b848110156152415783830388526152238383516153a6565b925061522e82615bb3565b915060208801975060018101905061520b565b508196508694505050505092915050565b61525b81615bd2565b82525050565b61526a81615bde565b82525050565b600061527b82615b9b565b80845261528f816020860160208601615c8f565b61529881615cc2565b602085010191505092915050565b60006152b182615b90565b8084526152c5816020860160208601615c8f565b6152ce81615cc2565b602085010191505092915050565b6000815460018116600081146152f957600181146153195761535a565b607f600283041680865260ff19831660208701526040860193505061535a565b6002820480865260208601955061532f85615b68565b60005b8281101561535157815481890152600182019150602081019050615332565b80880195505050505b505092915050565b6000604083016000830151848203600086015261537f82826153a6565b9150506020830151848203602086015261539982826152a6565b9150508091505092915050565b6000610100830160008301516153bf6000860182615261565b50602083015184820360208601526153d782826152a6565b91505060408301516153ec6040860182615261565b5060608301516153ff6060860182615553565b5060808301516154126080860182615553565b5060a083015161542560a0860182615167565b5060c083015161543860c0860182615167565b5060e083015161544b60e0860182615252565b508091505092915050565b60006101408301600083015161546f6000860182615167565b506020830151848203602086015261548782826152a6565b915050604083015184820360408601526154a182826152a6565b915050606083015184820360608601526154bb82826152a6565b915050608083015184820360808601526154d582826152a6565b91505060a08301516154ea60a0860182615553565b5060c08301516154fd60c0860182615261565b5060e083015184820360e086015261551582826152a6565b91505061010083015184820361010086015261553182826152a6565b915050610120830151615548610120860182615553565b508091505092915050565b61555c81615c08565b82525050565b600061014082019050615578600083018d615167565b818103602083015261558a818c6152a6565b9050818103604083015261559e818b6152a6565b905081810360608301526155b2818a6152a6565b905081810360808301526155c681896152a6565b90506155d560a0830188615553565b6155e260c0830187615261565b81810360e08301526155f481866152a6565b905081810361010083015261560981856152a6565b9050615619610120830184615553565b9b9a5050505050505050505050565b60006101408201905061563e600083018d615158565b8181036020830152615650818c6152dc565b90508181036040830152615664818b6152dc565b90508181036060830152615678818a6152dc565b9050818103608083015261568c81896152dc565b905061569b60a0830188615553565b6156a860c0830187615261565b81810360e08301526156ba8186615270565b90508181036101008301526156cf8185615270565b90506156df610120830184615553565b9b9a5050505050505050505050565b600061014082019050615704600083018d615158565b8181036020830152615716818c6152dc565b9050818103604083015261572a818b6152dc565b9050818103606083015261573e818a6152dc565b9050818103608083015261575281896152dc565b905061576160a0830188615553565b61576e60c0830187615261565b81810360e083015261578081866152dc565b905081810361010083015261579581856152dc565b90506157a5610120830184615553565b9b9a5050505050505050505050565b600060208201905081810360008301526157ce8184615176565b905092915050565b600060208201905081810360008301526157f081846151e4565b905092915050565b600060208201905061580d6000830184615261565b92915050565b600061010082019050615829600083018b615261565b818103602083015261583b818a615270565b905061584a6040830189615261565b6158576060830188615553565b6158646080830187615553565b61587160a0830186615158565b61587e60c0830185615158565b61588b60e0830184615252565b9998505050505050505050565b6000610100820190506158ae600083018b615261565b81810360208301526158c0818a6152a6565b90506158cf6040830189615261565b6158dc6060830188615553565b6158e96080830187615553565b6158f660a0830186615167565b61590360c0830185615167565b61591060e0830184615252565b9998505050505050505050565b600061010082019050615933600083018b615261565b8181036020830152615945818a6152a6565b90506159546040830189615261565b6159616060830188615553565b61596e6080830187615553565b61597b60a0830186615158565b61598860c0830185615158565b61599560e0830184615252565b9998505050505050505050565b6000610120820190506159b8600083018c615261565b81810360208301526159ca818b6152a6565b90506159d9604083018a615261565b6159e66060830189615553565b6159f36080830188615553565b615a0060a0830187615158565b615a0d60c0830186615158565b615a1a60e0830185615252565b818103610100830152615a2d8184615270565b90509a9950505050505050505050565b60006020820190508181036000830152615a5781846152a6565b905092915050565b60006020820190508181036000830152615a798184615270565b905092915050565b60006040820190508181036000830152615a9b81856153a6565b90508181036020830152615aaf81846152a6565b90509392505050565b60006020820190508181036000830152615ad28184615456565b905092915050565b6000602082019050615aef6000830184615553565b92915050565b6000604051905081810181811067ffffffffffffffff82111715615b1857600080fd5b8060405250919050565b600067ffffffffffffffff821115615b3957600080fd5b601f19601f8301169050602081019050919050565b6000602082019050919050565b6000602082019050919050565b60008160005260206000209050919050565b600081519050919050565b600081519050919050565b600081519050919050565b600081519050919050565b6000602082019050919050565b6000602082019050919050565b6000615bcb82615be8565b9050919050565b60008115159050919050565b6000819050919050565b600073ffffffffffffffffffffffffffffffffffffffff82169050919050565b6000819050919050565b6000615c1d82615be8565b9050919050565b6000615c2f82615be8565b9050919050565b6000819050919050565b6000819050919050565b6000615c5582615c5c565b9050919050565b6000615c6782615c6e565b9050919050565b6000615c7982615be8565b9050919050565b82818337600083830152505050565b60005b83811015615cad578082015181840152602081019050615c92565b83811115615cbc576000848401525b50505050565b6000601f19601f830116905091905056fea265627a7a7230582056116d454879af72bab9b15a69b1e7e18df7b1d649f7ceb52e8c3de410679eb46c6578706572696d656e74616cf50037",
  "source": "// SPDX-License-Identifier: MIT\npragma solidity >=0.5.0 <0.9.0;\npragma experimental ABIEncoderV2;\n\ncontract BuyAnAnswer {\n    // the front end will be able to call the following:\n    // - create user\n    // - update user\n    //  - get user by username\n    // - post question to user by choosing user address\n    // - post answer to question received by choosing questionID\n    // - decline question received by choosing questionID\n    // - get user history (all questions and answers)\n    // - get unanswered questions\n    // - get received questions\n    // - get declined questions\n    // - get answered questions\n    // - get user balance\n\n    // CREATE ALL NECESSARY EVENTS\n\n    event UserCreated(\n        address userAddress,\n        string username,\n        string name,\n        string email,\n        string password,\n        uint256 balance,\n        bytes32 boardID,\n        string headline,\n        string bio,\n        uint256 minimumPrice\n    );\n\n    event UserUpdated(\n        address userAddress,\n        string username,\n        string name,\n        string email,\n        string password,\n        uint256 balance,\n        bytes32 boardID,\n        string headline,\n        string bio,\n        uint256 minimumPrice\n    );\n\n    event QuestionPosted(\n        bytes32 questionID,\n        string questionText,\n        bytes32 boardID,\n        uint256 price,\n        uint256 priorityBonus,\n        address askUser,\n        address answerUser,\n        bool isAnswered\n    );\n\n    event AnswerPosted(\n        bytes32 questionID,\n        string questionText,\n        bytes32 boardID,\n        uint256 price,\n        uint256 priorityBonus,\n        address askUser,\n        address answerUser,\n        bool isAnswered,\n        string answerText\n    );\n\n    event QuestionDeclined(\n        bytes32 questionID,\n        string questionText,\n        bytes32 boardID,\n        uint256 price,\n        uint256 priorityBonus,\n        address askUser,\n        address answerUser,\n        bool isAnswered\n    );\n\n    // CREATE ALL NECESSARY STRUCTS\n\n    struct User {\n        address payable userAddress;\n        string username;\n        string name;\n        string email;\n        string password;\n        uint256 balance;\n        bytes32 boardID;\n        string headline;\n        string bio;\n        uint256 minimumPrice;\n        // Social[] socials;\n    }\n\n    struct Social {\n        string platform;\n        string socialUrl;\n    }\n\n    struct Question {\n        bytes32 questionID;\n        string questionText;\n        bytes32 boardID;\n        uint256 price;\n        uint256 priorityBonus;\n        address payable askUser;\n        address payable answerUser;\n        bool isAnswered;\n    }\n\n    struct Answer {\n        Question question;\n        string answerText;\n    }\n\n    mapping(address => User) public users;\n    // mapping(string => User) public usersByUsername;\n    mapping(address => string) public usernameByAddress;\n    mapping(address => Question[]) public askedQuestions;\n    mapping(address => Question[]) public history;\n    mapping(address => Question[]) public receivedQuestions;\n    mapping(address => Question[]) public declinedQuestions;\n    mapping(address => Answer[]) public answeredQuestions;\n    mapping(bytes32 => Question) public questions;\n\n    // create social\n\n    // function createSocial(\n    //     string memory _platform,\n    //     string memory _socialUrl\n    // ) public {\n    //     Social memory newSocial = Social(_platform, _socialUrl);\n    //     users[msg.sender].socials.push(newSocial);\n    // }\n\n    function createBoardID(string memory usrnm, string memory eml)\n        internal\n        returns (bytes32)\n    {\n        return keccak256(abi.encodePacked(usrnm, eml));\n    }\n\n    // create user\n\n    function createUser(\n        string memory _username,\n        string memory _name,\n        string memory _email,\n        string memory _password,\n        // bytes32 _boardID,\n        string memory _headline,\n        string memory _bio,\n        uint256 _minimumPrice // Social[] memory _socials\n    ) public {\n        // check if there is already a user with this address\n        // if yes, throw error\n        // if no, create user\n\n        // checking if user exists\n\n        // if (users[msg.sender].username != \"\") {\n        //     revert(\"User already exists\");\n        // }\n\n        bytes32 _boardID = createBoardID(_username, _email);\n\n        address payable userAddress = msg.sender;\n\n        User memory newUser = User(\n            userAddress,\n            _username,\n            _name,\n            _email,\n            _password,\n            0,\n            _boardID,\n            _headline,\n            _bio,\n            _minimumPrice\n            // _socials,\n            // new Question[](0)\n        );\n\n        users[msg.sender] = newUser;\n        usernameByAddress[msg.sender] = _username;\n\n        emit UserCreated(\n            msg.sender,\n            users[msg.sender].username,\n            users[msg.sender].name,\n            users[msg.sender].email,\n            users[msg.sender].password,\n            msg.sender.balance,\n            users[msg.sender].boardID,\n            users[msg.sender].headline,\n            users[msg.sender].bio,\n            users[msg.sender].minimumPrice\n        );\n    }\n\n    // get user\n\n    function getUser(address _userAddress) public view returns (User memory) {\n        return users[_userAddress];\n    }\n\n    // update user (only update headline, bio, minimum price)\n\n    function updateUser(\n        string memory _headline,\n        string memory _bio,\n        uint256 _minimumPrice\n    ) public {\n        users[msg.sender].headline = _headline;\n        users[msg.sender].bio = _bio;\n        users[msg.sender].minimumPrice = _minimumPrice;\n\n        emit UserUpdated(\n            msg.sender,\n            users[msg.sender].username,\n            users[msg.sender].name,\n            users[msg.sender].email,\n            users[msg.sender].password,\n            users[msg.sender].balance,\n            users[msg.sender].boardID,\n            _headline,\n            _bio,\n            _minimumPrice\n        );\n    }\n\n    // post question from user to another user\n\n    function postQuestion(\n        string memory _questionText,\n        uint256 _priorityBonus,\n        address payable _answerUser\n    ) public payable {\n        Question memory newQuestion = Question(\n            keccak256(\n                abi.encodePacked(\n                    _questionText,\n                    getUser(_answerUser).boardID,\n                    (getUser(_answerUser).minimumPrice + _priorityBonus),\n                    _priorityBonus,\n                    msg.sender,\n                    _answerUser\n                )\n            ),\n            _questionText,\n            getUser(_answerUser).boardID,\n            (getUser(_answerUser).minimumPrice + _priorityBonus),\n            _priorityBonus,\n            msg.sender,\n            _answerUser,\n            false\n        );\n        history[msg.sender].push(newQuestion);\n        history[_answerUser].push(newQuestion);\n        unansweredQuestions[_answerUser].push(newQuestion);\n        questions[\n            keccak256(\n                abi.encodePacked(\n                    _questionText,\n                    getUser(_answerUser).boardID,\n                    (getUser(_answerUser).minimumPrice + _priorityBonus),\n                    _priorityBonus,\n                    msg.sender,\n                    _answerUser\n                )\n            )\n        ] = newQuestion;\n        receivedQuestions[_answerUser].push(newQuestion);\n\n        emit QuestionPosted(\n            newQuestion.questionID,\n            _questionText,\n            getUser(_answerUser).boardID,\n            (getUser(_answerUser).minimumPrice + _priorityBonus),\n            _priorityBonus,\n            msg.sender,\n            _answerUser,\n            false\n        );\n    }\n\n    // post answer from user to question\n\n    function postAnswer(bytes32 _questionID, string memory _answerText)\n        public\n        payable\n    {\n        Question memory question;\n        for (uint256 i = 0; i < receivedQuestions[msg.sender].length; i++) {\n            if (receivedQuestions[msg.sender][i].questionID == _questionID) {\n                question = receivedQuestions[msg.sender][i];\n                break;\n            }\n        }\n        Answer memory newAnswer = Answer(question, _answerText);\n\n        answeredQuestions[msg.sender].push(newAnswer);\n\n        question.isAnswered = true;\n        question.answerUser = msg.sender;\n        history[question.askUser].push(question);\n        history[question.answerUser].push(question);\n        // question.answerUser.transfer(question.price);\n        // question.askUser.transfer(question.priorityBonus);\n        // payable(question.answerUser).transfer(question.price);\n        // payable(question.askUser).transfer(question.price);\n\n        emit AnswerPosted(\n            question.questionID,\n            question.questionText,\n            question.boardID,\n            question.price,\n            question.priorityBonus,\n            question.askUser,\n            question.answerUser,\n            question.isAnswered,\n            _answerText\n        );\n    }\n\n    // decline question from user to question\n\n    function declineQuestion(bytes32 _questionID) public payable {\n        Question memory question;\n        for (uint256 i = 0; i < receivedQuestions[msg.sender].length; i++) {\n            if (receivedQuestions[msg.sender][i].questionID == _questionID) {\n                question = receivedQuestions[msg.sender][i];\n                break;\n            }\n        }\n\n        question.isAnswered = true;\n        declinedQuestions[msg.sender].push(question);\n        history[question.askUser].push(question);\n        history[question.answerUser].push(question);\n\n        // question.answerUser.transfer(question.price);\n        // question.askUser.transfer(question.priorityBonus);\n\n        emit QuestionDeclined(\n            question.questionID,\n            question.questionText,\n            question.boardID,\n            question.price,\n            question.priorityBonus,\n            question.askUser,\n            question.answerUser,\n            question.isAnswered\n        );\n    }\n\n    // get user history\n\n    function getUserHistory(address _userAddress)\n        public\n        view\n        returns (Question[] memory)\n    {\n        return history[_userAddress];\n    }\n\n    // create mapping for unanswered questions\n\n    mapping(address => Question[]) public unansweredQuestions;\n\n    // get unanswered questions\n\n    function getUnansweredQuestions() public view returns (Question[] memory) {\n        return unansweredQuestions[msg.sender];\n    }\n\n    // get user received questions\n\n    function getUserReceivedQuestions(address _userAddress)\n        public\n        view\n        returns (Question[] memory)\n    {\n        return receivedQuestions[_userAddress];\n    }\n\n    // get user declined questions\n\n    function getUserDeclinedQuestions(address _userAddress)\n        public\n        view\n        returns (Question[] memory)\n    {\n        return declinedQuestions[_userAddress];\n    }\n\n    // get user answered questions\n\n    function getUserAnsweredQuestions(address _userAddress)\n        public\n        view\n        returns (Answer[] memory)\n    {\n        return answeredQuestions[_userAddress];\n    }\n\n    // get user balance\n\n    function getUserBalance(address _userAddress)\n        public\n        view\n        returns (uint256)\n    {\n        return users[_userAddress].balance;\n    }\n\n    // get user boardID\n\n    function getUserBoardID(address _userAddress)\n        public\n        view\n        returns (bytes32)\n    {\n        return users[_userAddress].boardID;\n    }\n\n    // get user headline\n\n    function getUserHeadline(address _userAddress)\n        public\n        view\n        returns (string memory)\n    {\n        return users[_userAddress].headline;\n    }\n\n    // get user bio\n\n    function getUserBio(address _userAddress)\n        public\n        view\n        returns (string memory)\n    {\n        return users[_userAddress].bio;\n    }\n\n    // get user minimum price\n\n    function getUserMinimumPrice(address _userAddress)\n        public\n        view\n        returns (uint256)\n    {\n        return users[_userAddress].minimumPrice;\n    }\n\n    // get user socials\n\n    // function getUserSocials(address _userAddress) public view returns (Social[] memory) {\n    //     return users[_userAddress].socials;\n    // }\n\n    // get user socials by platform\n\n    // function getUserSocialsByPlatform(address _userAddress, string memory _platform) public view returns (Social memory) {\n    //     for (uint256 i = 0; i < users[_userAddress].socials.length; i++) {\n    //         if (keccak256(abi.encodePacked(users[_userAddress].socials[i].platform)) == keccak256(abi.encodePacked(_platform))) {\n    //             return users[_userAddress].socials[i];\n    //         }\n    //     }\n    // }\n\n    // get user by username\n\n    function getUsernameByAddress(address _userAddress)\n        public\n        view\n        returns (string memory)\n    {\n        return usernameByAddress[_userAddress];\n    }\n}\n\n// truffle(development)> migrate --reset\n// testing\n// BuyAnAnswerInstance2.methods.createUser(\"test\", \"Test Ta\", \"test@gmail.com\", \"admin\", \"hi\", \"hey\", 5).send({from: \"0x4E2914232E29032490F25e88b73836fC5dF921f1\", gas: 1000000})\n// BuyAnAnswerInstance.methods.getUser(cale)\n\n\n// BuyAnAnswerInstance2.methods.getUser(\"0x4E2914232E29032490F25e88b73836fC5dF921f1\").call()",
  "sourcePath": "/Users/jayanthkomarraju/Documents/GitHub/buyananswer.eth/contracts/BuyAnAnswer.sol",
  "compiler": {
    "name": "solc",
    "version": "0.5.1+commit.c8a2cb62.Emscripten.clang"
  },
  "schemaVersion": "3.2.3",
  "updatedAt": "2023-02-10T16:38:32.765Z",
  "networkType": "ethereum",
  "devdoc": {
    "methods": {}
  },
  "userdoc": {
    "methods": {}
  }
}