{
  "contractName": "BuyAnAnswer",
  "abi": [
    {
      "anonymous": false,
      "inputs": [
        {
          "components": [
            {
              "internalType": "string",
              "name": "message",
              "type": "string"
            },
            {
              "internalType": "address payable",
              "name": "askUser",
              "type": "address"
            },
            {
              "internalType": "address payable",
              "name": "answerUser",
              "type": "address"
            },
            {
              "internalType": "uint256",
              "name": "price",
              "type": "uint256"
            },
            {
              "internalType": "uint256",
              "name": "timestamp",
              "type": "uint256"
            },
            {
              "internalType": "bytes32",
              "name": "boardID",
              "type": "bytes32"
            },
            {
              "internalType": "bool",
              "name": "isAnswered",
              "type": "bool"
            }
          ],
          "indexed": false,
          "internalType": "struct BuyAnAnswer.Question",
          "name": "question",
          "type": "tuple"
        },
        {
          "indexed": false,
          "internalType": "address payable",
          "name": "user",
          "type": "address"
        },
        {
          "indexed": false,
          "internalType": "string",
          "name": "answer",
          "type": "string"
        },
        {
          "indexed": false,
          "internalType": "uint256",
          "name": "timestamp",
          "type": "uint256"
        }
      ],
      "name": "AnswerQuestion",
      "type": "event"
    },
    {
      "anonymous": false,
      "inputs": [
        {
          "indexed": false,
          "internalType": "string",
          "name": "message",
          "type": "string"
        },
        {
          "indexed": false,
          "internalType": "address payable",
          "name": "askUser",
          "type": "address"
        },
        {
          "indexed": false,
          "internalType": "address payable",
          "name": "answerUser",
          "type": "address"
        },
        {
          "indexed": false,
          "internalType": "uint256",
          "name": "timestamp",
          "type": "uint256"
        },
        {
          "indexed": false,
          "internalType": "uint256",
          "name": "price",
          "type": "uint256"
        },
        {
          "indexed": false,
          "internalType": "bytes32",
          "name": "boardID",
          "type": "bytes32"
        }
      ],
      "name": "AskQuestion",
      "type": "event"
    },
    {
      "anonymous": false,
      "inputs": [
        {
          "indexed": false,
          "internalType": "bytes32",
          "name": "boardID",
          "type": "bytes32"
        },
        {
          "indexed": false,
          "internalType": "address payable",
          "name": "user",
          "type": "address"
        },
        {
          "indexed": false,
          "internalType": "string",
          "name": "boardHeadline",
          "type": "string"
        },
        {
          "indexed": false,
          "internalType": "string",
          "name": "boardDesc",
          "type": "string"
        },
        {
          "indexed": false,
          "internalType": "uint256",
          "name": "minQuestionPrice",
          "type": "uint256"
        },
        {
          "indexed": false,
          "internalType": "uint256",
          "name": "timestamp",
          "type": "uint256"
        }
      ],
      "name": "CreateBoard",
      "type": "event"
    },
    {
      "anonymous": false,
      "inputs": [
        {
          "indexed": false,
          "internalType": "address payable",
          "name": "userAddress",
          "type": "address"
        },
        {
          "indexed": false,
          "internalType": "string",
          "name": "username",
          "type": "string"
        },
        {
          "indexed": false,
          "internalType": "string",
          "name": "email",
          "type": "string"
        },
        {
          "indexed": false,
          "internalType": "string",
          "name": "name",
          "type": "string"
        },
        {
          "indexed": false,
          "internalType": "bytes32",
          "name": "boardID",
          "type": "bytes32"
        },
        {
          "indexed": false,
          "internalType": "string",
          "name": "INSTAGRAM",
          "type": "string"
        }
      ],
      "name": "CreateUser",
      "type": "event"
    },
    {
      "anonymous": false,
      "inputs": [
        {
          "indexed": false,
          "internalType": "address",
          "name": "sender",
          "type": "address"
        },
        {
          "indexed": false,
          "internalType": "uint256",
          "name": "amount",
          "type": "uint256"
        }
      ],
      "name": "Deposit",
      "type": "event"
    },
    {
      "anonymous": false,
      "inputs": [
        {
          "indexed": false,
          "internalType": "address",
          "name": "sender",
          "type": "address"
        },
        {
          "indexed": false,
          "internalType": "address",
          "name": "receiver",
          "type": "address"
        },
        {
          "indexed": false,
          "internalType": "uint256",
          "name": "amount",
          "type": "uint256"
        }
      ],
      "name": "Transfer",
      "type": "event"
    },
    {
      "anonymous": false,
      "inputs": [
        {
          "indexed": false,
          "internalType": "address",
          "name": "receiver",
          "type": "address"
        },
        {
          "indexed": false,
          "internalType": "uint256",
          "name": "amount",
          "type": "uint256"
        }
      ],
      "name": "Withdrawal",
      "type": "event"
    },
    {
      "inputs": [],
      "name": "BuyAnAnswerApp",
      "outputs": [],
      "stateMutability": "nonpayable",
      "type": "function"
    },
    {
      "inputs": [],
      "name": "deposit",
      "outputs": [],
      "stateMutability": "payable",
      "type": "function",
      "payable": true
    },
    {
      "inputs": [],
      "name": "getBalance",
      "outputs": [
        {
          "internalType": "uint256",
          "name": "",
          "type": "uint256"
        }
      ],
      "stateMutability": "view",
      "type": "function",
      "constant": true
    },
    {
      "inputs": [
        {
          "internalType": "uint256",
          "name": "amount",
          "type": "uint256"
        }
      ],
      "name": "withdraw",
      "outputs": [],
      "stateMutability": "nonpayable",
      "type": "function"
    },
    {
      "inputs": [
        {
          "internalType": "address",
          "name": "sender",
          "type": "address"
        },
        {
          "internalType": "address",
          "name": "receiver",
          "type": "address"
        },
        {
          "internalType": "uint256",
          "name": "amount",
          "type": "uint256"
        }
      ],
      "name": "transfer",
      "outputs": [],
      "stateMutability": "nonpayable",
      "type": "function"
    },
    {
      "inputs": [
        {
          "internalType": "string",
          "name": "_boardHeadline",
          "type": "string"
        },
        {
          "internalType": "string",
          "name": "_boardDesc",
          "type": "string"
        },
        {
          "internalType": "uint256",
          "name": "_minQuestionPrice",
          "type": "uint256"
        }
      ],
      "name": "createBoard",
      "outputs": [],
      "stateMutability": "nonpayable",
      "type": "function"
    },
    {
      "inputs": [
        {
          "internalType": "string",
          "name": "_username",
          "type": "string"
        },
        {
          "internalType": "string",
          "name": "_email",
          "type": "string"
        },
        {
          "internalType": "string",
          "name": "_name",
          "type": "string"
        },
        {
          "internalType": "string",
          "name": "_socialLink_INSTAGRAM",
          "type": "string"
        }
      ],
      "name": "createUser",
      "outputs": [],
      "stateMutability": "nonpayable",
      "type": "function"
    },
    {
      "inputs": [
        {
          "internalType": "string",
          "name": "_qst",
          "type": "string"
        },
        {
          "internalType": "address",
          "name": "_answerUser",
          "type": "address"
        },
        {
          "internalType": "uint256",
          "name": "_prc",
          "type": "uint256"
        }
      ],
      "name": "sendQuestion",
      "outputs": [],
      "stateMutability": "payable",
      "type": "function",
      "payable": true
    },
    {
      "inputs": [
        {
          "internalType": "bytes32",
          "name": "_boardID",
          "type": "bytes32"
        },
        {
          "internalType": "uint256",
          "name": "_index",
          "type": "uint256"
        }
      ],
      "name": "declineAnswer",
      "outputs": [],
      "stateMutability": "payable",
      "type": "function",
      "payable": true
    },
    {
      "inputs": [
        {
          "internalType": "bytes32",
          "name": "_boardID",
          "type": "bytes32"
        },
        {
          "internalType": "uint256",
          "name": "_index",
          "type": "uint256"
        },
        {
          "internalType": "string",
          "name": "_answer",
          "type": "string"
        }
      ],
      "name": "sendAnswer",
      "outputs": [],
      "stateMutability": "payable",
      "type": "function",
      "payable": true
    },
    {
      "inputs": [
        {
          "internalType": "address",
          "name": "_user",
          "type": "address"
        }
      ],
      "name": "getUserForAddress",
      "outputs": [
        {
          "internalType": "string",
          "name": "",
          "type": "string"
        },
        {
          "internalType": "bytes32",
          "name": "",
          "type": "bytes32"
        }
      ],
      "stateMutability": "view",
      "type": "function",
      "constant": true
    },
    {
      "inputs": [
        {
          "internalType": "address",
          "name": "_user",
          "type": "address"
        }
      ],
      "name": "getProfileFromUserAddress",
      "outputs": [
        {
          "internalType": "string",
          "name": "",
          "type": "string"
        },
        {
          "internalType": "string",
          "name": "",
          "type": "string"
        },
        {
          "internalType": "string",
          "name": "",
          "type": "string"
        },
        {
          "internalType": "string",
          "name": "",
          "type": "string"
        },
        {
          "internalType": "string",
          "name": "",
          "type": "string"
        },
        {
          "internalType": "uint256",
          "name": "",
          "type": "uint256"
        },
        {
          "internalType": "string",
          "name": "",
          "type": "string"
        }
      ],
      "stateMutability": "view",
      "type": "function",
      "constant": true
    },
    {
      "inputs": [
        {
          "internalType": "address",
          "name": "_user",
          "type": "address"
        }
      ],
      "name": "getBoardFromUserAddress",
      "outputs": [
        {
          "components": [
            {
              "internalType": "bytes32",
              "name": "boardID",
              "type": "bytes32"
            },
            {
              "internalType": "address payable",
              "name": "owner",
              "type": "address"
            },
            {
              "internalType": "string",
              "name": "boardHeadline",
              "type": "string"
            },
            {
              "internalType": "string",
              "name": "boardDesc",
              "type": "string"
            },
            {
              "internalType": "uint256",
              "name": "minQuestionPrice",
              "type": "uint256"
            },
            {
              "internalType": "uint256",
              "name": "createdAt",
              "type": "uint256"
            }
          ],
          "internalType": "struct BuyAnAnswer.Board",
          "name": "",
          "type": "tuple"
        }
      ],
      "stateMutability": "view",
      "type": "function",
      "constant": true
    },
    {
      "inputs": [],
      "name": "getThisUser",
      "outputs": [
        {
          "internalType": "string",
          "name": "",
          "type": "string"
        },
        {
          "internalType": "bytes32",
          "name": "",
          "type": "bytes32"
        }
      ],
      "stateMutability": "view",
      "type": "function",
      "constant": true
    },
    {
      "inputs": [
        {
          "internalType": "bytes32",
          "name": "_boardID",
          "type": "bytes32"
        }
      ],
      "name": "getQuestionCountForBoard",
      "outputs": [
        {
          "internalType": "uint256",
          "name": "",
          "type": "uint256"
        }
      ],
      "stateMutability": "view",
      "type": "function",
      "constant": true
    },
    {
      "inputs": [
        {
          "internalType": "address",
          "name": "_usrAddress",
          "type": "address"
        }
      ],
      "name": "getQuestionsForUser",
      "outputs": [
        {
          "components": [
            {
              "internalType": "string",
              "name": "message",
              "type": "string"
            },
            {
              "internalType": "address payable",
              "name": "askUser",
              "type": "address"
            },
            {
              "internalType": "address payable",
              "name": "answerUser",
              "type": "address"
            },
            {
              "internalType": "uint256",
              "name": "price",
              "type": "uint256"
            },
            {
              "internalType": "uint256",
              "name": "timestamp",
              "type": "uint256"
            },
            {
              "internalType": "bytes32",
              "name": "boardID",
              "type": "bytes32"
            },
            {
              "internalType": "bool",
              "name": "isAnswered",
              "type": "bool"
            }
          ],
          "internalType": "struct BuyAnAnswer.Question[]",
          "name": "",
          "type": "tuple[]"
        }
      ],
      "stateMutability": "view",
      "type": "function",
      "constant": true
    },
    {
      "inputs": [],
      "name": "getQuestionsForCurrentUser",
      "outputs": [
        {
          "components": [
            {
              "internalType": "string",
              "name": "message",
              "type": "string"
            },
            {
              "internalType": "address payable",
              "name": "askUser",
              "type": "address"
            },
            {
              "internalType": "address payable",
              "name": "answerUser",
              "type": "address"
            },
            {
              "internalType": "uint256",
              "name": "price",
              "type": "uint256"
            },
            {
              "internalType": "uint256",
              "name": "timestamp",
              "type": "uint256"
            },
            {
              "internalType": "bytes32",
              "name": "boardID",
              "type": "bytes32"
            },
            {
              "internalType": "bool",
              "name": "isAnswered",
              "type": "bool"
            }
          ],
          "internalType": "struct BuyAnAnswer.Question[]",
          "name": "",
          "type": "tuple[]"
        }
      ],
      "stateMutability": "view",
      "type": "function",
      "constant": true
    },
    {
      "inputs": [],
      "name": "getAnswerForCurrentUser",
      "outputs": [
        {
          "components": [
            {
              "components": [
                {
                  "internalType": "string",
                  "name": "message",
                  "type": "string"
                },
                {
                  "internalType": "address payable",
                  "name": "askUser",
                  "type": "address"
                },
                {
                  "internalType": "address payable",
                  "name": "answerUser",
                  "type": "address"
                },
                {
                  "internalType": "uint256",
                  "name": "price",
                  "type": "uint256"
                },
                {
                  "internalType": "uint256",
                  "name": "timestamp",
                  "type": "uint256"
                },
                {
                  "internalType": "bytes32",
                  "name": "boardID",
                  "type": "bytes32"
                },
                {
                  "internalType": "bool",
                  "name": "isAnswered",
                  "type": "bool"
                }
              ],
              "internalType": "struct BuyAnAnswer.Question",
              "name": "question",
              "type": "tuple"
            },
            {
              "internalType": "address payable",
              "name": "answerer",
              "type": "address"
            },
            {
              "internalType": "string",
              "name": "answerText",
              "type": "string"
            },
            {
              "internalType": "uint256",
              "name": "timestamp",
              "type": "uint256"
            }
          ],
          "internalType": "struct BuyAnAnswer.Answer[]",
          "name": "",
          "type": "tuple[]"
        }
      ],
      "stateMutability": "view",
      "type": "function",
      "constant": true
    },
    {
      "inputs": [
        {
          "internalType": "bytes32",
          "name": "_boardID",
          "type": "bytes32"
        },
        {
          "internalType": "uint256",
          "name": "_index",
          "type": "uint256"
        }
      ],
      "name": "getQuestionByIndexForBoard",
      "outputs": [
        {
          "internalType": "string",
          "name": "",
          "type": "string"
        },
        {
          "internalType": "address",
          "name": "",
          "type": "address"
        },
        {
          "internalType": "address",
          "name": "",
          "type": "address"
        },
        {
          "internalType": "uint256",
          "name": "",
          "type": "uint256"
        },
        {
          "internalType": "uint256",
          "name": "",
          "type": "uint256"
        },
        {
          "internalType": "bytes32",
          "name": "",
          "type": "bytes32"
        },
        {
          "internalType": "bool",
          "name": "",
          "type": "bool"
        }
      ],
      "stateMutability": "view",
      "type": "function",
      "constant": true
    },
    {
      "inputs": [
        {
          "internalType": "address",
          "name": "_userAddress",
          "type": "address"
        }
      ],
      "name": "getUserByAddress",
      "outputs": [
        {
          "components": [
            {
              "internalType": "address payable",
              "name": "userAddress",
              "type": "address"
            },
            {
              "internalType": "string",
              "name": "username",
              "type": "string"
            },
            {
              "internalType": "string",
              "name": "email",
              "type": "string"
            },
            {
              "internalType": "string",
              "name": "name",
              "type": "string"
            },
            {
              "internalType": "bytes32",
              "name": "boardID",
              "type": "bytes32"
            },
            {
              "internalType": "string",
              "name": "INSTAGRAM",
              "type": "string"
            }
          ],
          "internalType": "struct BuyAnAnswer.User",
          "name": "",
          "type": "tuple"
        }
      ],
      "stateMutability": "view",
      "type": "function",
      "constant": true
    },
    {
      "inputs": [
        {
          "internalType": "bytes32",
          "name": "_boardID",
          "type": "bytes32"
        },
        {
          "internalType": "uint256",
          "name": "_index",
          "type": "uint256"
        }
      ],
      "name": "getAnswerFromBoardIDAndIndex",
      "outputs": [
        {
          "internalType": "address",
          "name": "",
          "type": "address"
        },
        {
          "internalType": "string",
          "name": "",
          "type": "string"
        },
        {
          "internalType": "address",
          "name": "",
          "type": "address"
        },
        {
          "internalType": "string",
          "name": "",
          "type": "string"
        },
        {
          "internalType": "uint256",
          "name": "",
          "type": "uint256"
        },
        {
          "internalType": "uint256",
          "name": "",
          "type": "uint256"
        }
      ],
      "stateMutability": "view",
      "type": "function",
      "constant": true
    },
    {
      "inputs": [
        {
          "internalType": "string",
          "name": "_questionID",
          "type": "string"
        }
      ],
      "name": "getAnswerByQuestionID",
      "outputs": [
        {
          "internalType": "string",
          "name": "",
          "type": "string"
        },
        {
          "internalType": "string",
          "name": "",
          "type": "string"
        }
      ],
      "stateMutability": "view",
      "type": "function",
      "constant": true
    },
    {
      "inputs": [],
      "name": "kill",
      "outputs": [],
      "stateMutability": "nonpayable",
      "type": "function"
    }
  ],
  "bytecode": "0x608060405234801561001057600080fd5b506150f4806100206000396000f3fe6080604052600436106101405760003560e01c8063973d5a30116100b6578063beabacc81161006f578063beabacc81461044d578063d0e30db014610476578063e4f43dbc14610480578063ee5cba4d146104bd578063f4bdfff4146104d9578063fd1f66d01461051757610140565b8063973d5a30146103585780639c1472fb14610383578063abbc5810146103ac578063b28f5f76146103c8578063b412c2e0146103f3578063bc00b3881461043657610140565b806341c0e1b51161010857806341c0e1b51461024457806359a077161461025b5780635e4bc3091461029957806369c212f6146102b55780636c24438e146102f25780636f7fcddb1461032f57610140565b806312065fe0146101455780631870f555146101705780632c3e2515146101ad5780632e1a7d4d146101ef5780633c6a82ec14610218575b600080fd5b34801561015157600080fd5b5061015a61055a565b604051610167919061382d565b60405180910390f35b34801561017c57600080fd5b50610197600480360381019061019291906138b0565b6105a1565b6040516101a49190613a46565b60405180910390f35b3480156101b957600080fd5b506101d460048036038101906101cf9190613ac0565b6107a8565b6040516101e696959493929190613b59565b60405180910390f35b3480156101fb57600080fd5b5061021660048036038101906102119190613bc8565b610ad5565b005b34801561022457600080fd5b5061022d610be9565b60405161023b929190613c04565b60405180910390f35b34801561025057600080fd5b50610259610d0b565b005b34801561026757600080fd5b50610282600480360381019061027d9190613c99565b610d99565b604051610290929190613ce6565b60405180910390f35b6102b360048036038101906102ae9190613ac0565b610da3565b005b3480156102c157600080fd5b506102dc60048036038101906102d791906138b0565b6111a1565b6040516102e99190613dbb565b60405180910390f35b3480156102fe57600080fd5b5061031960048036038101906103149190613ddd565b6114a8565b604051610326919061382d565b60405180910390f35b34801561033b57600080fd5b5061035660048036038101906103519190613e0a565b6114c8565b005b34801561036457600080fd5b5061036d611770565b60405161037a91906140d6565b60405180910390f35b34801561038f57600080fd5b506103aa60048036038101906103a591906140f8565b611a89565b005b6103c660048036038101906103c1919061418d565b611e5e565b005b3480156103d457600080fd5b506103dd612522565b6040516103ea91906142c3565b60405180910390f35b3480156103ff57600080fd5b5061041a60048036038101906104159190613ac0565b612735565b60405161042d97969594939291906142f4565b60405180910390f35b34801561044257600080fd5b5061044b612937565b005b34801561045957600080fd5b50610474600480360381019061046f919061436a565b612979565b005b61047e612ae7565b005b34801561048c57600080fd5b506104a760048036038101906104a291906138b0565b612b78565b6040516104b491906142c3565b60405180910390f35b6104d760048036038101906104d291906143bd565b612d8d565b005b3480156104e557600080fd5b5061050060048036038101906104fb91906138b0565b613608565b60405161050e929190613c04565b60405180910390f35b34801561052357600080fd5b5061053e600480360381019061053991906138b0565b613726565b6040516105519796959493929190614431565b60405180910390f35b6000600460003373ffffffffffffffffffffffffffffffffffffffff1673ffffffffffffffffffffffffffffffffffffffff16815260200190815260200160002054905090565b6105a9613776565b60096000600a60008573ffffffffffffffffffffffffffffffffffffffff1673ffffffffffffffffffffffffffffffffffffffff1681526020019081526020016000206004015481526020019081526020016000206040518060c0016040529081600082015481526020016001820160009054906101000a900473ffffffffffffffffffffffffffffffffffffffff1673ffffffffffffffffffffffffffffffffffffffff1673ffffffffffffffffffffffffffffffffffffffff168152602001600282018054610679906144f9565b80601f01602080910402602001604051908101604052809291908181526020018280546106a5906144f9565b80156106f25780601f106106c7576101008083540402835291602001916106f2565b820191906000526020600020905b8154815290600101906020018083116106d557829003601f168201915b5050505050815260200160038201805461070b906144f9565b80601f0160208091040260200160405190810160405280929190818152602001828054610737906144f9565b80156107845780601f1061075957610100808354040283529160200191610784565b820191906000526020600020905b81548152906001019060200180831161076757829003601f168201915b50505050508152602001600482015481526020016005820154815250509050919050565b60006060600060606000806000600860008a815260200190815260200160002088815481106107da576107d961452a565b5b90600052602060002090600a0201604051806080016040529081600082016040518060e0016040529081600082018054610813906144f9565b80601f016020809104026020016040519081016040528092919081815260200182805461083f906144f9565b801561088c5780601f106108615761010080835404028352916020019161088c565b820191906000526020600020905b81548152906001019060200180831161086f57829003601f168201915b505050505081526020016001820160009054906101000a900473ffffffffffffffffffffffffffffffffffffffff1673ffffffffffffffffffffffffffffffffffffffff1673ffffffffffffffffffffffffffffffffffffffff1681526020016002820160009054906101000a900473ffffffffffffffffffffffffffffffffffffffff1673ffffffffffffffffffffffffffffffffffffffff1673ffffffffffffffffffffffffffffffffffffffff1681526020016003820154815260200160048201548152602001600582015481526020016006820160009054906101000a900460ff16151515158152505081526020016007820160009054906101000a900473ffffffffffffffffffffffffffffffffffffffff1673ffffffffffffffffffffffffffffffffffffffff1673ffffffffffffffffffffffffffffffffffffffff1681526020016008820180546109e4906144f9565b80601f0160208091040260200160405190810160405280929190818152602001828054610a10906144f9565b8015610a5d5780601f10610a3257610100808354040283529160200191610a5d565b820191906000526020600020905b815481529060010190602001808311610a4057829003601f168201915b5050505050815260200160098201548152505090506000816040015190506000826000015190506000816020015190506000846020015190506000836000015190506000846060015190506000876060015190508483858985859d509d509d509d509d509d5050505050505050509295509295509295565b80600460003373ffffffffffffffffffffffffffffffffffffffff1673ffffffffffffffffffffffffffffffffffffffff168152602001908152602001600020541015610b57576040517f08c379a0000000000000000000000000000000000000000000000000000000008152600401610b4e906145a5565b60405180910390fd5b7f7fcf532c15f0a6db0bd6d0e038bea71d30d808c7d98cb3bf7268a95bf5081b653382604051610b889291906145c5565b60405180910390a180600460003373ffffffffffffffffffffffffffffffffffffffff1673ffffffffffffffffffffffffffffffffffffffff1681526020019081526020016000206000828254610bdf919061461d565b9250508190555050565b6060600080339050600a60008273ffffffffffffffffffffffffffffffffffffffff1673ffffffffffffffffffffffffffffffffffffffff168152602001908152602001600020600101600a60008373ffffffffffffffffffffffffffffffffffffffff1673ffffffffffffffffffffffffffffffffffffffff16815260200190815260200160002060040154818054610c82906144f9565b80601f0160208091040260200160405190810160405280929190818152602001828054610cae906144f9565b8015610cfb5780601f10610cd057610100808354040283529160200191610cfb565b820191906000526020600020905b815481529060010190602001808311610cde57829003601f168201915b5050505050915092509250509091565b3373ffffffffffffffffffffffffffffffffffffffff1660008054906101000a900473ffffffffffffffffffffffffffffffffffffffff1673ffffffffffffffffffffffffffffffffffffffff1603610d975760008054906101000a900473ffffffffffffffffffffffffffffffffffffffff1673ffffffffffffffffffffffffffffffffffffffff16ff5b565b6060809250929050565b6000600160008481526020019081526020016000208281548110610dca57610dc961452a565b5b90600052602060002090600702016040518060e0016040529081600082018054610df3906144f9565b80601f0160208091040260200160405190810160405280929190818152602001828054610e1f906144f9565b8015610e6c5780601f10610e4157610100808354040283529160200191610e6c565b820191906000526020600020905b815481529060010190602001808311610e4f57829003601f168201915b505050505081526020016001820160009054906101000a900473ffffffffffffffffffffffffffffffffffffffff1673ffffffffffffffffffffffffffffffffffffffff1673ffffffffffffffffffffffffffffffffffffffff1681526020016002820160009054906101000a900473ffffffffffffffffffffffffffffffffffffffff1673ffffffffffffffffffffffffffffffffffffffff1673ffffffffffffffffffffffffffffffffffffffff1681526020016003820154815260200160048201548152602001600582015481526020016006820160009054906101000a900460ff16151515158152505090503373ffffffffffffffffffffffffffffffffffffffff16816040015173ffffffffffffffffffffffffffffffffffffffff1614610f9857600080fd5b600160008481526020019081526020016000208281548110610fbd57610fbc61452a565b5b906000526020600020906007020160060160009054906101000a900460ff161561101c576040517f08c379a00000000000000000000000000000000000000000000000000000000081526004016110139061469d565b60405180910390fd5b600180600085815260200190815260200160002083815481106110425761104161452a565b5b906000526020600020906007020160060160006101000a81548160ff02191690831515021790555060018160c00190151590811515815250506002600084815260200190815260200160002081908060018154018082558091505060019003906000526020600020906007020160009091909190915060008201518160000190816110cd9190614898565b5060208201518160010160006101000a81548173ffffffffffffffffffffffffffffffffffffffff021916908373ffffffffffffffffffffffffffffffffffffffff16021790555060408201518160020160006101000a81548173ffffffffffffffffffffffffffffffffffffffff021916908373ffffffffffffffffffffffffffffffffffffffff160217905550606082015181600301556080820151816004015560a0820151816005015560c08201518160060160006101000a81548160ff0219169083151502179055505050505050565b6111a96137c5565b6000600a60008473ffffffffffffffffffffffffffffffffffffffff1673ffffffffffffffffffffffffffffffffffffffff1681526020019081526020016000206040518060c00160405290816000820160009054906101000a900473ffffffffffffffffffffffffffffffffffffffff1673ffffffffffffffffffffffffffffffffffffffff1673ffffffffffffffffffffffffffffffffffffffff16815260200160018201805461125b906144f9565b80601f0160208091040260200160405190810160405280929190818152602001828054611287906144f9565b80156112d45780601f106112a9576101008083540402835291602001916112d4565b820191906000526020600020905b8154815290600101906020018083116112b757829003601f168201915b505050505081526020016002820180546112ed906144f9565b80601f0160208091040260200160405190810160405280929190818152602001828054611319906144f9565b80156113665780601f1061133b57610100808354040283529160200191611366565b820191906000526020600020905b81548152906001019060200180831161134957829003601f168201915b5050505050815260200160038201805461137f906144f9565b80601f01602080910402602001604051908101604052809291908181526020018280546113ab906144f9565b80156113f85780601f106113cd576101008083540402835291602001916113f8565b820191906000526020600020905b8154815290600101906020018083116113db57829003601f168201915b505050505081526020016004820154815260200160058201805461141b906144f9565b80601f0160208091040260200160405190810160405280929190818152602001828054611447906144f9565b80156114945780601f1061146957610100808354040283529160200191611494565b820191906000526020600020905b81548152906001019060200180831161147757829003601f168201915b505050505081525050905080915050919050565b600060016000838152602001908152602001600020805490509050919050565b60006114d68989898961373d565b905060006040518060c001604052803373ffffffffffffffffffffffffffffffffffffffff1681526020018b8b8080601f016020809104026020016040519081016040528093929190818152602001838380828437600081840152601f19601f82011690508083019250505050505050815260200189898080601f016020809104026020016040519081016040528093929190818152602001838380828437600081840152601f19601f82011690508083019250505050505050815260200187878080601f016020809104026020016040519081016040528093929190818152602001838380828437600081840152601f19601f82011690508083019250505050505050815260200183815260200185858080601f016020809104026020016040519081016040528093929190818152602001838380828437600081840152601f19601f82011690508083019250505050505050815250905080600a60003373ffffffffffffffffffffffffffffffffffffffff1673ffffffffffffffffffffffffffffffffffffffff16815260200190815260200160002060008201518160000160006101000a81548173ffffffffffffffffffffffffffffffffffffffff021916908373ffffffffffffffffffffffffffffffffffffffff16021790555060208201518160010190816116cb9190614898565b5060408201518160020190816116e19190614898565b5060608201518160030190816116f79190614898565b506080820151816004015560a08201518160050190816117179190614898565b509050507f047d8efa0d7865cb09eed24b901faca89276baba66f4e7aca8896c96cb17ff60338b8b8b8b8b8b898c8c60405161175c9a999897969594939291906149b5565b60405180910390a150505050505050505050565b6060600760003373ffffffffffffffffffffffffffffffffffffffff1673ffffffffffffffffffffffffffffffffffffffff168152602001908152602001600020805480602002602001604051908101604052809291908181526020016000905b82821015611a8057838290600052602060002090600a0201604051806080016040529081600082016040518060e0016040529081600082018054611814906144f9565b80601f0160208091040260200160405190810160405280929190818152602001828054611840906144f9565b801561188d5780601f106118625761010080835404028352916020019161188d565b820191906000526020600020905b81548152906001019060200180831161187057829003601f168201915b505050505081526020016001820160009054906101000a900473ffffffffffffffffffffffffffffffffffffffff1673ffffffffffffffffffffffffffffffffffffffff1673ffffffffffffffffffffffffffffffffffffffff1681526020016002820160009054906101000a900473ffffffffffffffffffffffffffffffffffffffff1673ffffffffffffffffffffffffffffffffffffffff1673ffffffffffffffffffffffffffffffffffffffff1681526020016003820154815260200160048201548152602001600582015481526020016006820160009054906101000a900460ff16151515158152505081526020016007820160009054906101000a900473ffffffffffffffffffffffffffffffffffffffff1673ffffffffffffffffffffffffffffffffffffffff1673ffffffffffffffffffffffffffffffffffffffff1681526020016008820180546119e5906144f9565b80601f0160208091040260200160405190810160405280929190818152602001828054611a11906144f9565b8015611a5e5780601f10611a3357610100808354040283529160200191611a5e565b820191906000526020600020905b815481529060010190602001808311611a4157829003601f168201915b50505050508152602001600982015481525050815260200190600101906117d1565b50505050905090565b6000801b600a60003373ffffffffffffffffffffffffffffffffffffffff1673ffffffffffffffffffffffffffffffffffffffff1681526020019081526020016000206004015403611b10576040517f08c379a0000000000000000000000000000000000000000000000000000000008152600401611b0790614a86565b60405180910390fd5b60006040518060c00160405280600a60003373ffffffffffffffffffffffffffffffffffffffff1673ffffffffffffffffffffffffffffffffffffffff168152602001908152602001600020600401548152602001600a60003373ffffffffffffffffffffffffffffffffffffffff1673ffffffffffffffffffffffffffffffffffffffff16815260200190815260200160002060000160009054906101000a900473ffffffffffffffffffffffffffffffffffffffff1673ffffffffffffffffffffffffffffffffffffffff16815260200187878080601f016020809104026020016040519081016040528093929190818152602001838380828437600081840152601f19601f82011690508083019250505050505050815260200185858080601f016020809104026020016040519081016040528093929190818152602001838380828437600081840152601f19601f8201169050808301925050505050505081526020018381526020014281525090508060096000600a60003373ffffffffffffffffffffffffffffffffffffffff1673ffffffffffffffffffffffffffffffffffffffff1681526020019081526020016000206004015481526020019081526020016000206000820151816000015560208201518160010160006101000a81548173ffffffffffffffffffffffffffffffffffffffff021916908373ffffffffffffffffffffffffffffffffffffffff1602179055506040820151816002019081611d3f9190614898565b506060820151816003019081611d559190614898565b506080820151816004015560a082015181600501559050507fbd26c44154aeffd78cd3551a90ad924e7b26d38d75a58a93b25183e9e65418db600a60003373ffffffffffffffffffffffffffffffffffffffff1673ffffffffffffffffffffffffffffffffffffffff16815260200190815260200160002060040154600a60003373ffffffffffffffffffffffffffffffffffffffff1673ffffffffffffffffffffffffffffffffffffffff16815260200190815260200160002060000160009054906101000a900473ffffffffffffffffffffffffffffffffffffffff16888888888842604051611e4e989796959493929190614aa6565b60405180910390a1505050505050565b6000600a60008473ffffffffffffffffffffffffffffffffffffffff1673ffffffffffffffffffffffffffffffffffffffff168152602001908152602001600020600401549050600060096000838152602001908152602001600020600401549050823414611f02576040517f08c379a0000000000000000000000000000000000000000000000000000000008152600401611ef990614b8b565b60405180910390fd5b6000801b8203611f47576040517f08c379a0000000000000000000000000000000000000000000000000000000008152600401611f3e90614c1d565b60405180910390fd5b80831015611f8a576040517f08c379a0000000000000000000000000000000000000000000000000000000008152600401611f8190614cd5565b60405180910390fd5b60006040518060e0016040528088888080601f016020809104026020016040519081016040528093929190818152602001838380828437600081840152601f19601f8201169050808301925050505050505081526020013373ffffffffffffffffffffffffffffffffffffffff1681526020018673ffffffffffffffffffffffffffffffffffffffff1681526020018581526020014281526020018481526020016000151581525090506001600084815260200190815260200160002081908060018154018082558091505060019003906000526020600020906007020160009091909190915060008201518160000190816120869190614898565b5060208201518160010160006101000a81548173ffffffffffffffffffffffffffffffffffffffff021916908373ffffffffffffffffffffffffffffffffffffffff16021790555060408201518160020160006101000a81548173ffffffffffffffffffffffffffffffffffffffff021916908373ffffffffffffffffffffffffffffffffffffffff160217905550606082015181600301556080820151816004015560a0820151816005015560c08201518160060160006101000a81548160ff0219169083151502179055505050600560008673ffffffffffffffffffffffffffffffffffffffff1673ffffffffffffffffffffffffffffffffffffffff16815260200190815260200160002081908060018154018082558091505060019003906000526020600020906007020160009091909190915060008201518160000190816121d39190614898565b5060208201518160010160006101000a81548173ffffffffffffffffffffffffffffffffffffffff021916908373ffffffffffffffffffffffffffffffffffffffff16021790555060408201518160020160006101000a81548173ffffffffffffffffffffffffffffffffffffffff021916908373ffffffffffffffffffffffffffffffffffffffff160217905550606082015181600301556080820151816004015560a0820151816005015560c08201518160060160006101000a81548160ff0219169083151502179055505050600660003373ffffffffffffffffffffffffffffffffffffffff1673ffffffffffffffffffffffffffffffffffffffff16815260200190815260200160002081908060018154018082558091505060019003906000526020600020906007020160009091909190915060008201518160000190816123209190614898565b5060208201518160010160006101000a81548173ffffffffffffffffffffffffffffffffffffffff021916908373ffffffffffffffffffffffffffffffffffffffff16021790555060408201518160020160006101000a81548173ffffffffffffffffffffffffffffffffffffffff021916908373ffffffffffffffffffffffffffffffffffffffff160217905550606082015181600301556080820151816004015560a0820151816005015560c08201518160060160006101000a81548160ff021916908315150217905550505083600460003373ffffffffffffffffffffffffffffffffffffffff1673ffffffffffffffffffffffffffffffffffffffff168152602001908152602001600020600082825461243e919061461d565b9250508190555083600460003073ffffffffffffffffffffffffffffffffffffffff1673ffffffffffffffffffffffffffffffffffffffff16815260200190815260200160002060008282546124949190614cf5565b925050819055507fa9583b0849dfa331eb888e42223089cd865127c2365fc7df5f489b933766edb0878733884289896040516124d69796959493929190614d29565b60405180910390a17fddf252ad1be2c89b69c2b068fc378daa952ba7f163c4a11628f55a4df523b3ef33308660405161251193929190614d93565b60405180910390a150505050505050565b6060600560003373ffffffffffffffffffffffffffffffffffffffff1673ffffffffffffffffffffffffffffffffffffffff168152602001908152602001600020805480602002602001604051908101604052809291908181526020016000905b8282101561272c57838290600052602060002090600702016040518060e00160405290816000820180546125b6906144f9565b80601f01602080910402602001604051908101604052809291908181526020018280546125e2906144f9565b801561262f5780601f106126045761010080835404028352916020019161262f565b820191906000526020600020905b81548152906001019060200180831161261257829003601f168201915b505050505081526020016001820160009054906101000a900473ffffffffffffffffffffffffffffffffffffffff1673ffffffffffffffffffffffffffffffffffffffff1673ffffffffffffffffffffffffffffffffffffffff1681526020016002820160009054906101000a900473ffffffffffffffffffffffffffffffffffffffff1673ffffffffffffffffffffffffffffffffffffffff1673ffffffffffffffffffffffffffffffffffffffff1681526020016003820154815260200160048201548152602001600582015481526020016006820160009054906101000a900460ff16151515158152505081526020019060010190612583565b50505050905090565b60606000806000806000806000600160008b815260200190815260200160002089815481106127675761276661452a565b5b90600052602060002090600702016040518060e0016040529081600082018054612790906144f9565b80601f01602080910402602001604051908101604052809291908181526020018280546127bc906144f9565b80156128095780601f106127de57610100808354040283529160200191612809565b820191906000526020600020905b8154815290600101906020018083116127ec57829003601f168201915b505050505081526020016001820160009054906101000a900473ffffffffffffffffffffffffffffffffffffffff1673ffffffffffffffffffffffffffffffffffffffff1673ffffffffffffffffffffffffffffffffffffffff1681526020016002820160009054906101000a900473ffffffffffffffffffffffffffffffffffffffff1673ffffffffffffffffffffffffffffffffffffffff1673ffffffffffffffffffffffffffffffffffffffff1681526020016003820154815260200160048201548152602001600582015481526020016006820160009054906101000a900460ff1615151515815250509050806000015181602001518260400151836060015184608001518560a001518660c0015197509750975097509750975097505092959891949750929550565b336000806101000a81548173ffffffffffffffffffffffffffffffffffffffff021916908373ffffffffffffffffffffffffffffffffffffffff160217905550565b80600460008573ffffffffffffffffffffffffffffffffffffffff1673ffffffffffffffffffffffffffffffffffffffff1681526020019081526020016000205410156129fb576040517f08c379a00000000000000000000000000000000000000000000000000000000081526004016129f2906145a5565b60405180910390fd5b7fddf252ad1be2c89b69c2b068fc378daa952ba7f163c4a11628f55a4df523b3ef838383604051612a2e93929190614d93565b60405180910390a180600460008573ffffffffffffffffffffffffffffffffffffffff1673ffffffffffffffffffffffffffffffffffffffff1681526020019081526020016000206000828254612a85919061461d565b9250508190555080600460008473ffffffffffffffffffffffffffffffffffffffff1673ffffffffffffffffffffffffffffffffffffffff1681526020019081526020016000206000828254612adb9190614cf5565b92505081905550505050565b7fe1fffcc4923d04b559f4d29a8bfc6cda04eb5b0d3c460751c2402c5c5cc9109c3334604051612b189291906145c5565b60405180910390a134600460003373ffffffffffffffffffffffffffffffffffffffff1673ffffffffffffffffffffffffffffffffffffffff1681526020019081526020016000206000828254612b6f9190614cf5565b92505081905550565b6060600560008373ffffffffffffffffffffffffffffffffffffffff1673ffffffffffffffffffffffffffffffffffffffff168152602001908152602001600020805480602002602001604051908101604052809291908181526020016000905b82821015612d8257838290600052602060002090600702016040518060e0016040529081600082018054612c0c906144f9565b80601f0160208091040260200160405190810160405280929190818152602001828054612c38906144f9565b8015612c855780601f10612c5a57610100808354040283529160200191612c85565b820191906000526020600020905b815481529060010190602001808311612c6857829003601f168201915b505050505081526020016001820160009054906101000a900473ffffffffffffffffffffffffffffffffffffffff1673ffffffffffffffffffffffffffffffffffffffff1673ffffffffffffffffffffffffffffffffffffffff1681526020016002820160009054906101000a900473ffffffffffffffffffffffffffffffffffffffff1673ffffffffffffffffffffffffffffffffffffffff1673ffffffffffffffffffffffffffffffffffffffff1681526020016003820154815260200160048201548152602001600582015481526020016006820160009054906101000a900460ff16151515158152505081526020019060010190612bd9565b505050509050919050565b6000600160008681526020019081526020016000208481548110612db457612db361452a565b5b90600052602060002090600702016040518060e0016040529081600082018054612ddd906144f9565b80601f0160208091040260200160405190810160405280929190818152602001828054612e09906144f9565b8015612e565780601f10612e2b57610100808354040283529160200191612e56565b820191906000526020600020905b815481529060010190602001808311612e3957829003601f168201915b505050505081526020016001820160009054906101000a900473ffffffffffffffffffffffffffffffffffffffff1673ffffffffffffffffffffffffffffffffffffffff1673ffffffffffffffffffffffffffffffffffffffff1681526020016002820160009054906101000a900473ffffffffffffffffffffffffffffffffffffffff1673ffffffffffffffffffffffffffffffffffffffff1673ffffffffffffffffffffffffffffffffffffffff1681526020016003820154815260200160048201548152602001600582015481526020016006820160009054906101000a900460ff16151515158152505090503373ffffffffffffffffffffffffffffffffffffffff16816040015173ffffffffffffffffffffffffffffffffffffffff1614612fb8576040517f08c379a0000000000000000000000000000000000000000000000000000000008152600401612faf90614e16565b60405180910390fd5b8060c001516135c55760018060008781526020019081526020016000208581548110612fe757612fe661452a565b5b906000526020600020906007020160060160006101000a81548160ff02191690831515021790555060018160c00190151590811515815250503373ffffffffffffffffffffffffffffffffffffffff16816040015173ffffffffffffffffffffffffffffffffffffffff16036135bf57600060405180608001604052808381526020013373ffffffffffffffffffffffffffffffffffffffff16815260200185858080601f016020809104026020016040519081016040528093929190818152602001838380828437600081840152601f19601f820116905080830192505050505050508152602001428152509050600860008781526020019081526020016000208190806001815401808255809150506001900390600052602060002090600a020160009091909190915060008201518160000160008201518160000190816131319190614898565b5060208201518160010160006101000a81548173ffffffffffffffffffffffffffffffffffffffff021916908373ffffffffffffffffffffffffffffffffffffffff16021790555060408201518160020160006101000a81548173ffffffffffffffffffffffffffffffffffffffff021916908373ffffffffffffffffffffffffffffffffffffffff160217905550606082015181600301556080820151816004015560a0820151816005015560c08201518160060160006101000a81548160ff021916908315150217905550505060208201518160070160006101000a81548173ffffffffffffffffffffffffffffffffffffffff021916908373ffffffffffffffffffffffffffffffffffffffff160217905550604082015181600801908161325c9190614898565b506060820151816009015550506003600087815260200190815260200160002082908060018154018082558091505060019003906000526020600020906007020160009091909190915060008201518160000190816132bb9190614898565b5060208201518160010160006101000a81548173ffffffffffffffffffffffffffffffffffffffff021916908373ffffffffffffffffffffffffffffffffffffffff16021790555060408201518160020160006101000a81548173ffffffffffffffffffffffffffffffffffffffff021916908373ffffffffffffffffffffffffffffffffffffffff160217905550606082015181600301556080820151816004015560a0820151816005015560c08201518160060160006101000a81548160ff0219169083151502179055505050600760003373ffffffffffffffffffffffffffffffffffffffff1673ffffffffffffffffffffffffffffffffffffffff1681526020019081526020016000208190806001815401808255809150506001900390600052602060002090600a020160009091909190915060008201518160000160008201518160000190816134119190614898565b5060208201518160010160006101000a81548173ffffffffffffffffffffffffffffffffffffffff021916908373ffffffffffffffffffffffffffffffffffffffff16021790555060408201518160020160006101000a81548173ffffffffffffffffffffffffffffffffffffffff021916908373ffffffffffffffffffffffffffffffffffffffff160217905550606082015181600301556080820151816004015560a0820151816005015560c08201518160060160006101000a81548160ff021916908315150217905550505060208201518160070160006101000a81548173ffffffffffffffffffffffffffffffffffffffff021916908373ffffffffffffffffffffffffffffffffffffffff160217905550604082015181600801908161353c9190614898565b506060820151816009015550506000600a6009846060015161355e9190614e36565b6135689190614ea7565b905061357930846040015183612979565b7fefda59ea4e2f5e81b5cabb97327989e103677d218e2db90ba8f4e6e02b6a629683338787426040516135b0959493929190614f74565b60405180910390a150506135c0565b5b613601565b7fefda59ea4e2f5e81b5cabb97327989e103677d218e2db90ba8f4e6e02b6a62968133426040516135f893929190615015565b60405180910390a15b5050505050565b60606000600a60008473ffffffffffffffffffffffffffffffffffffffff1673ffffffffffffffffffffffffffffffffffffffff168152602001908152602001600020600101600a60008573ffffffffffffffffffffffffffffffffffffffff1673ffffffffffffffffffffffffffffffffffffffff1681526020019081526020016000206004015481805461369d906144f9565b80601f01602080910402602001604051908101604052809291908181526020018280546136c9906144f9565b80156137165780601f106136eb57610100808354040283529160200191613716565b820191906000526020600020905b8154815290600101906020018083116136f957829003601f168201915b5050505050915091509150915091565b606080606080606060006060919395979092949650565b6000848484846040516020016137569493929190615096565b604051602081830303815290604052805190602001209050949350505050565b6040518060c0016040528060008019168152602001600073ffffffffffffffffffffffffffffffffffffffff168152602001606081526020016060815260200160008152602001600081525090565b6040518060c00160405280600073ffffffffffffffffffffffffffffffffffffffff16815260200160608152602001606081526020016060815260200160008019168152602001606081525090565b6000819050919050565b61382781613814565b82525050565b6000602082019050613842600083018461381e565b92915050565b600080fd5b600080fd5b600073ffffffffffffffffffffffffffffffffffffffff82169050919050565b600061387d82613852565b9050919050565b61388d81613872565b811461389857600080fd5b50565b6000813590506138aa81613884565b92915050565b6000602082840312156138c6576138c5613848565b5b60006138d48482850161389b565b91505092915050565b6000819050919050565b6138f0816138dd565b82525050565b600061390182613852565b9050919050565b613911816138f6565b82525050565b600081519050919050565b600082825260208201905092915050565b60005b83811015613951578082015181840152602081019050613936565b60008484015250505050565b6000601f19601f8301169050919050565b600061397982613917565b6139838185613922565b9350613993818560208601613933565b61399c8161395d565b840191505092915050565b6139b081613814565b82525050565b600060c0830160008301516139ce60008601826138e7565b5060208301516139e16020860182613908565b50604083015184820360408601526139f9828261396e565b91505060608301518482036060860152613a13828261396e565b9150506080830151613a2860808601826139a7565b5060a0830151613a3b60a08601826139a7565b508091505092915050565b60006020820190508181036000830152613a6081846139b6565b905092915050565b613a71816138dd565b8114613a7c57600080fd5b50565b600081359050613a8e81613a68565b92915050565b613a9d81613814565b8114613aa857600080fd5b50565b600081359050613aba81613a94565b92915050565b60008060408385031215613ad757613ad6613848565b5b6000613ae585828601613a7f565b9250506020613af685828601613aab565b9150509250929050565b613b0981613872565b82525050565b600082825260208201905092915050565b6000613b2b82613917565b613b358185613b0f565b9350613b45818560208601613933565b613b4e8161395d565b840191505092915050565b600060c082019050613b6e6000830189613b00565b8181036020830152613b808188613b20565b9050613b8f6040830187613b00565b8181036060830152613ba18186613b20565b9050613bb0608083018561381e565b613bbd60a083018461381e565b979650505050505050565b600060208284031215613bde57613bdd613848565b5b6000613bec84828501613aab565b91505092915050565b613bfe816138dd565b82525050565b60006040820190508181036000830152613c1e8185613b20565b9050613c2d6020830184613bf5565b9392505050565b600080fd5b600080fd5b600080fd5b60008083601f840112613c5957613c58613c34565b5b8235905067ffffffffffffffff811115613c7657613c75613c39565b5b602083019150836001820283011115613c9257613c91613c3e565b5b9250929050565b60008060208385031215613cb057613caf613848565b5b600083013567ffffffffffffffff811115613cce57613ccd61384d565b5b613cda85828601613c43565b92509250509250929050565b60006040820190508181036000830152613d008185613b20565b90508181036020830152613d148184613b20565b90509392505050565b600060c083016000830151613d356000860182613908565b5060208301518482036020860152613d4d828261396e565b91505060408301518482036040860152613d67828261396e565b91505060608301518482036060860152613d81828261396e565b9150506080830151613d9660808601826138e7565b5060a083015184820360a0860152613dae828261396e565b9150508091505092915050565b60006020820190508181036000830152613dd58184613d1d565b905092915050565b600060208284031215613df357613df2613848565b5b6000613e0184828501613a7f565b91505092915050565b6000806000806000806000806080898b031215613e2a57613e29613848565b5b600089013567ffffffffffffffff811115613e4857613e4761384d565b5b613e548b828c01613c43565b9850985050602089013567ffffffffffffffff811115613e7757613e7661384d565b5b613e838b828c01613c43565b9650965050604089013567ffffffffffffffff811115613ea657613ea561384d565b5b613eb28b828c01613c43565b9450945050606089013567ffffffffffffffff811115613ed557613ed461384d565b5b613ee18b828c01613c43565b92509250509295985092959890939650565b600081519050919050565b600082825260208201905092915050565b6000819050602082019050919050565b60008115159050919050565b613f3481613f1f565b82525050565b600060e0830160008301518482036000860152613f57828261396e565b9150506020830151613f6c6020860182613908565b506040830151613f7f6040860182613908565b506060830151613f9260608601826139a7565b506080830151613fa560808601826139a7565b5060a0830151613fb860a08601826138e7565b5060c0830151613fcb60c0860182613f2b565b508091505092915050565b60006080830160008301518482036000860152613ff38282613f3a565b91505060208301516140086020860182613908565b5060408301518482036040860152614020828261396e565b915050606083015161403560608601826139a7565b508091505092915050565b600061404c8383613fd6565b905092915050565b6000602082019050919050565b600061406c82613ef3565b6140768185613efe565b93508360208202850161408885613f0f565b8060005b858110156140c457848403895281516140a58582614040565b94506140b083614054565b925060208a0199505060018101905061408c565b50829750879550505050505092915050565b600060208201905081810360008301526140f08184614061565b905092915050565b60008060008060006060868803121561411457614113613848565b5b600086013567ffffffffffffffff8111156141325761413161384d565b5b61413e88828901613c43565b9550955050602086013567ffffffffffffffff8111156141615761416061384d565b5b61416d88828901613c43565b9350935050604061418088828901613aab565b9150509295509295909350565b600080600080606085870312156141a7576141a6613848565b5b600085013567ffffffffffffffff8111156141c5576141c461384d565b5b6141d187828801613c43565b945094505060206141e48782880161389b565b92505060406141f587828801613aab565b91505092959194509250565b600081519050919050565b600082825260208201905092915050565b6000819050602082019050919050565b60006142398383613f3a565b905092915050565b6000602082019050919050565b600061425982614201565b614263818561420c565b9350836020820285016142758561421d565b8060005b858110156142b15784840389528151614292858261422d565b945061429d83614241565b925060208a01995050600181019050614279565b50829750879550505050505092915050565b600060208201905081810360008301526142dd818461424e565b905092915050565b6142ee81613f1f565b82525050565b600060e082019050818103600083015261430e818a613b20565b905061431d6020830189613b00565b61432a6040830188613b00565b614337606083018761381e565b614344608083018661381e565b61435160a0830185613bf5565b61435e60c08301846142e5565b98975050505050505050565b60008060006060848603121561438357614382613848565b5b60006143918682870161389b565b93505060206143a28682870161389b565b92505060406143b386828701613aab565b9150509250925092565b600080600080606085870312156143d7576143d6613848565b5b60006143e587828801613a7f565b94505060206143f687828801613aab565b935050604085013567ffffffffffffffff8111156144175761441661384d565b5b61442387828801613c43565b925092505092959194509250565b600060e082019050818103600083015261444b818a613b20565b9050818103602083015261445f8189613b20565b905081810360408301526144738188613b20565b905081810360608301526144878187613b20565b9050818103608083015261449b8186613b20565b90506144aa60a083018561381e565b81810360c08301526144bc8184613b20565b905098975050505050505050565b7f4e487b7100000000000000000000000000000000000000000000000000000000600052602260045260246000fd5b6000600282049050600182168061451157607f821691505b602082108103614524576145236144ca565b5b50919050565b7f4e487b7100000000000000000000000000000000000000000000000000000000600052603260045260246000fd5b7f496e73756666696369656e742066756e64730000000000000000000000000000600082015250565b600061458f601283613b0f565b915061459a82614559565b602082019050919050565b600060208201905081810360008301526145be81614582565b9050919050565b60006040820190506145da6000830185613b00565b6145e7602083018461381e565b9392505050565b7f4e487b7100000000000000000000000000000000000000000000000000000000600052601160045260246000fd5b600061462882613814565b915061463383613814565b925082820390508181111561464b5761464a6145ee565b5b92915050565b7f416c726561647920616e7377657265642f6465636c696e656400000000000000600082015250565b6000614687601983613b0f565b915061469282614651565b602082019050919050565b600060208201905081810360008301526146b68161467a565b9050919050565b7f4e487b7100000000000000000000000000000000000000000000000000000000600052604160045260246000fd5b60008190508160005260206000209050919050565b60006020601f8301049050919050565b600082821b905092915050565b60006008830261474e7fffffffffffffffffffffffffffffffffffffffffffffffffffffffffffffffff82614711565b6147588683614711565b95508019841693508086168417925050509392505050565b6000819050919050565b600061479561479061478b84613814565b614770565b613814565b9050919050565b6000819050919050565b6147af8361477a565b6147c36147bb8261479c565b84845461471e565b825550505050565b600090565b6147d86147cb565b6147e38184846147a6565b505050565b5b81811015614807576147fc6000826147d0565b6001810190506147e9565b5050565b601f82111561484c5761481d816146ec565b61482684614701565b81016020851015614835578190505b61484961484185614701565b8301826147e8565b50505b505050565b600082821c905092915050565b600061486f60001984600802614851565b1980831691505092915050565b6000614888838361485e565b9150826002028217905092915050565b6148a182613917565b67ffffffffffffffff8111156148ba576148b96146bd565b5b6148c482546144f9565b6148cf82828561480b565b600060209050601f83116001811461490257600084156148f0578287015190505b6148fa858261487c565b865550614962565b601f198416614910866146ec565b60005b8281101561493857848901518255600182019150602085019450602081019050614913565b868310156149555784890151614951601f89168261485e565b8355505b6001600288020188555050505b505050505050565b614973816138f6565b82525050565b82818337600083830152505050565b60006149948385613b0f565b93506149a1838584614979565b6149aa8361395d565b840190509392505050565b600060c0820190506149ca600083018d61496a565b81810360208301526149dd818b8d614988565b905081810360408301526149f281898b614988565b90508181036060830152614a07818789614988565b9050614a166080830186613bf5565b81810360a0830152614a29818486614988565b90509b9a5050505050505050505050565b7f63726561746520612070726f66696c6520666972737400000000000000000000600082015250565b6000614a70601683613b0f565b9150614a7b82614a3a565b602082019050919050565b60006020820190508181036000830152614a9f81614a63565b9050919050565b600060c082019050614abb600083018b613bf5565b614ac8602083018a61496a565b8181036040830152614adb81888a614988565b90508181036060830152614af0818688614988565b9050614aff608083018561381e565b614b0c60a083018461381e565b9998505050505050505050565b7f596f752068617665206e6f742073656e742074686520707269636520616d6f7560008201527f6e74000000000000000000000000000000000000000000000000000000000000602082015250565b6000614b75602283613b0f565b9150614b8082614b19565b604082019050919050565b60006020820190508181036000830152614ba481614b68565b9050919050565b7f7573657220796f75206172652061736b696e67206973206e6f7420726567697360008201527f7465726564000000000000000000000000000000000000000000000000000000602082015250565b6000614c07602583613b0f565b9150614c1282614bab565b604082019050919050565b60006020820190508181036000830152614c3681614bfa565b9050919050565b7f74686520707269636520796f75206861766520736574206973206c6f7765722060008201527f7468616e20746865206d696e696d756d2070726963652073657420627920746860208201527f6520757365727320796f75206172652061736b696e672e000000000000000000604082015250565b6000614cbf605783613b0f565b9150614cca82614c3d565b606082019050919050565b60006020820190508181036000830152614cee81614cb2565b9050919050565b6000614d0082613814565b9150614d0b83613814565b9250828201905080821115614d2357614d226145ee565b5b92915050565b600060c0820190508181036000830152614d4481898b614988565b9050614d53602083018861496a565b614d60604083018761496a565b614d6d606083018661381e565b614d7a608083018561381e565b614d8760a0830184613bf5565b98975050505050505050565b6000606082019050614da86000830186613b00565b614db56020830185613b00565b614dc2604083018461381e565b949350505050565b7f4e6f7420617574686f72697a656420746f20616e737765722e00000000000000600082015250565b6000614e00601983613b0f565b9150614e0b82614dca565b602082019050919050565b60006020820190508181036000830152614e2f81614df3565b9050919050565b6000614e4182613814565b9150614e4c83613814565b9250828202614e5a81613814565b91508282048414831517614e7157614e706145ee565b5b5092915050565b7f4e487b7100000000000000000000000000000000000000000000000000000000600052601260045260246000fd5b6000614eb282613814565b9150614ebd83613814565b925082614ecd57614ecc614e78565b5b828204905092915050565b600060e0830160008301518482036000860152614ef5828261396e565b9150506020830151614f0a6020860182613908565b506040830151614f1d6040860182613908565b506060830151614f3060608601826139a7565b506080830151614f4360808601826139a7565b5060a0830151614f5660a08601826138e7565b5060c0830151614f6960c0860182613f2b565b508091505092915050565b60006080820190508181036000830152614f8e8188614ed8565b9050614f9d602083018761496a565b8181036040830152614fb0818587614988565b9050614fbf606083018461381e565b9695505050505050565b7f616c726561647920616e73776572656400000000000000000000000000000000600082015250565b6000614fff601083613b0f565b915061500a82614fc9565b602082019050919050565b6000608082019050818103600083015261502f8186614ed8565b905061503e602083018561496a565b818103604083015261504f81614ff2565b905061505e606083018461381e565b949350505050565b600081905092915050565b600061507d8385615066565b935061508a838584614979565b82840190509392505050565b60006150a3828688615071565b91506150b0828486615071565b91508190509594505050505056fea26469706673582212200e96df1aedf383cb15a7bfe0b559f67660b74c5fd2e76b3747deaacc54c8066e64736f6c63430008110033",
  "immutableReferences": {},
  "source": "// SPDX-License-Identifier: MIT\npragma solidity >=0.5.0 <0.9.0;\n\ncontract BuyAnAnswer {\n    // This will allow all users to ask (target) a question to any other user for any price\n    // This will allow for users to answer/decline questions targeted to them (their eth address)\n    // There must be a layer between a user asking the question and the question being answered. That is the processing layer\n    // This layer will hold the funds as soon as a question is asked. If it is answered, 90% of the\n    // fund are transffered to the answerer and 10% will be transfer to a processing buyananswer account.\n    // If it is declined, then the user that asked the question will receive 100% of the funds back\n    // If the user that answered the question cancels it, they will receive 97% of their money back.\n    event AskQuestion(\n        string message,\n        address payable askUser,\n        address payable answerUser,\n        uint256 timestamp,\n        uint256 price,\n        bytes32 boardID\n    );\n    event AnswerQuestion(\n        Question question,\n        address payable user,\n        string answer,\n        uint256 timestamp\n    );\n    event CreateBoard(\n        bytes32 boardID,\n        address payable user,\n        string boardHeadline,\n        string boardDesc,\n        uint256 minQuestionPrice,\n        uint256 timestamp\n    );\n    event CreateUser(\n        address payable userAddress,\n        string username,\n        string email,\n        string name,\n        bytes32 boardID,\n        string INSTAGRAM\n    );\n\n    event Deposit(address sender, uint256 amount);\n    event Withdrawal(address receiver, uint256 amount);\n    event Transfer(address sender, address receiver, uint256 amount);\n\n    address payable owner;\n\n    struct Question {\n        // string questionID;\n        string message;\n        address payable askUser;\n        address payable answerUser;\n        uint256 price;\n        uint256 timestamp;\n        bytes32 boardID;\n        bool isAnswered;\n    }\n\n    struct User {\n        address payable userAddress;\n        string username;\n        string email;\n        string name;\n        bytes32 boardID;\n        // Question[] askedQuestions;\n        // Answer[] answeredQuestions;\n        string INSTAGRAM;\n        // string LINKEDIN;\n        // string FACEBOOK;\n        // string TWITTER;\n    }\n\n    struct Answer {\n        Question question;\n        address payable answerer;\n        string answerText;\n        uint256 timestamp;\n    }\n\n    struct Board {\n        bytes32 boardID;\n        address payable owner;\n        string boardHeadline;\n        string boardDesc;\n        uint256 minQuestionPrice;\n        // Question[] receivedQuestions;\n        // Answer[] answers;\n        uint256 createdAt;\n    }\n\n    mapping(bytes32 => Question[]) boardIDToQuestions;\n    mapping(bytes32 => Question[]) boardIDToDeclinedQuestions;\n    mapping(bytes32 => Question[]) boardIDToAnsweredQuestions;\n    mapping(address => uint256) balances;\n    mapping(address => Question[]) userToReceivedQuestions;\n    mapping(address => Question[]) userToAskedQuestions;\n    mapping(address => Answer[]) userToAnswers;\n    mapping(bytes32 => Answer[]) boardIDToAnswers;\n    mapping(bytes32 => Board) boardIDToBoard;\n    // mapping(address => string) addressToUsername;\n    mapping(address => User) addressToUser;\n\n    function BuyAnAnswerApp() public {\n        owner = payable(msg.sender);\n    }\n\n    function deposit() public payable {\n        emit Deposit(msg.sender, msg.value);\n        balances[msg.sender] += msg.value;\n    }\n\n    function getBalance() external view returns (uint256) {\n        return balances[msg.sender];\n    }\n\n    function withdraw(uint256 amount) public {\n        require(balances[msg.sender] >= amount, \"Insufficient funds\");\n        emit Withdrawal(msg.sender, amount);\n        balances[msg.sender] -= amount;\n    }\n\n    function transfer(\n        address sender,\n        address receiver,\n        uint256 amount\n    ) public {\n        require(balances[sender] >= amount, \"Insufficient funds\");\n        emit Transfer(sender, receiver, amount);\n        balances[sender] -= amount;\n        balances[receiver] += amount;\n    }\n\n    // address payable userAddress;\n    // string username;\n    // string email;\n    // string name;\n    // string boardID;\n    // Question[] askedQuestions;\n    // Answer[] answeredQuestions;\n    // string boardHeadline;\n    // string boardDesc;\n    // uint256 minQuestionPrice;\n    // string INSTAGRAM;\n    // string LINKEDIN;\n    // string FACEBOOK;\n    // string TWITTER;\n\n    // function toBytes(string calldata x) public returns (bytes memory b) {\n    //     b = new bytes(32);\n    //     assembly { mstore(add(b, 32), x.offset) }\n    // }\n    function createBoardID(string calldata usrnm, string calldata eml)\n        internal\n        returns (bytes32)\n    {\n        return keccak256(abi.encodePacked(usrnm, eml));\n    }\n\n    function createBoard(\n        string calldata _boardHeadline,\n        string calldata _boardDesc,\n        uint256 _minQuestionPrice\n    ) external {\n        require(\n            addressToUser[(msg.sender)].boardID != 0,\n            \"create a profile first\"\n        );\n        Board memory creationBoard = Board(\n            addressToUser[(msg.sender)].boardID,\n            addressToUser[(msg.sender)].userAddress,\n            _boardHeadline,\n            _boardDesc,\n            _minQuestionPrice,\n            block.timestamp\n        );\n        boardIDToBoard[addressToUser[(msg.sender)].boardID] = creationBoard;\n        emit CreateBoard(\n            addressToUser[(msg.sender)].boardID,\n            addressToUser[(msg.sender)].userAddress,\n            _boardHeadline,\n            _boardDesc,\n            _minQuestionPrice,\n            block.timestamp\n        );\n    }\n\n    // this is a function to create a user initially\n    function createUser(\n        string calldata _username,\n        string calldata _email,\n        string calldata _name,\n        string calldata _socialLink_INSTAGRAM // string calldata _socialLink_LINKEDIN,\n    ) external // string calldata _socialLink_FACEBOOK,\n    // string calldata _socialLink_TWITTER\n    {\n        bytes32 _boardID = createBoardID(_username, _email);\n        User memory u = User(\n            payable(msg.sender),\n            _username,\n            _email,\n            _name,\n            _boardID,\n            _socialLink_INSTAGRAM\n            // _socialLink_LINKEDIN,\n            // _socialLink_FACEBOOK,\n            // _socialLink_TWITTER\n        );\n\n        addressToUser[payable(msg.sender)] = u;\n\n        emit CreateUser(\n            // address payable userAddress,\n            // string username,\n            // string email,\n            // string name,\n            // bytes32 boardID,\n            // string INSTAGRAM\n            payable(msg.sender),\n            _username,\n            _email,\n            _name,\n            _boardID,\n            _socialLink_INSTAGRAM\n        );\n    }\n\n    // Send a question as an object onto the boardID -> questions mapping and the user -> receivedQuestions mapping\n    // Also the price is deducted from the users balance as soon as question is asked.\n    // This must be stored within the contract until one of 3 actinos takes place\n    //           1. Question is answered by answerUser (93% of balance for question is transferred to answerUser, 7% to buyAnAnswer address)\n    //           2. Question is cancelled by askUser before 3 days of asking the question (97% of balance is transferred to askUser, 3% to buyAnAnswer address)\n    //           3. Question is cancelled by askUser after 3 days of asking the question (100% of balance is sent to askUser)\n    //           4. Question is declined by answerUser (100% of balance is sent to askUser)\n    function sendQuestion(\n        string calldata _qst,\n        address _answerUser,\n        uint256 _prc\n    ) external payable {\n        // require(balances[msg.sender] >= _prc, \"Insufficient funds\");\n        // if (msg.value != _prc) {}\n        bytes32 _boardID = addressToUser[_answerUser].boardID;\n        uint256 minP = boardIDToBoard[_boardID].minQuestionPrice;\n        require(msg.value == _prc, \"You have not sent the price amount\");\n        require(_boardID != 0, \"user you are asking is not registered\");\n        require(\n            _prc >= minP,\n            \"the price you have set is lower than the minimum price set by the users you are asking.\"\n        );\n        Question memory question = Question(\n            _qst,\n            payable(msg.sender),\n            payable(_answerUser),\n            _prc,\n            block.timestamp,\n            _boardID,\n            false\n        );\n        boardIDToQuestions[_boardID].push(question);\n        userToReceivedQuestions[_answerUser].push(question);\n        userToAskedQuestions[payable(msg.sender)].push(question);\n        balances[msg.sender] -= _prc;\n        balances[address(this)] += _prc;\n        // balances[_answerUser] += _prc;\n        emit AskQuestion(\n            _qst,\n            payable(msg.sender),\n            payable(_answerUser),\n            block.timestamp,\n            _prc,\n            _boardID\n        );\n        emit Transfer(msg.sender, address(this), _prc);\n    }\n\n    // if a question is answered/declined it can't be answered again\n    // it is imparative to keep a track of the\n    // balanced received by the contract in asking questions and the\n    // exited balanced with answering questions.\n\n    function declineAnswer(bytes32 _boardID, uint256 _index) external payable {\n        Question memory question = boardIDToQuestions[_boardID][_index];\n        require(question.answerUser == payable(msg.sender));\n        require(\n            !(boardIDToQuestions[_boardID][_index].isAnswered),\n            \"Already answered/declined\"\n        );\n        boardIDToQuestions[_boardID][_index].isAnswered = true;\n\n        question.isAnswered = true;\n        boardIDToDeclinedQuestions[_boardID].push(question);\n    }\n\n    function sendAnswer(\n        bytes32 _boardID,\n        uint256 _index,\n        string calldata _answer\n    ) external payable {\n        Question memory question = boardIDToQuestions[_boardID][_index];\n        require(\n            question.answerUser == payable(msg.sender),\n            \"Not authorized to answer.\"\n        );\n        if (!question.isAnswered) {\n            boardIDToQuestions[_boardID][_index].isAnswered = true;\n            question.isAnswered = true;\n\n            if (question.answerUser == payable(msg.sender)) {\n                Answer memory answer = Answer(\n                    question,\n                    payable(msg.sender),\n                    _answer,\n                    block.timestamp\n                );\n                boardIDToAnswers[_boardID].push(answer);\n                boardIDToAnsweredQuestions[_boardID].push(question);\n                userToAnswers[payable(msg.sender)].push(answer);\n\n                uint256 balanceToAnswerer = (question.price * 9) / 10;\n                // balances[question.answerUser] += balanceToAnswerer;\n                transfer(address(this), question.answerUser, balanceToAnswerer);\n                emit AnswerQuestion(\n                    question,\n                    payable(msg.sender),\n                    _answer,\n                    block.timestamp\n                );\n            } else {\n                // err handling (look into using the required keyword in solidity to handle stuff like this)\n            }\n        } else {\n            emit AnswerQuestion(\n                question,\n                payable(msg.sender),\n                \"already answered\",\n                block.timestamp\n            );\n        }\n    }\n\n    //\n    // Functions for creating and fetching custom usernames. If a user updates\n    // their username it will update for all of their messages\n    // function createUser(string calldata _name) external {\n    //     addressToUsername[msg.sender] = _name;\n    // }\n\n    //\n    function getUserForAddress(address _user)\n        external\n        view\n        returns (string memory, bytes32)\n    {\n        return (addressToUser[_user].username, addressToUser[_user].boardID);\n    }\n\n    function getProfileFromUserAddress(address _user)\n        external\n        view\n        returns (\n            string memory,\n            string memory,\n            string memory,\n            string memory,\n            string memory,\n            uint256,\n            string memory\n        )\n    {}\n\n    function getBoardFromUserAddress(address _user)\n        external\n        view\n        returns (Board memory)\n    {\n        return (boardIDToBoard[addressToUser[_user].boardID]);\n    }\n\n    function getThisUser() external view returns (string memory, bytes32) {\n        address _user = payable(msg.sender);\n        return (addressToUser[_user].username, addressToUser[_user].boardID);\n    }\n\n    //\n    //  Currently, there is no support for returning nested lists, so the length\n    //  of messages needs to be fetched and then retrieved by index. This is not\n    //  fast but it is the most gas efficient method for storing and\n    //  fetching data. Ideally this only needs to be done once per room load\n    function getQuestionCountForBoard(bytes32 _boardID)\n        external\n        view\n        returns (uint256)\n    {\n        return boardIDToQuestions[_boardID].length;\n    }\n\n    function getQuestionsForUser(address _usrAddress)\n        external\n        view\n        returns (Question[] memory)\n    {\n        return userToReceivedQuestions[_usrAddress];\n    }\n\n    function getQuestionsForCurrentUser()\n        external\n        view\n        returns (Question[] memory)\n    {\n        return userToReceivedQuestions[payable(msg.sender)];\n    }\n\n    function getAnswerForCurrentUser() external view returns (Answer[] memory) {\n        return userToAnswers[payable(msg.sender)];\n    }\n\n    //\n    // There is no support for returning a struct to web3, so this needs to be\n    // returned as multiple items. This will throw an error if the index is invalid\n    function getQuestionByIndexForBoard(bytes32 _boardID, uint256 _index)\n        external\n        view\n        returns (\n            string memory,\n            address,\n            address,\n            uint256,\n            uint256,\n            bytes32,\n            bool\n        )\n    {\n        Question memory question = boardIDToQuestions[_boardID][_index];\n        return (\n            question.message,\n            question.askUser,\n            question.answerUser,\n            question.price,\n            question.timestamp,\n            question.boardID,\n            question.isAnswered\n        );\n    }\n\n    function getUserByAddress(address _userAddress)\n        external\n        view\n        returns (User memory)\n    {\n        User memory user = addressToUser[_userAddress];\n        return (user);\n    }\n\n    function getAnswerFromBoardIDAndIndex(bytes32 _boardID, uint256 _index)\n        external\n        view\n        returns (\n            address,\n            string memory,\n            address,\n            string memory,\n            uint256,\n            uint256\n        )\n    {\n        Answer memory answer = boardIDToAnswers[_boardID][_index];\n        string memory answerText = answer.answerText;\n        Question memory question = answer.question;\n        address asker = question.askUser;\n        address answerer = answer.answerer;\n        string memory questionText = question.message;\n        uint256 price = question.price;\n        uint256 answeredOn = answer.timestamp;\n        return (asker, questionText, answerer, answerText, price, answeredOn);\n    }\n\n    //\n    function getAnswerByQuestionID(string calldata _questionID)\n        external\n        view\n        returns (string memory, string memory)\n    {}\n\n    function kill() external {\n        if (owner == msg.sender) {\n            selfdestruct(owner);\n        }\n    }\n}\n",
  "sourcePath": "/Users/jayanthkomarraju/Documents/GitHub/buyananswer.eth/server/contracts/BuyAnAnswer.sol",
  "compiler": {
    "name": "solc",
    "version": "0.8.17+commit.8df45f5f.Emscripten.clang"
  },
  "schemaVersion": "3.4.10",
  "updatedAt": "2022-11-18T01:40:14.608Z",
  "networkType": "ethereum",
  "devdoc": {
    "kind": "dev",
    "methods": {},
    "version": 1
  },
  "userdoc": {
    "kind": "user",
    "methods": {},
    "version": 1
  }
}