{
    "contractName": "BuyAnAnswer",
    "abi": [
        {
            "anonymous": false,
            "inputs": [
                {
                    "components": [
                        {
                            "internalType": "string",
                            "name": "message",
                            "type": "string"
                        },
                        {
                            "internalType": "address payable",
                            "name": "user",
                            "type": "address"
                        },
                        {
                            "internalType": "uint256",
                            "name": "price",
                            "type": "uint256"
                        },
                        {
                            "internalType": "uint256",
                            "name": "timestamp",
                            "type": "uint256"
                        },
                        {
                            "internalType": "string",
                            "name": "boardID",
                            "type": "string"
                        }
                    ],
                    "indexed": false,
                    "internalType": "struct BuyAnAnswer.Question",
                    "name": "question",
                    "type": "tuple"
                },
                {
                    "indexed": false,
                    "internalType": "address payable",
                    "name": "user",
                    "type": "address"
                },
                {
                    "indexed": false,
                    "internalType": "string",
                    "name": "answer",
                    "type": "string"
                },
                {
                    "indexed": false,
                    "internalType": "uint256",
                    "name": "timestamp",
                    "type": "uint256"
                }
            ],
            "name": "AnswerQuestion",
            "type": "event"
        },
        {
            "anonymous": false,
            "inputs": [
                {
                    "indexed": false,
                    "internalType": "string",
                    "name": "message",
                    "type": "string"
                },
                {
                    "indexed": false,
                    "internalType": "address payable",
                    "name": "user",
                    "type": "address"
                },
                {
                    "indexed": false,
                    "internalType": "uint256",
                    "name": "timestamp",
                    "type": "uint256"
                },
                {
                    "indexed": false,
                    "internalType": "uint256",
                    "name": "price",
                    "type": "uint256"
                },
                {
                    "indexed": false,
                    "internalType": "string",
                    "name": "boardID",
                    "type": "string"
                }
            ],
            "name": "AskQuestion",
            "type": "event"
        },
        {
            "anonymous": false,
            "inputs": [
                {
                    "indexed": false,
                    "internalType": "string",
                    "name": "boardID",
                    "type": "string"
                },
                {
                    "indexed": false,
                    "internalType": "address payable",
                    "name": "user",
                    "type": "address"
                },
                {
                    "indexed": false,
                    "internalType": "string",
                    "name": "tagline",
                    "type": "string"
                },
                {
                    "indexed": false,
                    "internalType": "uint256",
                    "name": "timestamp",
                    "type": "uint256"
                }
            ],
            "name": "CreateBoard",
            "type": "event"
        },
        {
            "inputs": [],
            "name": "BuyAnAnswerApp",
            "outputs": [],
            "stateMutability": "nonpayable",
            "type": "function"
        },
        {
            "inputs": [
                {
                    "internalType": "string",
                    "name": "_name",
                    "type": "string"
                }
            ],
            "name": "createUser",
            "outputs": [],
            "stateMutability": "nonpayable",
            "type": "function"
        },
        {
            "inputs": [
                {
                    "internalType": "string",
                    "name": "_boardID",
                    "type": "string"
                },
                {
                    "internalType": "uint256",
                    "name": "_index",
                    "type": "uint256"
                }
            ],
            "name": "getQuestionByIndexForBoard",
            "outputs": [
                {
                    "internalType": "string",
                    "name": "",
                    "type": "string"
                },
                {
                    "internalType": "address",
                    "name": "",
                    "type": "address"
                },
                {
                    "internalType": "uint256",
                    "name": "",
                    "type": "uint256"
                },
                {
                    "internalType": "uint256",
                    "name": "",
                    "type": "uint256"
                }
            ],
            "stateMutability": "view",
            "type": "function"
        },
        {
            "inputs": [
                {
                    "internalType": "string",
                    "name": "_boardID",
                    "type": "string"
                }
            ],
            "name": "getQuestionCountForBoard",
            "outputs": [
                {
                    "internalType": "uint256",
                    "name": "",
                    "type": "uint256"
                }
            ],
            "stateMutability": "view",
            "type": "function"
        },
        {
            "inputs": [
                {
                    "internalType": "address",
                    "name": "_user",
                    "type": "address"
                }
            ],
            "name": "getUsernameForAddress",
            "outputs": [
                {
                    "internalType": "string",
                    "name": "",
                    "type": "string"
                }
            ],
            "stateMutability": "view",
            "type": "function"
        },
        {
            "inputs": [],
            "name": "kill",
            "outputs": [],
            "stateMutability": "nonpayable",
            "type": "function"
        },
        {
            "inputs": [
                {
                    "components": [
                        {
                            "internalType": "string",
                            "name": "message",
                            "type": "string"
                        },
                        {
                            "internalType": "address payable",
                            "name": "user",
                            "type": "address"
                        },
                        {
                            "internalType": "uint256",
                            "name": "price",
                            "type": "uint256"
                        },
                        {
                            "internalType": "uint256",
                            "name": "timestamp",
                            "type": "uint256"
                        },
                        {
                            "internalType": "string",
                            "name": "boardID",
                            "type": "string"
                        }
                    ],
                    "internalType": "struct BuyAnAnswer.Question",
                    "name": "_qst",
                    "type": "tuple"
                },
                {
                    "internalType": "string",
                    "name": "_answer",
                    "type": "string"
                }
            ],
            "name": "sendAnswer",
            "outputs": [],
            "stateMutability": "nonpayable",
            "type": "function"
        },
        {
            "inputs": [
                {
                    "internalType": "string",
                    "name": "_qst",
                    "type": "string"
                },
                {
                    "internalType": "string",
                    "name": "_boardID",
                    "type": "string"
                },
                {
                    "internalType": "uint256",
                    "name": "_prc",
                    "type": "uint256"
                }
            ],
            "name": "sendQuestion",
            "outputs": [],
            "stateMutability": "nonpayable",
            "type": "function"
        }
    ],
    "bytecode": "608060405234801561001057600080fd5b50610f95806100206000396000f3fe608060405234801561001057600080fd5b50600436106100885760003560e01c8063bc00b3881161005b578063bc00b388146100e6578063d1b6c5aa146100fd578063d79d6ffc1461011e578063f00a99341461014157600080fd5b806334bf01cc1461008d57806338302989146100a257806341c0e1b5146100cb578063507ffba5146100d3575b600080fd5b6100a061009b3660046107d8565b610154565b005b6100b56100b0366004610861565b610337565b6040516100c291906108cb565b60405180910390f35b6100a06103e3565b6100a06100e13660046108de565b610407565b6100a0600080546001600160a01b03191633179055565b61011061010b3660046108de565b610421565b6040519081526020016100c2565b61013161012c366004610920565b61044d565b6040516100c2949392919061096c565b6100a061014f3660046109a4565b610614565b3360036101646080860186610a18565b604051610172929190610a5f565b908152604051908190036020019020600101546001600160a01b0316036103325760006040518060800160405280856101aa90610b12565b8152602001336001600160a01b0316815260200184848080601f016020809104026020016040519081016040528093929190818152602001838380828437600092019190915250505090825250426020909101529050600261020f6080860186610a18565b60405161021d929190610a5f565b908152604051602091819003820190208054600181018255600091825291902082518051849360080290920191829081906102589082610c4a565b5060208201516001820180546001600160a01b0319166001600160a01b039092169190911790556040820151600282015560608201516003820155608082015160048201906102a79082610c4a565b50505060208201516005820180546001600160a01b0319166001600160a01b03909216919091179055604082015160068201906102e49082610c4a565b506060820151816007015550507f257ccb0a06a05be2d35b48036fac7aafbbffb963fda4fc54d125f077ed2b80088433858542604051610328959493929190610d79565b60405180910390a1505b505050565b6001600160a01b038116600090815260046020526040902080546060919061035e90610bc2565b80601f016020809104026020016040519081016040528092919081815260200182805461038a90610bc2565b80156103d75780601f106103ac576101008083540402835291602001916103d7565b820191906000526020600020905b8154815290600101906020018083116103ba57829003601f168201915b50505050509050919050565b600054336001600160a01b0390911603610405576000546001600160a01b0316ff5b565b336000908152600460205260409020610332828483610e36565b600060018383604051610435929190610a5f565b90815260405190819003602001902054905092915050565b606060008060008060018888604051610467929190610a5f565b9081526020016040518091039020868154811061048657610486610ef7565b90600052602060002090600502016040518060a00160405290816000820180546104af90610bc2565b80601f01602080910402602001604051908101604052809291908181526020018280546104db90610bc2565b80156105285780601f106104fd57610100808354040283529160200191610528565b820191906000526020600020905b81548152906001019060200180831161050b57829003601f168201915b505050918352505060018201546001600160a01b03166020820152600282015460408201526003820154606082015260048201805460809092019161056c90610bc2565b80601f016020809104026020016040519081016040528092919081815260200182805461059890610bc2565b80156105e55780601f106105ba576101008083540402835291602001916105e5565b820191906000526020600020905b8154815290600101906020018083116105c857829003601f168201915b505050919092525050815160208301516040840151606090940151919c909b5092995097509095505050505050565b6040805160c06020601f8801819004028201810190925260a0810186815260009282919089908990819085018382808284376000920191909152505050908252503360208083019190915260408083018690524260608401528051601f880183900483028101830190915286815260809092019190879087908190840183828082843760009201919091525050509152506040519091506001906106bb9086908690610a5f565b9081526040516020918190038201902080546001810182556000918252919020825183926005029091019081906106f29082610c4a565b5060208201516001820180546001600160a01b0319166001600160a01b039092169190911790556040820151600282015560608201516003820155608082015160048201906107419082610c4a565b5050507f4f0c29090d68aab8b225b96f076f35335fed9d014c6a419308336be48ad306798686334286898960405161077f9796959493929190610f0d565b60405180910390a1505050505050565b60008083601f8401126107a157600080fd5b50813567ffffffffffffffff8111156107b957600080fd5b6020830191508360208285010111156107d157600080fd5b9250929050565b6000806000604084860312156107ed57600080fd5b833567ffffffffffffffff8082111561080557600080fd5b9085019060a0828803121561081957600080fd5b9093506020850135908082111561082f57600080fd5b5061083c8682870161078f565b9497909650939450505050565b6001600160a01b038116811461085e57600080fd5b50565b60006020828403121561087357600080fd5b813561087e81610849565b9392505050565b6000815180845260005b818110156108ab5760208185018101518683018201520161088f565b506000602082860101526020601f19601f83011685010191505092915050565b60208152600061087e6020830184610885565b600080602083850312156108f157600080fd5b823567ffffffffffffffff81111561090857600080fd5b6109148582860161078f565b90969095509350505050565b60008060006040848603121561093557600080fd5b833567ffffffffffffffff81111561094c57600080fd5b6109588682870161078f565b909790965060209590950135949350505050565b60808152600061097f6080830187610885565b6001600160a01b03959095166020830152506040810192909252606090910152919050565b6000806000806000606086880312156109bc57600080fd5b853567ffffffffffffffff808211156109d457600080fd5b6109e089838a0161078f565b909750955060208801359150808211156109f957600080fd5b50610a068882890161078f565b96999598509660400135949350505050565b6000808335601e19843603018112610a2f57600080fd5b83018035915067ffffffffffffffff821115610a4a57600080fd5b6020019150368190038213156107d157600080fd5b8183823760009101908152919050565b634e487b7160e01b600052604160045260246000fd5b600082601f830112610a9657600080fd5b813567ffffffffffffffff80821115610ab157610ab1610a6f565b604051601f8301601f19908116603f01168101908282118183101715610ad957610ad9610a6f565b81604052838152866020858801011115610af257600080fd5b836020870160208301376000602085830101528094505050505092915050565b600060a08236031215610b2457600080fd5b60405160a0810167ffffffffffffffff8282108183111715610b4857610b48610a6f565b816040528435915080821115610b5d57600080fd5b610b6936838701610a85565b835260208501359150610b7b82610849565b81602084015260408501356040840152606085013560608401526080850135915080821115610ba957600080fd5b50610bb636828601610a85565b60808301525092915050565b600181811c90821680610bd657607f821691505b602082108103610bf657634e487b7160e01b600052602260045260246000fd5b50919050565b601f82111561033257600081815260208120601f850160051c81016020861015610c235750805b601f850160051c820191505b81811015610c4257828155600101610c2f565b505050505050565b815167ffffffffffffffff811115610c6457610c64610a6f565b610c7881610c728454610bc2565b84610bfc565b602080601f831160018114610cad5760008415610c955750858301515b600019600386901b1c1916600185901b178555610c42565b600085815260208120601f198616915b82811015610cdc57888601518255948401946001909101908401610cbd565b5085821015610cfa5787850151600019600388901b60f8161c191681555b5050505050600190811b01905550565b6000808335601e19843603018112610d2157600080fd5b830160208101925035905067ffffffffffffffff811115610d4157600080fd5b8036038213156107d157600080fd5b81835281816020850137506000828201602090810191909152601f909101601f19169091010190565b608081526000610d898788610d0a565b60a06080850152610d9f61012085018284610d50565b9150506020880135610db081610849565b6001600160a01b031660a0840152604088013560c0840152606088013560e0840152610ddf6080890189610d0a565b848303607f1901610100860152610df7838284610d50565b92505050610e1060208401886001600160a01b03169052565b8281036040840152610e23818688610d50565b9150508260608301529695505050505050565b67ffffffffffffffff831115610e4e57610e4e610a6f565b610e6283610e5c8354610bc2565b83610bfc565b6000601f841160018114610e965760008515610e7e5750838201355b600019600387901b1c1916600186901b178355610ef0565b600083815260209020601f19861690835b82811015610ec75786850135825560209485019460019092019101610ea7565b5086821015610ee45760001960f88860031b161c19848701351681555b505060018560011b0183555b5050505050565b634e487b7160e01b600052603260045260246000fd5b60a081526000610f2160a08301898b610d50565b6001600160a01b038816602084015260408301879052606083018690528281036080840152610f51818587610d50565b9a995050505050505050505056fea2646970667358221220efa293e0b9fc915b97f4117ecbf8594019dc63a59fc412b3dd8df79ec8cc7c9464736f6c63430008110033",
    "sourcePath": "/Users/jayanthkomarraju/Documents/GitHub/buyananswer.eth/solidity/BuyAnAnswer.sol",
    "compiler": {
        "name": "solc",
        "version": "0.8.17+commit.8df45f5f"
    },
    "functionHashes": {
        "BuyAnAnswerApp()": "bc00b388",
        "createUser(string)": "507ffba5",
        "getQuestionByIndexForBoard(string,uint256)": "d79d6ffc",
        "getQuestionCountForBoard(string)": "d1b6c5aa",
        "getUsernameForAddress(address)": "38302989",
        "kill()": "41c0e1b5",
        "sendAnswer((string,address,uint256,uint256,string),string)": "34bf01cc",
        "sendQuestion(string,string,uint256)": "f00a9934"
    },
    "gasEstimates": {
        "creation": {
            "codeDepositCost": "797800",
            "executionCost": "831",
            "totalCost": "798631"
        },
        "external": {
            "BuyAnAnswerApp()": "24367",
            "createUser(string)": "infinite",
            "getQuestionByIndexForBoard(string,uint256)": "infinite",
            "getQuestionCountForBoard(string)": "infinite",
            "getUsernameForAddress(address)": "infinite",
            "kill()": "32046",
            "sendAnswer((string,address,uint256,uint256,string),string)": "infinite",
            "sendQuestion(string,string,uint256)": "infinite"
        }
    }
}