{
  "contractName": "BuyAnAnswerContract",
  "abi": [
    {
      "inputs": [
        {
          "internalType": "address payable",
          "name": "_feeAddress",
          "type": "address"
        }
      ],
      "stateMutability": "nonpayable",
      "type": "constructor"
    },
    {
      "inputs": [],
      "name": "feeAddress",
      "outputs": [
        {
          "internalType": "address payable",
          "name": "",
          "type": "address"
        }
      ],
      "stateMutability": "view",
      "type": "function",
      "constant": true
    },
    {
      "inputs": [
        {
          "internalType": "uint256",
          "name": "",
          "type": "uint256"
        }
      ],
      "name": "questions",
      "outputs": [
        {
          "internalType": "address payable",
          "name": "asker",
          "type": "address"
        },
        {
          "internalType": "address payable",
          "name": "answerer",
          "type": "address"
        },
        {
          "internalType": "uint256",
          "name": "amount",
          "type": "uint256"
        },
        {
          "internalType": "bool",
          "name": "answered",
          "type": "bool"
        },
        {
          "internalType": "bool",
          "name": "cancelled",
          "type": "bool"
        }
      ],
      "stateMutability": "view",
      "type": "function",
      "constant": true
    },
    {
      "inputs": [
        {
          "internalType": "address payable",
          "name": "_answerer",
          "type": "address"
        },
        {
          "internalType": "uint256",
          "name": "_questionId",
          "type": "uint256"
        }
      ],
      "name": "askQuestion",
      "outputs": [],
      "stateMutability": "payable",
      "type": "function",
      "payable": true
    },
    {
      "inputs": [
        {
          "internalType": "uint256",
          "name": "_questionId",
          "type": "uint256"
        }
      ],
      "name": "answerQuestion",
      "outputs": [],
      "stateMutability": "nonpayable",
      "type": "function"
    },
    {
      "inputs": [
        {
          "internalType": "uint256",
          "name": "_questionId",
          "type": "uint256"
        }
      ],
      "name": "declineQuestion",
      "outputs": [],
      "stateMutability": "nonpayable",
      "type": "function"
    },
    {
      "inputs": [
        {
          "internalType": "uint256",
          "name": "_questionId",
          "type": "uint256"
        }
      ],
      "name": "cancelQuestion",
      "outputs": [],
      "stateMutability": "nonpayable",
      "type": "function"
    }
  ],
  "bytecode": "0x608060405234801561001057600080fd5b5060405161107b38038061107b8339818101604052810190610032919061008d565b806000806101000a81548173ffffffffffffffffffffffffffffffffffffffff021916908373ffffffffffffffffffffffffffffffffffffffff160217905550506100ff565b600081519050610087816100e8565b92915050565b60006020828403121561009f57600080fd5b60006100ad84828501610078565b91505092915050565b60006100c1826100c8565b9050919050565b600073ffffffffffffffffffffffffffffffffffffffff82169050919050565b6100f1816100b6565b81146100fc57600080fd5b50565b610f6d8061010e6000396000f3fe6080604052600436106100555760003560e01c80630b06ed781461005a57806331b1b9781461007657806341275358146100b7578063ad9f8c20146100e2578063aee412c01461010b578063c79ba53214610134575b600080fd5b610074600480360381019061006f91906109bb565b61015d565b005b34801561008257600080fd5b5061009d600480360381019061009891906109f7565b61035a565b6040516100ae959493929190610c80565b60405180910390f35b3480156100c357600080fd5b506100cc6103ea565b6040516100d99190610c65565b60405180910390f35b3480156100ee57600080fd5b50610109600480360381019061010491906109f7565b61040e565b005b34801561011757600080fd5b50610132600480360381019061012d91906109f7565b610633565b005b34801561014057600080fd5b5061015b600480360381019061015691906109f7565b6107be565b005b600034116101a0576040517f08c379a000000000000000000000000000000000000000000000000000000000815260040161019790610cf3565b60405180910390fd5b3373ffffffffffffffffffffffffffffffffffffffff168273ffffffffffffffffffffffffffffffffffffffff16141561020f576040517f08c379a000000000000000000000000000000000000000000000000000000000815260040161020690610d13565b60405180910390fd5b6040518060a001604052803373ffffffffffffffffffffffffffffffffffffffff1681526020018373ffffffffffffffffffffffffffffffffffffffff168152602001348152602001600015158152602001600015158152506001600083815260200190815260200160002060008201518160000160006101000a81548173ffffffffffffffffffffffffffffffffffffffff021916908373ffffffffffffffffffffffffffffffffffffffff16021790555060208201518160010160006101000a81548173ffffffffffffffffffffffffffffffffffffffff021916908373ffffffffffffffffffffffffffffffffffffffff1602179055506040820151816002015560608201518160030160006101000a81548160ff02191690831515021790555060808201518160030160016101000a81548160ff0219169083151502179055509050505050565b60016020528060005260406000206000915090508060000160009054906101000a900473ffffffffffffffffffffffffffffffffffffffff16908060010160009054906101000a900473ffffffffffffffffffffffffffffffffffffffff16908060020154908060030160009054906101000a900460ff16908060030160019054906101000a900460ff16905085565b60008054906101000a900473ffffffffffffffffffffffffffffffffffffffff1681565b60006001600083815260200190815260200160002090508060010160009054906101000a900473ffffffffffffffffffffffffffffffffffffffff1673ffffffffffffffffffffffffffffffffffffffff163373ffffffffffffffffffffffffffffffffffffffff16146104b7576040517f08c379a00000000000000000000000000000000000000000000000000000000081526004016104ae90610cd3565b60405180910390fd5b8060030160019054906101000a900460ff1615610509576040517f08c379a000000000000000000000000000000000000000000000000000000000815260040161050090610d73565b60405180910390fd5b600060646005836002015461051e9190610dd5565b6105289190610da4565b9050600081836002015461053c9190610e2f565b90508260010160009054906101000a900473ffffffffffffffffffffffffffffffffffffffff1673ffffffffffffffffffffffffffffffffffffffff166108fc829081150290604051600060405180830381858888f193505050501580156105a8573d6000803e3d6000fd5b5060008054906101000a900473ffffffffffffffffffffffffffffffffffffffff1673ffffffffffffffffffffffffffffffffffffffff166108fc839081150290604051600060405180830381858888f1935050505015801561060f573d6000803e3d6000fd5b5060018360030160006101000a81548160ff02191690831515021790555050505050565b60006001600083815260200190815260200160002090508060010160009054906101000a900473ffffffffffffffffffffffffffffffffffffffff1673ffffffffffffffffffffffffffffffffffffffff163373ffffffffffffffffffffffffffffffffffffffff16146106dc576040517f08c379a00000000000000000000000000000000000000000000000000000000081526004016106d390610d33565b60405180910390fd5b8060030160019054906101000a900460ff161561072e576040517f08c379a000000000000000000000000000000000000000000000000000000000815260040161072590610d73565b60405180910390fd5b8060000160009054906101000a900473ffffffffffffffffffffffffffffffffffffffff1673ffffffffffffffffffffffffffffffffffffffff166108fc82600201549081150290604051600060405180830381858888f1935050505015801561079c573d6000803e3d6000fd5b5060018160030160006101000a81548160ff0219169083151502179055505050565b60006001600083815260200190815260200160002090508060000160009054906101000a900473ffffffffffffffffffffffffffffffffffffffff1673ffffffffffffffffffffffffffffffffffffffff163373ffffffffffffffffffffffffffffffffffffffff1614610867576040517f08c379a000000000000000000000000000000000000000000000000000000000815260040161085e90610d53565b60405180910390fd5b600060646002836002015461087c9190610dd5565b6108869190610da4565b9050600081836002015461089a9190610e2f565b90508260000160009054906101000a900473ffffffffffffffffffffffffffffffffffffffff1673ffffffffffffffffffffffffffffffffffffffff166108fc829081150290604051600060405180830381858888f19350505050158015610906573d6000803e3d6000fd5b5060008054906101000a900473ffffffffffffffffffffffffffffffffffffffff1673ffffffffffffffffffffffffffffffffffffffff166108fc839081150290604051600060405180830381858888f1935050505015801561096d573d6000803e3d6000fd5b5060018360030160016101000a81548160ff02191690831515021790555050505050565b6000813590506109a081610f09565b92915050565b6000813590506109b581610f20565b92915050565b600080604083850312156109ce57600080fd5b60006109dc85828601610991565b92505060206109ed858286016109a6565b9150509250929050565b600060208284031215610a0957600080fd5b6000610a17848285016109a6565b91505092915050565b610a2981610e63565b82525050565b610a3881610e75565b82525050565b6000610a4b602a83610d93565b91507f4f6e6c792073656c656374656420757365722063616e20616e7377657220746860008301527f65207175657374696f6e000000000000000000000000000000000000000000006020830152604082019050919050565b6000610ab1601f83610d93565b91507f416d6f756e742073686f756c642062652067726561746572207468616e2030006000830152602082019050919050565b6000610af1602383610d93565b91507f596f752063616e6e6f742061736b207175657374696f6e20746f20796f75727360008301527f656c6600000000000000000000000000000000000000000000000000000000006020830152604082019050919050565b6000610b57602b83610d93565b91507f4f6e6c792073656c656374656420757365722063616e206465636c696e65207460008301527f6865207175657374696f6e0000000000000000000000000000000000000000006020830152604082019050919050565b6000610bbd602283610d93565b91507f4f6e6c792061736b65722063616e2063616e63656c207468652071756573746960008301527f6f6e0000000000000000000000000000000000000000000000000000000000006020830152604082019050919050565b6000610c23601f83610d93565b91507f546865207175657374696f6e20686173206265656e2063616e63656c6c6564006000830152602082019050919050565b610c5f81610ea1565b82525050565b6000602082019050610c7a6000830184610a20565b92915050565b600060a082019050610c956000830188610a20565b610ca26020830187610a20565b610caf6040830186610c56565b610cbc6060830185610a2f565b610cc96080830184610a2f565b9695505050505050565b60006020820190508181036000830152610cec81610a3e565b9050919050565b60006020820190508181036000830152610d0c81610aa4565b9050919050565b60006020820190508181036000830152610d2c81610ae4565b9050919050565b60006020820190508181036000830152610d4c81610b4a565b9050919050565b60006020820190508181036000830152610d6c81610bb0565b9050919050565b60006020820190508181036000830152610d8c81610c16565b9050919050565b600082825260208201905092915050565b6000610daf82610ea1565b9150610dba83610ea1565b925082610dca57610dc9610eda565b5b828204905092915050565b6000610de082610ea1565b9150610deb83610ea1565b9250817fffffffffffffffffffffffffffffffffffffffffffffffffffffffffffffffff0483118215151615610e2457610e23610eab565b5b828202905092915050565b6000610e3a82610ea1565b9150610e4583610ea1565b925082821015610e5857610e57610eab565b5b828203905092915050565b6000610e6e82610e81565b9050919050565b60008115159050919050565b600073ffffffffffffffffffffffffffffffffffffffff82169050919050565b6000819050919050565b7f4e487b7100000000000000000000000000000000000000000000000000000000600052601160045260246000fd5b7f4e487b7100000000000000000000000000000000000000000000000000000000600052601260045260246000fd5b610f1281610e63565b8114610f1d57600080fd5b50565b610f2981610ea1565b8114610f3457600080fd5b5056fea2646970667358221220f06b9e4e576337d74ea1801e42b6e5b670816d5dc33a3c6474a180ff29911d1264736f6c63430008000033",
  "immutableReferences": {},
  "source": "// SPDX-License-Identifier: MIT \n\npragma solidity ^0.8.0;\n\ncontract BuyAnAnswerContract {\n    address payable public feeAddress;\n    \n    struct Question {\n        address payable asker;\n        address payable answerer;\n        uint256 amount;\n        bool answered;\n        bool cancelled;\n    }\n\n    mapping(uint256 => Question) public questions;\n\n    constructor(address payable _feeAddress) {\n        feeAddress = _feeAddress;\n    }\n\n    function askQuestion(address payable _answerer, uint256 _questionId) external payable {\n        require(msg.value > 0, \"Amount should be greater than 0\");\n        require(_answerer != msg.sender, \"You cannot ask question to yourself\");\n        questions[_questionId] = Question(payable(msg.sender), _answerer, msg.value, false, false);\n    }\n\n    function answerQuestion(uint256 _questionId) external {\n        Question storage question = questions[_questionId];\n        require(msg.sender == question.answerer, \"Only selected user can answer the question\");\n        require(!question.cancelled, \"The question has been cancelled\");\n        \n        uint256 fee = question.amount * 5 / 100;  // Calculate 5% fee\n        uint256 payout = question.amount - fee;   // Calculate payout\n\n        question.answerer.transfer(payout);\n        feeAddress.transfer(fee);\n\n        question.answered = true;\n    }\n\n    function declineQuestion(uint256 _questionId) external {\n        Question storage question = questions[_questionId];\n        require(msg.sender == question.answerer, \"Only selected user can decline the question\");\n        require(!question.cancelled, \"The question has been cancelled\");\n\n        question.asker.transfer(question.amount);\n\n        question.answered = true;\n    }\n\n    function cancelQuestion(uint256 _questionId) external {\n        Question storage question = questions[_questionId];\n        require(msg.sender == question.asker, \"Only asker can cancel the question\");\n\n        uint256 fee = question.amount * 2 / 100;  // Calculate 2% fee\n        uint256 refund = question.amount - fee;   // Calculate refund\n\n        question.asker.transfer(refund);\n        feeAddress.transfer(fee);\n\n        question.cancelled = true;\n    }\n}\n",
  "sourcePath": "/Users/jayanthkomarraju/Documents/GitHub/buyananswer.eth/client/contracts/BuyAnAnswerContract.sol",
  "compiler": {
    "name": "solc",
    "version": "0.8.0+commit.c7dfd78e.Emscripten.clang"
  },
  "schemaVersion": "3.2.3",
  "updatedAt": "2023-05-24T01:59:57.105Z",
  "networkType": "ethereum",
  "devdoc": {
    "kind": "dev",
    "methods": {},
    "version": 1
  },
  "userdoc": {
    "kind": "user",
    "methods": {},
    "version": 1
  }
}