{
  "contractName": "BuyAnAnswerContract",
  "abi": [
    {
      "inputs": [
        {
          "internalType": "address payable",
          "name": "_feeAddress",
          "type": "address"
        }
      ],
      "stateMutability": "nonpayable",
      "type": "constructor"
    },
    {
      "inputs": [],
      "name": "feeAddress",
      "outputs": [
        {
          "internalType": "address payable",
          "name": "",
          "type": "address"
        }
      ],
      "stateMutability": "view",
      "type": "function"
    },
    {
      "inputs": [
        {
          "internalType": "string",
          "name": "",
          "type": "string"
        }
      ],
      "name": "firebaseDocIdToQuestionId",
      "outputs": [
        {
          "internalType": "uint256",
          "name": "",
          "type": "uint256"
        }
      ],
      "stateMutability": "view",
      "type": "function"
    },
    {
      "inputs": [],
      "name": "latestQuestionId",
      "outputs": [
        {
          "internalType": "uint256",
          "name": "",
          "type": "uint256"
        }
      ],
      "stateMutability": "view",
      "type": "function"
    },
    {
      "inputs": [
        {
          "internalType": "uint256",
          "name": "",
          "type": "uint256"
        }
      ],
      "name": "questions",
      "outputs": [
        {
          "internalType": "address payable",
          "name": "asker",
          "type": "address"
        },
        {
          "internalType": "address payable",
          "name": "answerer",
          "type": "address"
        },
        {
          "internalType": "uint256",
          "name": "amount",
          "type": "uint256"
        },
        {
          "internalType": "bool",
          "name": "answered",
          "type": "bool"
        },
        {
          "internalType": "bool",
          "name": "cancelled",
          "type": "bool"
        }
      ],
      "stateMutability": "view",
      "type": "function"
    },
    {
      "inputs": [
        {
          "internalType": "string",
          "name": "firebaseDocId",
          "type": "string"
        },
        {
          "internalType": "address payable",
          "name": "_answerer",
          "type": "address"
        }
      ],
      "name": "askQuestion",
      "outputs": [],
      "stateMutability": "payable",
      "type": "function"
    },
    {
      "inputs": [
        {
          "internalType": "string",
          "name": "firebaseDocId",
          "type": "string"
        }
      ],
      "name": "answerQuestion",
      "outputs": [],
      "stateMutability": "nonpayable",
      "type": "function"
    },
    {
      "inputs": [
        {
          "internalType": "string",
          "name": "firebaseDocId",
          "type": "string"
        }
      ],
      "name": "declineQuestion",
      "outputs": [],
      "stateMutability": "nonpayable",
      "type": "function"
    },
    {
      "inputs": [
        {
          "internalType": "string",
          "name": "firebaseDocId",
          "type": "string"
        }
      ],
      "name": "cancelQuestion",
      "outputs": [],
      "stateMutability": "nonpayable",
      "type": "function"
    }
  ],
  "bytecode": "0x60806040523480156200001157600080fd5b506040516200144c3803806200144c833981810160405281019062000037919062000095565b806000806101000a81548173ffffffffffffffffffffffffffffffffffffffff021916908373ffffffffffffffffffffffffffffffffffffffff160217905550506200010f565b6000815190506200008f81620000f5565b92915050565b600060208284031215620000a857600080fd5b6000620000b8848285016200007e565b91505092915050565b6000620000ce82620000d5565b9050919050565b600073ffffffffffffffffffffffffffffffffffffffff82169050919050565b6200010081620000c1565b81146200010c57600080fd5b50565b61132d806200011f6000396000f3fe60806040526004361061007b5760003560e01c80636995f2c91161004e5780636995f2c914610145578063c4d0e2f61461016e578063ed24219e14610197578063f4dbe94b146101c25761007b565b8063149754c614610080578063254d63d31461009c57806331b1b978146100d9578063412753581461011a575b600080fd5b61009a60048036038101906100959190610bcf565b6101eb565b005b3480156100a857600080fd5b506100c360048036038101906100be9190610b8e565b610425565b6040516100d09190611007565b60405180910390f35b3480156100e557600080fd5b5061010060048036038101906100fb9190610c23565b610453565b604051610111959493929190610ef4565b60405180910390f35b34801561012657600080fd5b5061012f6104e3565b60405161013c9190610ed9565b60405180910390f35b34801561015157600080fd5b5061016c60048036038101906101679190610b8e565b610507565b005b34801561017a57600080fd5b5061019560048036038101906101909190610b8e565b610750565b005b3480156101a357600080fd5b506101ac6108ff565b6040516101b99190611007565b60405180910390f35b3480156101ce57600080fd5b506101e960048036038101906101e49190610b8e565b610905565b005b6000341161022e576040517f08c379a000000000000000000000000000000000000000000000000000000000815260040161022590610f67565b60405180910390fd5b3373ffffffffffffffffffffffffffffffffffffffff168173ffffffffffffffffffffffffffffffffffffffff16141561029d576040517f08c379a000000000000000000000000000000000000000000000000000000000815260040161029490610f87565b60405180910390fd5b60006001600081546102ae906111f3565b9190508190559050806002846040516102c79190610ec2565b9081526020016040518091039020819055506040518060a001604052803373ffffffffffffffffffffffffffffffffffffffff1681526020018373ffffffffffffffffffffffffffffffffffffffff168152602001348152602001600015158152602001600015158152506003600083815260200190815260200160002060008201518160000160006101000a81548173ffffffffffffffffffffffffffffffffffffffff021916908373ffffffffffffffffffffffffffffffffffffffff16021790555060208201518160010160006101000a81548173ffffffffffffffffffffffffffffffffffffffff021916908373ffffffffffffffffffffffffffffffffffffffff1602179055506040820151816002015560608201518160030160006101000a81548160ff02191690831515021790555060808201518160030160016101000a81548160ff021916908315150217905550905050505050565b6002818051602081018201805184825260208301602085012081835280955050505050506000915090505481565b60036020528060005260406000206000915090508060000160009054906101000a900473ffffffffffffffffffffffffffffffffffffffff16908060010160009054906101000a900473ffffffffffffffffffffffffffffffffffffffff16908060020154908060030160009054906101000a900460ff16908060030160019054906101000a900460ff16905085565b60008054906101000a900473ffffffffffffffffffffffffffffffffffffffff1681565b60006002826040516105199190610ec2565b908152602001604051809103902054905060006003600083815260200190815260200160002090508060010160009054906101000a900473ffffffffffffffffffffffffffffffffffffffff1673ffffffffffffffffffffffffffffffffffffffff163373ffffffffffffffffffffffffffffffffffffffff16146105d3576040517f08c379a00000000000000000000000000000000000000000000000000000000081526004016105ca90610f47565b60405180910390fd5b8060030160019054906101000a900460ff1615610625576040517f08c379a000000000000000000000000000000000000000000000000000000000815260040161061c90610fe7565b60405180910390fd5b600060646005836002015461063a91906110db565b61064491906110aa565b905060008183600201546106589190611135565b90508260010160009054906101000a900473ffffffffffffffffffffffffffffffffffffffff1673ffffffffffffffffffffffffffffffffffffffff166108fc829081150290604051600060405180830381858888f193505050501580156106c4573d6000803e3d6000fd5b5060008054906101000a900473ffffffffffffffffffffffffffffffffffffffff1673ffffffffffffffffffffffffffffffffffffffff166108fc839081150290604051600060405180830381858888f1935050505015801561072b573d6000803e3d6000fd5b5060018360030160006101000a81548160ff0219169083151502179055505050505050565b60006002826040516107629190610ec2565b908152602001604051809103902054905060006003600083815260200190815260200160002090508060010160009054906101000a900473ffffffffffffffffffffffffffffffffffffffff1673ffffffffffffffffffffffffffffffffffffffff163373ffffffffffffffffffffffffffffffffffffffff161461081c576040517f08c379a000000000000000000000000000000000000000000000000000000000815260040161081390610fa7565b60405180910390fd5b8060030160019054906101000a900460ff161561086e576040517f08c379a000000000000000000000000000000000000000000000000000000000815260040161086590610fe7565b60405180910390fd5b8060000160009054906101000a900473ffffffffffffffffffffffffffffffffffffffff1673ffffffffffffffffffffffffffffffffffffffff166108fc82600201549081150290604051600060405180830381858888f193505050501580156108dc573d6000803e3d6000fd5b5060018160030160006101000a81548160ff021916908315150217905550505050565b60015481565b60006002826040516109179190610ec2565b908152602001604051809103902054905060006003600083815260200190815260200160002090508060000160009054906101000a900473ffffffffffffffffffffffffffffffffffffffff1673ffffffffffffffffffffffffffffffffffffffff163373ffffffffffffffffffffffffffffffffffffffff16146109d1576040517f08c379a00000000000000000000000000000000000000000000000000000000081526004016109c890610fc7565b60405180910390fd5b60006064600283600201546109e691906110db565b6109f091906110aa565b90506000818360020154610a049190611135565b90508260000160009054906101000a900473ffffffffffffffffffffffffffffffffffffffff1673ffffffffffffffffffffffffffffffffffffffff166108fc829081150290604051600060405180830381858888f19350505050158015610a70573d6000803e3d6000fd5b5060008054906101000a900473ffffffffffffffffffffffffffffffffffffffff1673ffffffffffffffffffffffffffffffffffffffff166108fc839081150290604051600060405180830381858888f19350505050158015610ad7573d6000803e3d6000fd5b5060018360030160016101000a81548160ff0219169083151502179055505050505050565b6000610b0f610b0a84611053565b611022565b905082815260208101848484011115610b2757600080fd5b610b328482856111b1565b509392505050565b600081359050610b49816112c9565b92915050565b600082601f830112610b6057600080fd5b8135610b70848260208601610afc565b91505092915050565b600081359050610b88816112e0565b92915050565b600060208284031215610ba057600080fd5b600082013567ffffffffffffffff811115610bba57600080fd5b610bc684828501610b4f565b91505092915050565b60008060408385031215610be257600080fd5b600083013567ffffffffffffffff811115610bfc57600080fd5b610c0885828601610b4f565b9250506020610c1985828601610b3a565b9150509250929050565b600060208284031215610c3557600080fd5b6000610c4384828501610b79565b91505092915050565b610c5581611169565b82525050565b610c648161117b565b82525050565b6000610c7582611083565b610c7f818561109f565b9350610c8f8185602086016111c0565b80840191505092915050565b6000610ca8602a8361108e565b91507f4f6e6c792073656c656374656420757365722063616e20616e7377657220746860008301527f65207175657374696f6e000000000000000000000000000000000000000000006020830152604082019050919050565b6000610d0e601f8361108e565b91507f416d6f756e742073686f756c642062652067726561746572207468616e2030006000830152602082019050919050565b6000610d4e60238361108e565b91507f596f752063616e6e6f742061736b207175657374696f6e20746f20796f75727360008301527f656c6600000000000000000000000000000000000000000000000000000000006020830152604082019050919050565b6000610db4602b8361108e565b91507f4f6e6c792073656c656374656420757365722063616e206465636c696e65207460008301527f6865207175657374696f6e0000000000000000000000000000000000000000006020830152604082019050919050565b6000610e1a60228361108e565b91507f4f6e6c792061736b65722063616e2063616e63656c207468652071756573746960008301527f6f6e0000000000000000000000000000000000000000000000000000000000006020830152604082019050919050565b6000610e80601f8361108e565b91507f546865207175657374696f6e20686173206265656e2063616e63656c6c6564006000830152602082019050919050565b610ebc816111a7565b82525050565b6000610ece8284610c6a565b915081905092915050565b6000602082019050610eee6000830184610c4c565b92915050565b600060a082019050610f096000830188610c4c565b610f166020830187610c4c565b610f236040830186610eb3565b610f306060830185610c5b565b610f3d6080830184610c5b565b9695505050505050565b60006020820190508181036000830152610f6081610c9b565b9050919050565b60006020820190508181036000830152610f8081610d01565b9050919050565b60006020820190508181036000830152610fa081610d41565b9050919050565b60006020820190508181036000830152610fc081610da7565b9050919050565b60006020820190508181036000830152610fe081610e0d565b9050919050565b6000602082019050818103600083015261100081610e73565b9050919050565b600060208201905061101c6000830184610eb3565b92915050565b6000604051905081810181811067ffffffffffffffff821117156110495761104861129a565b5b8060405250919050565b600067ffffffffffffffff82111561106e5761106d61129a565b5b601f19601f8301169050602081019050919050565b600081519050919050565b600082825260208201905092915050565b600081905092915050565b60006110b5826111a7565b91506110c0836111a7565b9250826110d0576110cf61126b565b5b828204905092915050565b60006110e6826111a7565b91506110f1836111a7565b9250817fffffffffffffffffffffffffffffffffffffffffffffffffffffffffffffffff048311821515161561112a5761112961123c565b5b828202905092915050565b6000611140826111a7565b915061114b836111a7565b92508282101561115e5761115d61123c565b5b828203905092915050565b600061117482611187565b9050919050565b60008115159050919050565b600073ffffffffffffffffffffffffffffffffffffffff82169050919050565b6000819050919050565b82818337600083830152505050565b60005b838110156111de5780820151818401526020810190506111c3565b838111156111ed576000848401525b50505050565b60006111fe826111a7565b91507fffffffffffffffffffffffffffffffffffffffffffffffffffffffffffffffff8214156112315761123061123c565b5b600182019050919050565b7f4e487b7100000000000000000000000000000000000000000000000000000000600052601160045260246000fd5b7f4e487b7100000000000000000000000000000000000000000000000000000000600052601260045260246000fd5b7f4e487b7100000000000000000000000000000000000000000000000000000000600052604160045260246000fd5b6112d281611169565b81146112dd57600080fd5b50565b6112e9816111a7565b81146112f457600080fd5b5056fea2646970667358221220d93ef7fa9c2e24a1764f7ee3109ce6376234a1300f9e9058b79547bc73e2060164736f6c63430008000033",
  "immutableReferences": {},
  "source": "// SPDX-License-Identifier: MIT \n\npragma solidity ^0.8.0;\n\ncontract BuyAnAnswerContract {\n    address payable public feeAddress;\n    \n    struct Question {\n        address payable asker;\n        address payable answerer;\n        uint256 amount;\n        bool answered;\n        bool cancelled;\n    }\n\n    uint256 public latestQuestionId; // A counter to assign unique ids to questions.\n    mapping(string => uint256) public firebaseDocIdToQuestionId; // A mapping from Firebase document id to question id.\n    mapping(uint256 => Question) public questions; // A mapping from question id to Question struct.\n\n    constructor(address payable _feeAddress) {\n        feeAddress = _feeAddress;\n    }\n\n    function askQuestion(string memory firebaseDocId, address payable _answerer) external payable {\n        require(msg.value > 0, \"Amount should be greater than 0\");\n        require(_answerer != msg.sender, \"You cannot ask question to yourself\");\n\n        // Assign a unique id to the question and increment the counter.\n        uint256 questionId = ++latestQuestionId;\n\n        // Store the mapping from Firebase document id to question id.\n        firebaseDocIdToQuestionId[firebaseDocId] = questionId;\n\n        // Store the question.\n        questions[questionId] = Question(payable(msg.sender), _answerer, msg.value, false, false);\n    }\n\n    function answerQuestion(string memory firebaseDocId) external {\n        uint256 questionId = firebaseDocIdToQuestionId[firebaseDocId];\n        Question storage question = questions[questionId];\n        require(msg.sender == question.answerer, \"Only selected user can answer the question\");\n        require(!question.cancelled, \"The question has been cancelled\");\n        \n        uint256 fee = question.amount * 5 / 100;  // Calculate 5% fee\n        uint256 payout = question.amount - fee;   // Calculate payout\n\n        question.answerer.transfer(payout);\n        feeAddress.transfer(fee);\n\n        question.answered = true;\n    }\n\n    function declineQuestion(string memory firebaseDocId) external {\n        uint256 questionId = firebaseDocIdToQuestionId[firebaseDocId];\n        Question storage question = questions[questionId];\n        require(msg.sender == question.answerer, \"Only selected user can decline the question\");\n        require(!question.cancelled, \"The question has been cancelled\");\n\n        question.asker.transfer(question.amount);\n\n        question.answered = true;\n    }\n\n    function cancelQuestion(string memory firebaseDocId) external {\n        uint256 questionId = firebaseDocIdToQuestionId[firebaseDocId];\n        Question storage question = questions[questionId];\n        require(msg.sender == question.asker, \"Only asker can cancel the question\");\n\n        uint256 fee = question.amount * 2 / 100;  // Calculate 2% fee\n        uint256 refund = question.amount - fee;   // Calculate refund\n\n        question.asker.transfer(refund);\n        feeAddress.transfer(fee);\n\n        question.cancelled = true;\n    }\n}\n",
  "sourcePath": "/Users/jayanthkomarraju/Documents/GitHub/buyananswer.eth/client/contracts/BuyAnAnswerContract.sol",
  "compiler": {
    "name": "solc",
    "version": "0.8.0+commit.c7dfd78e.Emscripten.clang"
  },
  "schemaVersion": "3.2.3",
  "updatedAt": "2023-05-24T13:35:14.722Z",
  "devdoc": {
    "kind": "dev",
    "methods": {},
    "version": 1
  },
  "userdoc": {
    "kind": "user",
    "methods": {},
    "version": 1
  }
}