{
  "contractName": "BuyAnAnswerContract",
  "abi": [
    {
      "inputs": [
        {
          "internalType": "address payable",
          "name": "_feeAddress",
          "type": "address"
        }
      ],
      "stateMutability": "nonpayable",
      "type": "constructor"
    },
    {
      "anonymous": false,
      "inputs": [
        {
          "indexed": false,
          "internalType": "uint256",
          "name": "questionId",
          "type": "uint256"
        },
        {
          "indexed": false,
          "internalType": "string",
          "name": "firebaseDocId",
          "type": "string"
        },
        {
          "indexed": false,
          "internalType": "address",
          "name": "answerer",
          "type": "address"
        }
      ],
      "name": "QuestionAnswered",
      "type": "event"
    },
    {
      "anonymous": false,
      "inputs": [
        {
          "indexed": false,
          "internalType": "uint256",
          "name": "questionId",
          "type": "uint256"
        },
        {
          "indexed": false,
          "internalType": "string",
          "name": "firebaseDocId",
          "type": "string"
        },
        {
          "indexed": false,
          "internalType": "address",
          "name": "asker",
          "type": "address"
        },
        {
          "indexed": false,
          "internalType": "address",
          "name": "answerer",
          "type": "address"
        },
        {
          "indexed": false,
          "internalType": "uint128",
          "name": "amount",
          "type": "uint128"
        }
      ],
      "name": "QuestionAsked",
      "type": "event"
    },
    {
      "anonymous": false,
      "inputs": [
        {
          "indexed": false,
          "internalType": "uint256",
          "name": "questionId",
          "type": "uint256"
        },
        {
          "indexed": false,
          "internalType": "string",
          "name": "firebaseDocId",
          "type": "string"
        },
        {
          "indexed": false,
          "internalType": "address",
          "name": "asker",
          "type": "address"
        }
      ],
      "name": "QuestionCancelled",
      "type": "event"
    },
    {
      "anonymous": false,
      "inputs": [
        {
          "indexed": false,
          "internalType": "uint256",
          "name": "questionId",
          "type": "uint256"
        },
        {
          "indexed": false,
          "internalType": "string",
          "name": "firebaseDocId",
          "type": "string"
        },
        {
          "indexed": false,
          "internalType": "address",
          "name": "answerer",
          "type": "address"
        }
      ],
      "name": "QuestionDeclined",
      "type": "event"
    },
    {
      "inputs": [],
      "name": "feeAddress",
      "outputs": [
        {
          "internalType": "address payable",
          "name": "",
          "type": "address"
        }
      ],
      "stateMutability": "view",
      "type": "function",
      "constant": true
    },
    {
      "inputs": [
        {
          "internalType": "string",
          "name": "",
          "type": "string"
        }
      ],
      "name": "firebaseDocIdToQuestionId",
      "outputs": [
        {
          "internalType": "uint256",
          "name": "",
          "type": "uint256"
        }
      ],
      "stateMutability": "view",
      "type": "function",
      "constant": true
    },
    {
      "inputs": [],
      "name": "latestQuestionId",
      "outputs": [
        {
          "internalType": "uint256",
          "name": "",
          "type": "uint256"
        }
      ],
      "stateMutability": "view",
      "type": "function",
      "constant": true
    },
    {
      "inputs": [
        {
          "internalType": "uint256",
          "name": "",
          "type": "uint256"
        }
      ],
      "name": "questions",
      "outputs": [
        {
          "internalType": "address payable",
          "name": "asker",
          "type": "address"
        },
        {
          "internalType": "address payable",
          "name": "answerer",
          "type": "address"
        },
        {
          "internalType": "uint128",
          "name": "amount",
          "type": "uint128"
        },
        {
          "internalType": "bool",
          "name": "answered",
          "type": "bool"
        },
        {
          "internalType": "bool",
          "name": "cancelled",
          "type": "bool"
        }
      ],
      "stateMutability": "view",
      "type": "function",
      "constant": true
    },
    {
      "inputs": [
        {
          "internalType": "string",
          "name": "firebaseDocId",
          "type": "string"
        },
        {
          "internalType": "address payable",
          "name": "_answerer",
          "type": "address"
        }
      ],
      "name": "askQuestion",
      "outputs": [],
      "stateMutability": "payable",
      "type": "function",
      "payable": true
    },
    {
      "inputs": [
        {
          "internalType": "string",
          "name": "firebaseDocId",
          "type": "string"
        }
      ],
      "name": "answerQuestion",
      "outputs": [],
      "stateMutability": "nonpayable",
      "type": "function"
    },
    {
      "inputs": [
        {
          "internalType": "string",
          "name": "firebaseDocId",
          "type": "string"
        }
      ],
      "name": "declineQuestion",
      "outputs": [],
      "stateMutability": "nonpayable",
      "type": "function"
    },
    {
      "inputs": [
        {
          "internalType": "string",
          "name": "firebaseDocId",
          "type": "string"
        }
      ],
      "name": "cancelQuestion",
      "outputs": [],
      "stateMutability": "nonpayable",
      "type": "function"
    }
  ],
  "bytecode": "0x60806040523480156200001157600080fd5b506040516200183f3803806200183f833981810160405281019062000037919062000095565b806000806101000a81548173ffffffffffffffffffffffffffffffffffffffff021916908373ffffffffffffffffffffffffffffffffffffffff160217905550506200010f565b6000815190506200008f81620000f5565b92915050565b600060208284031215620000a857600080fd5b6000620000b8848285016200007e565b91505092915050565b6000620000ce82620000d5565b9050919050565b600073ffffffffffffffffffffffffffffffffffffffff82169050919050565b6200010081620000c1565b81146200010c57600080fd5b50565b611720806200011f6000396000f3fe60806040526004361061007b5760003560e01c80636995f2c91161004e5780636995f2c914610145578063c4d0e2f61461016e578063ed24219e14610197578063f4dbe94b146101c25761007b565b8063149754c614610080578063254d63d31461009c57806331b1b978146100d9578063412753581461011a575b600080fd5b61009a60048036038101906100959190610e6a565b6101eb565b005b3480156100a857600080fd5b506100c360048036038101906100be9190610ec2565b6104b0565b6040516100d09190611337565b60405180910390f35b3480156100e557600080fd5b5061010060048036038101906100fb9190610f03565b6104de565b604051610111959493929190611224565b60405180910390f35b34801561012657600080fd5b5061012f61058a565b60405161013c9190611209565b60405180910390f35b34801561015157600080fd5b5061016c60048036038101906101679190610e25565b6105ae565b005b34801561017a57600080fd5b5061019560048036038101906101909190610e25565b610893565b005b3480156101a357600080fd5b506101ac610ab0565b6040516101b99190611337565b60405180910390f35b3480156101ce57600080fd5b506101e960048036038101906101e49190610e25565b610ab6565b005b6000341161022e576040517f08c379a000000000000000000000000000000000000000000000000000000000815260040161022590611297565b60405180910390fd5b3373ffffffffffffffffffffffffffffffffffffffff168173ffffffffffffffffffffffffffffffffffffffff16141561029d576040517f08c379a0000000000000000000000000000000000000000000000000000000008152600401610294906112b7565b60405180910390fd5b60006001600081546102ae906115d5565b919050819055905080600285856040516102c99291906111f0565b9081526020016040518091039020819055506040518060a001604052803373ffffffffffffffffffffffffffffffffffffffff1681526020018373ffffffffffffffffffffffffffffffffffffffff168152602001346fffffffffffffffffffffffffffffffff168152602001600015158152602001600015158152506003600083815260200190815260200160002060008201518160000160006101000a81548173ffffffffffffffffffffffffffffffffffffffff021916908373ffffffffffffffffffffffffffffffffffffffff16021790555060208201518160010160006101000a81548173ffffffffffffffffffffffffffffffffffffffff021916908373ffffffffffffffffffffffffffffffffffffffff16021790555060408201518160020160006101000a8154816fffffffffffffffffffffffffffffffff02191690836fffffffffffffffffffffffffffffffff16021790555060608201518160020160106101000a81548160ff02191690831515021790555060808201518160020160116101000a81548160ff0219169083151502179055509050507fab21ea850ce67cc770fb0be921f28d5fa886a37bd23d996d4433d95fdfde5ef98185853386346040516104a296959493929190611392565b60405180910390a150505050565b6002818051602081018201805184825260208301602085012081835280955050505050506000915090505481565b60036020528060005260406000206000915090508060000160009054906101000a900473ffffffffffffffffffffffffffffffffffffffff16908060010160009054906101000a900473ffffffffffffffffffffffffffffffffffffffff16908060020160009054906101000a90046fffffffffffffffffffffffffffffffff16908060020160109054906101000a900460ff16908060020160119054906101000a900460ff16905085565b60008054906101000a900473ffffffffffffffffffffffffffffffffffffffff1681565b6000600283836040516105c29291906111f0565b908152602001604051809103902054905060006003600083815260200190815260200160002090508060010160009054906101000a900473ffffffffffffffffffffffffffffffffffffffff1673ffffffffffffffffffffffffffffffffffffffff163373ffffffffffffffffffffffffffffffffffffffff161461067c576040517f08c379a000000000000000000000000000000000000000000000000000000000815260040161067390611277565b60405180910390fd5b8060020160119054906101000a900460ff16156106ce576040517f08c379a00000000000000000000000000000000000000000000000000000000081526004016106c590611317565b60405180910390fd5b6000606460058360020160009054906101000a90046fffffffffffffffffffffffffffffffff166106ff919061149c565b610709919061146b565b90506000818360020160009054906101000a90046fffffffffffffffffffffffffffffffff1661073991906114e6565b90508260010160009054906101000a900473ffffffffffffffffffffffffffffffffffffffff1673ffffffffffffffffffffffffffffffffffffffff166108fc826fffffffffffffffffffffffffffffffff169081150290604051600060405180830381858888f193505050501580156107b7573d6000803e3d6000fd5b5060008054906101000a900473ffffffffffffffffffffffffffffffffffffffff1673ffffffffffffffffffffffffffffffffffffffff166108fc836fffffffffffffffffffffffffffffffff169081150290604051600060405180830381858888f19350505050158015610830573d6000803e3d6000fd5b5060018360020160106101000a81548160ff0219169083151502179055507f9bcbfe3a5359765cdbf7ba4ef2b0494209f6d1481381e7729a1a4db63364a0d6848787336040516108839493929190611352565b60405180910390a1505050505050565b6000600283836040516108a79291906111f0565b908152602001604051809103902054905060006003600083815260200190815260200160002090508060010160009054906101000a900473ffffffffffffffffffffffffffffffffffffffff1673ffffffffffffffffffffffffffffffffffffffff163373ffffffffffffffffffffffffffffffffffffffff1614610961576040517f08c379a0000000000000000000000000000000000000000000000000000000008152600401610958906112d7565b60405180910390fd5b8060020160119054906101000a900460ff16156109b3576040517f08c379a00000000000000000000000000000000000000000000000000000000081526004016109aa90611317565b60405180910390fd5b8060000160009054906101000a900473ffffffffffffffffffffffffffffffffffffffff1673ffffffffffffffffffffffffffffffffffffffff166108fc8260020160009054906101000a90046fffffffffffffffffffffffffffffffff166fffffffffffffffffffffffffffffffff169081150290604051600060405180830381858888f19350505050158015610a4f573d6000803e3d6000fd5b5060018160020160106101000a81548160ff0219169083151502179055507f483ae24adbf7b450ccb424d85ba241a089eb1761d3d1964d991ec4a5dd817f4982858533604051610aa29493929190611352565b60405180910390a150505050565b60015481565b600060028383604051610aca9291906111f0565b908152602001604051809103902054905060006003600083815260200190815260200160002090508060000160009054906101000a900473ffffffffffffffffffffffffffffffffffffffff1673ffffffffffffffffffffffffffffffffffffffff163373ffffffffffffffffffffffffffffffffffffffff1614610b84576040517f08c379a0000000000000000000000000000000000000000000000000000000008152600401610b7b906112f7565b60405180910390fd5b6000606460028360020160009054906101000a90046fffffffffffffffffffffffffffffffff16610bb5919061149c565b610bbf919061146b565b90506000818360020160009054906101000a90046fffffffffffffffffffffffffffffffff16610bef91906114e6565b90508260000160009054906101000a900473ffffffffffffffffffffffffffffffffffffffff1673ffffffffffffffffffffffffffffffffffffffff166108fc826fffffffffffffffffffffffffffffffff169081150290604051600060405180830381858888f19350505050158015610c6d573d6000803e3d6000fd5b5060008054906101000a900473ffffffffffffffffffffffffffffffffffffffff1673ffffffffffffffffffffffffffffffffffffffff166108fc836fffffffffffffffffffffffffffffffff169081150290604051600060405180830381858888f19350505050158015610ce6573d6000803e3d6000fd5b5060018360020160116101000a81548160ff0219169083151502179055507f8a2e4a9c0f7beb2acc63084318e4806fe5aab733979d70618e97f98b20c5872284878733604051610d399493929190611352565b60405180910390a1505050505050565b6000610d5c610d578461141f565b6113ee565b905082815260208101848484011115610d7457600080fd5b610d7f8482856115c6565b509392505050565b600081359050610d96816116bc565b92915050565b60008083601f840112610dae57600080fd5b8235905067ffffffffffffffff811115610dc757600080fd5b602083019150836001820283011115610ddf57600080fd5b9250929050565b600082601f830112610df757600080fd5b8135610e07848260208601610d49565b91505092915050565b600081359050610e1f816116d3565b92915050565b60008060208385031215610e3857600080fd5b600083013567ffffffffffffffff811115610e5257600080fd5b610e5e85828601610d9c565b92509250509250929050565b600080600060408486031215610e7f57600080fd5b600084013567ffffffffffffffff811115610e9957600080fd5b610ea586828701610d9c565b93509350506020610eb886828701610d87565b9150509250925092565b600060208284031215610ed457600080fd5b600082013567ffffffffffffffff811115610eee57600080fd5b610efa84828501610de6565b91505092915050565b600060208284031215610f1557600080fd5b6000610f2384828501610e10565b91505092915050565b610f3581611590565b82525050565b610f448161152c565b82525050565b610f538161151a565b82525050565b610f628161153e565b82525050565b6000610f74838561144f565b9350610f818385846115c6565b610f8a836116ab565b840190509392505050565b6000610fa18385611460565b9350610fae8385846115c6565b82840190509392505050565b6000610fc7602a8361144f565b91507f4f6e6c792073656c656374656420757365722063616e20616e7377657220746860008301527f65207175657374696f6e000000000000000000000000000000000000000000006020830152604082019050919050565b600061102d601f8361144f565b91507f416d6f756e742073686f756c642062652067726561746572207468616e2030006000830152602082019050919050565b600061106d60238361144f565b91507f596f752063616e6e6f742061736b207175657374696f6e20746f20796f75727360008301527f656c6600000000000000000000000000000000000000000000000000000000006020830152604082019050919050565b60006110d3602b8361144f565b91507f4f6e6c792073656c656374656420757365722063616e206465636c696e65207460008301527f6865207175657374696f6e0000000000000000000000000000000000000000006020830152604082019050919050565b600061113960228361144f565b91507f4f6e6c792061736b65722063616e2063616e63656c207468652071756573746960008301527f6f6e0000000000000000000000000000000000000000000000000000000000006020830152604082019050919050565b600061119f601f8361144f565b91507f546865207175657374696f6e20686173206265656e2063616e63656c6c6564006000830152602082019050919050565b6111db8161154a565b82525050565b6111ea81611586565b82525050565b60006111fd828486610f95565b91508190509392505050565b600060208201905061121e6000830184610f3b565b92915050565b600060a0820190506112396000830188610f3b565b6112466020830187610f3b565b61125360408301866111d2565b6112606060830185610f59565b61126d6080830184610f59565b9695505050505050565b6000602082019050818103600083015261129081610fba565b9050919050565b600060208201905081810360008301526112b081611020565b9050919050565b600060208201905081810360008301526112d081611060565b9050919050565b600060208201905081810360008301526112f0816110c6565b9050919050565b600060208201905081810360008301526113108161112c565b9050919050565b6000602082019050818103600083015261133081611192565b9050919050565b600060208201905061134c60008301846111e1565b92915050565b600060608201905061136760008301876111e1565b818103602083015261137a818587610f68565b90506113896040830184610f4a565b95945050505050565b600060a0820190506113a760008301896111e1565b81810360208301526113ba818789610f68565b90506113c96040830186610f4a565b6113d66060830185610f2c565b6113e360808301846111d2565b979650505050505050565b6000604051905081810181811067ffffffffffffffff821117156114155761141461167c565b5b8060405250919050565b600067ffffffffffffffff82111561143a5761143961167c565b5b601f19601f8301169050602081019050919050565b600082825260208201905092915050565b600081905092915050565b60006114768261154a565b91506114818361154a565b9250826114915761149061164d565b5b828204905092915050565b60006114a78261154a565b91506114b28361154a565b9250816fffffffffffffffffffffffffffffffff04831182151516156114db576114da61161e565b5b828202905092915050565b60006114f18261154a565b91506114fc8361154a565b92508282101561150f5761150e61161e565b5b828203905092915050565b600061152582611566565b9050919050565b600061153782611566565b9050919050565b60008115159050919050565b60006fffffffffffffffffffffffffffffffff82169050919050565b600073ffffffffffffffffffffffffffffffffffffffff82169050919050565b6000819050919050565b600061159b826115a2565b9050919050565b60006115ad826115b4565b9050919050565b60006115bf82611566565b9050919050565b82818337600083830152505050565b60006115e082611586565b91507fffffffffffffffffffffffffffffffffffffffffffffffffffffffffffffffff8214156116135761161261161e565b5b600182019050919050565b7f4e487b7100000000000000000000000000000000000000000000000000000000600052601160045260246000fd5b7f4e487b7100000000000000000000000000000000000000000000000000000000600052601260045260246000fd5b7f4e487b7100000000000000000000000000000000000000000000000000000000600052604160045260246000fd5b6000601f19601f8301169050919050565b6116c58161152c565b81146116d057600080fd5b50565b6116dc81611586565b81146116e757600080fd5b5056fea264697066735822122094ac38b87ab7a7c0e89a8752e14ec0d97292128f1db543d10f86e9da6f92b54564736f6c63430008000033",
  "immutableReferences": {},
  "source": "// SPDX-License-Identifier: MIT \n\npragma solidity ^0.8.0;\n\ncontract BuyAnAnswerContract {\n    address payable public feeAddress;\n    \n    struct Question {\n        address payable asker;\n        address payable answerer;\n        uint128 amount;\n        bool answered;\n        bool cancelled;\n    }\n\n    uint256 public latestQuestionId; \n    mapping(string => uint256) public firebaseDocIdToQuestionId; \n    mapping(uint256 => Question) public questions; \n\n    event QuestionAsked(uint256 questionId, string firebaseDocId, address asker, address answerer, uint128 amount);\n    event QuestionAnswered(uint256 questionId, string firebaseDocId, address answerer);\n    event QuestionDeclined(uint256 questionId, string firebaseDocId, address answerer);\n    event QuestionCancelled(uint256 questionId, string firebaseDocId, address asker);\n\n    constructor(address payable _feeAddress) {\n        feeAddress = _feeAddress;\n    }\n\n    function askQuestion(string calldata firebaseDocId, address payable _answerer) external payable {\n        require(msg.value > 0, \"Amount should be greater than 0\");\n        require(_answerer != msg.sender, \"You cannot ask question to yourself\");\n\n        uint256 questionId = ++latestQuestionId;\n\n        firebaseDocIdToQuestionId[firebaseDocId] = questionId;\n\n        questions[questionId] = Question(payable(msg.sender), _answerer, uint128(msg.value), false, false);\n        \n        emit QuestionAsked(questionId, firebaseDocId, msg.sender, _answerer, uint128(msg.value));\n    }\n\n    function answerQuestion(string calldata firebaseDocId) external {\n        uint256 questionId = firebaseDocIdToQuestionId[firebaseDocId];\n        Question storage question = questions[questionId];\n        require(msg.sender == question.answerer, \"Only selected user can answer the question\");\n        require(!question.cancelled, \"The question has been cancelled\");\n        \n        uint128 fee = uint128(question.amount * 5 / 100);  \n        uint128 payout = question.amount - fee;   \n\n        question.answerer.transfer(payout);\n        feeAddress.transfer(fee);\n\n        question.answered = true;\n        \n        emit QuestionAnswered(questionId, firebaseDocId, msg.sender);\n    }\n\n    function declineQuestion(string calldata firebaseDocId) external {\n        uint256 questionId = firebaseDocIdToQuestionId[firebaseDocId];\n        Question storage question = questions[questionId];\n        require(msg.sender == question.answerer, \"Only selected user can decline the question\");\n        require(!question.cancelled, \"The question has been cancelled\");\n\n        question.asker.transfer(question.amount);\n\n        question.answered = true;\n        \n        emit QuestionDeclined(questionId, firebaseDocId, msg.sender);\n    }\n\n    function cancelQuestion(string calldata firebaseDocId) external {\n        uint256 questionId = firebaseDocIdToQuestionId[firebaseDocId];\n        Question storage question = questions[questionId];\n        require(msg.sender == question.asker, \"Only asker can cancel the question\");\n\n        uint128 fee = uint128(question.amount * 2 / 100);  \n        uint128 refund = question.amount - fee;   \n\n        question.asker.transfer(refund);\n        feeAddress.transfer(fee);\n\n        question.cancelled = true;\n\n        emit QuestionCancelled(questionId, firebaseDocId, msg.sender);\n    }\n}\n",
  "sourcePath": "/Users/jayanthkomarraju/Documents/GitHub/buyananswer.eth/client/contracts/BuyAnAnswerContract.sol",
  "compiler": {
    "name": "solc",
    "version": "0.8.0+commit.c7dfd78e.Emscripten.clang"
  },
  "schemaVersion": "3.2.3",
  "updatedAt": "2023-06-03T14:49:09.759Z",
  "networkType": "ethereum",
  "devdoc": {
    "kind": "dev",
    "methods": {},
    "version": 1
  },
  "userdoc": {
    "kind": "user",
    "methods": {},
    "version": 1
  }
}