{
  "contractName": "BuyAnAnswer",
  "abi": [
    {
      "constant": true,
      "inputs": [
        {
          "internalType": "address",
          "name": "",
          "type": "address"
        },
        {
          "internalType": "uint256",
          "name": "",
          "type": "uint256"
        }
      ],
      "name": "answeredQuestions",
      "outputs": [
        {
          "components": [
            {
              "internalType": "bytes32",
              "name": "questionID",
              "type": "bytes32"
            },
            {
              "internalType": "string",
              "name": "questionText",
              "type": "string"
            },
            {
              "internalType": "bytes32",
              "name": "boardID",
              "type": "bytes32"
            },
            {
              "internalType": "uint256",
              "name": "price",
              "type": "uint256"
            },
            {
              "internalType": "uint256",
              "name": "priorityBonus",
              "type": "uint256"
            },
            {
              "internalType": "address payable",
              "name": "askUser",
              "type": "address"
            },
            {
              "internalType": "address payable",
              "name": "answerUser",
              "type": "address"
            },
            {
              "internalType": "bool",
              "name": "isAnswered",
              "type": "bool"
            }
          ],
          "internalType": "struct BuyAnAnswer.Question",
          "name": "question",
          "type": "tuple"
        },
        {
          "internalType": "string",
          "name": "answerText",
          "type": "string"
        }
      ],
      "payable": false,
      "stateMutability": "view",
      "type": "function"
    },
    {
      "constant": true,
      "inputs": [
        {
          "internalType": "address",
          "name": "",
          "type": "address"
        },
        {
          "internalType": "uint256",
          "name": "",
          "type": "uint256"
        }
      ],
      "name": "declinedQuestions",
      "outputs": [
        {
          "internalType": "bytes32",
          "name": "questionID",
          "type": "bytes32"
        },
        {
          "internalType": "string",
          "name": "questionText",
          "type": "string"
        },
        {
          "internalType": "bytes32",
          "name": "boardID",
          "type": "bytes32"
        },
        {
          "internalType": "uint256",
          "name": "price",
          "type": "uint256"
        },
        {
          "internalType": "uint256",
          "name": "priorityBonus",
          "type": "uint256"
        },
        {
          "internalType": "address payable",
          "name": "askUser",
          "type": "address"
        },
        {
          "internalType": "address payable",
          "name": "answerUser",
          "type": "address"
        },
        {
          "internalType": "bool",
          "name": "isAnswered",
          "type": "bool"
        }
      ],
      "payable": false,
      "stateMutability": "view",
      "type": "function"
    },
    {
      "constant": true,
      "inputs": [
        {
          "internalType": "address",
          "name": "",
          "type": "address"
        },
        {
          "internalType": "uint256",
          "name": "",
          "type": "uint256"
        }
      ],
      "name": "history",
      "outputs": [
        {
          "internalType": "bytes32",
          "name": "questionID",
          "type": "bytes32"
        },
        {
          "internalType": "string",
          "name": "questionText",
          "type": "string"
        },
        {
          "internalType": "bytes32",
          "name": "boardID",
          "type": "bytes32"
        },
        {
          "internalType": "uint256",
          "name": "price",
          "type": "uint256"
        },
        {
          "internalType": "uint256",
          "name": "priorityBonus",
          "type": "uint256"
        },
        {
          "internalType": "address payable",
          "name": "askUser",
          "type": "address"
        },
        {
          "internalType": "address payable",
          "name": "answerUser",
          "type": "address"
        },
        {
          "internalType": "bool",
          "name": "isAnswered",
          "type": "bool"
        }
      ],
      "payable": false,
      "stateMutability": "view",
      "type": "function"
    },
    {
      "constant": true,
      "inputs": [
        {
          "internalType": "bytes32",
          "name": "",
          "type": "bytes32"
        }
      ],
      "name": "questions",
      "outputs": [
        {
          "internalType": "bytes32",
          "name": "questionID",
          "type": "bytes32"
        },
        {
          "internalType": "string",
          "name": "questionText",
          "type": "string"
        },
        {
          "internalType": "bytes32",
          "name": "boardID",
          "type": "bytes32"
        },
        {
          "internalType": "uint256",
          "name": "price",
          "type": "uint256"
        },
        {
          "internalType": "uint256",
          "name": "priorityBonus",
          "type": "uint256"
        },
        {
          "internalType": "address payable",
          "name": "askUser",
          "type": "address"
        },
        {
          "internalType": "address payable",
          "name": "answerUser",
          "type": "address"
        },
        {
          "internalType": "bool",
          "name": "isAnswered",
          "type": "bool"
        }
      ],
      "payable": false,
      "stateMutability": "view",
      "type": "function"
    },
    {
      "constant": true,
      "inputs": [
        {
          "internalType": "address",
          "name": "",
          "type": "address"
        },
        {
          "internalType": "uint256",
          "name": "",
          "type": "uint256"
        }
      ],
      "name": "receivedQuestions",
      "outputs": [
        {
          "internalType": "bytes32",
          "name": "questionID",
          "type": "bytes32"
        },
        {
          "internalType": "string",
          "name": "questionText",
          "type": "string"
        },
        {
          "internalType": "bytes32",
          "name": "boardID",
          "type": "bytes32"
        },
        {
          "internalType": "uint256",
          "name": "price",
          "type": "uint256"
        },
        {
          "internalType": "uint256",
          "name": "priorityBonus",
          "type": "uint256"
        },
        {
          "internalType": "address payable",
          "name": "askUser",
          "type": "address"
        },
        {
          "internalType": "address payable",
          "name": "answerUser",
          "type": "address"
        },
        {
          "internalType": "bool",
          "name": "isAnswered",
          "type": "bool"
        }
      ],
      "payable": false,
      "stateMutability": "view",
      "type": "function"
    },
    {
      "constant": true,
      "inputs": [
        {
          "internalType": "address",
          "name": "",
          "type": "address"
        },
        {
          "internalType": "uint256",
          "name": "",
          "type": "uint256"
        }
      ],
      "name": "unansweredQuestions",
      "outputs": [
        {
          "internalType": "bytes32",
          "name": "questionID",
          "type": "bytes32"
        },
        {
          "internalType": "string",
          "name": "questionText",
          "type": "string"
        },
        {
          "internalType": "bytes32",
          "name": "boardID",
          "type": "bytes32"
        },
        {
          "internalType": "uint256",
          "name": "price",
          "type": "uint256"
        },
        {
          "internalType": "uint256",
          "name": "priorityBonus",
          "type": "uint256"
        },
        {
          "internalType": "address payable",
          "name": "askUser",
          "type": "address"
        },
        {
          "internalType": "address payable",
          "name": "answerUser",
          "type": "address"
        },
        {
          "internalType": "bool",
          "name": "isAnswered",
          "type": "bool"
        }
      ],
      "payable": false,
      "stateMutability": "view",
      "type": "function"
    },
    {
      "constant": true,
      "inputs": [
        {
          "internalType": "address",
          "name": "",
          "type": "address"
        }
      ],
      "name": "users",
      "outputs": [
        {
          "internalType": "address payable",
          "name": "userAddress",
          "type": "address"
        },
        {
          "internalType": "string",
          "name": "username",
          "type": "string"
        },
        {
          "internalType": "string",
          "name": "name",
          "type": "string"
        },
        {
          "internalType": "string",
          "name": "email",
          "type": "string"
        },
        {
          "internalType": "string",
          "name": "password",
          "type": "string"
        },
        {
          "internalType": "uint256",
          "name": "balance",
          "type": "uint256"
        },
        {
          "internalType": "bytes32",
          "name": "boardID",
          "type": "bytes32"
        },
        {
          "internalType": "string",
          "name": "headline",
          "type": "string"
        },
        {
          "internalType": "string",
          "name": "bio",
          "type": "string"
        },
        {
          "internalType": "uint256",
          "name": "minimumPrice",
          "type": "uint256"
        }
      ],
      "payable": false,
      "stateMutability": "view",
      "type": "function"
    },
    {
      "constant": true,
      "inputs": [
        {
          "internalType": "string",
          "name": "",
          "type": "string"
        }
      ],
      "name": "usersByUsername",
      "outputs": [
        {
          "internalType": "address payable",
          "name": "userAddress",
          "type": "address"
        },
        {
          "internalType": "string",
          "name": "username",
          "type": "string"
        },
        {
          "internalType": "string",
          "name": "name",
          "type": "string"
        },
        {
          "internalType": "string",
          "name": "email",
          "type": "string"
        },
        {
          "internalType": "string",
          "name": "password",
          "type": "string"
        },
        {
          "internalType": "uint256",
          "name": "balance",
          "type": "uint256"
        },
        {
          "internalType": "bytes32",
          "name": "boardID",
          "type": "bytes32"
        },
        {
          "internalType": "string",
          "name": "headline",
          "type": "string"
        },
        {
          "internalType": "string",
          "name": "bio",
          "type": "string"
        },
        {
          "internalType": "uint256",
          "name": "minimumPrice",
          "type": "uint256"
        }
      ],
      "payable": false,
      "stateMutability": "view",
      "type": "function"
    },
    {
      "constant": false,
      "inputs": [
        {
          "internalType": "string",
          "name": "_username",
          "type": "string"
        },
        {
          "internalType": "string",
          "name": "_name",
          "type": "string"
        },
        {
          "internalType": "string",
          "name": "_email",
          "type": "string"
        },
        {
          "internalType": "string",
          "name": "_password",
          "type": "string"
        },
        {
          "internalType": "string",
          "name": "_headline",
          "type": "string"
        },
        {
          "internalType": "string",
          "name": "_bio",
          "type": "string"
        },
        {
          "internalType": "uint256",
          "name": "_minimumPrice",
          "type": "uint256"
        }
      ],
      "name": "createUser",
      "outputs": [],
      "payable": false,
      "stateMutability": "nonpayable",
      "type": "function"
    },
    {
      "constant": true,
      "inputs": [
        {
          "internalType": "address",
          "name": "_userAddress",
          "type": "address"
        }
      ],
      "name": "getUser",
      "outputs": [
        {
          "components": [
            {
              "internalType": "address payable",
              "name": "userAddress",
              "type": "address"
            },
            {
              "internalType": "string",
              "name": "username",
              "type": "string"
            },
            {
              "internalType": "string",
              "name": "name",
              "type": "string"
            },
            {
              "internalType": "string",
              "name": "email",
              "type": "string"
            },
            {
              "internalType": "string",
              "name": "password",
              "type": "string"
            },
            {
              "internalType": "uint256",
              "name": "balance",
              "type": "uint256"
            },
            {
              "internalType": "bytes32",
              "name": "boardID",
              "type": "bytes32"
            },
            {
              "internalType": "string",
              "name": "headline",
              "type": "string"
            },
            {
              "internalType": "string",
              "name": "bio",
              "type": "string"
            },
            {
              "internalType": "uint256",
              "name": "minimumPrice",
              "type": "uint256"
            }
          ],
          "internalType": "struct BuyAnAnswer.User",
          "name": "",
          "type": "tuple"
        }
      ],
      "payable": false,
      "stateMutability": "view",
      "type": "function"
    },
    {
      "constant": false,
      "inputs": [
        {
          "internalType": "string",
          "name": "_headline",
          "type": "string"
        },
        {
          "internalType": "string",
          "name": "_bio",
          "type": "string"
        },
        {
          "internalType": "uint256",
          "name": "_minimumPrice",
          "type": "uint256"
        }
      ],
      "name": "updateUser",
      "outputs": [],
      "payable": false,
      "stateMutability": "nonpayable",
      "type": "function"
    },
    {
      "constant": false,
      "inputs": [
        {
          "internalType": "string",
          "name": "_questionText",
          "type": "string"
        },
        {
          "internalType": "uint256",
          "name": "_priorityBonus",
          "type": "uint256"
        },
        {
          "internalType": "address payable",
          "name": "_answerUser",
          "type": "address"
        }
      ],
      "name": "postQuestion",
      "outputs": [],
      "payable": true,
      "stateMutability": "payable",
      "type": "function"
    },
    {
      "constant": false,
      "inputs": [
        {
          "internalType": "bytes32",
          "name": "_questionID",
          "type": "bytes32"
        },
        {
          "internalType": "string",
          "name": "_answerText",
          "type": "string"
        }
      ],
      "name": "postAnswer",
      "outputs": [],
      "payable": true,
      "stateMutability": "payable",
      "type": "function"
    },
    {
      "constant": false,
      "inputs": [
        {
          "internalType": "bytes32",
          "name": "_questionID",
          "type": "bytes32"
        }
      ],
      "name": "declineQuestion",
      "outputs": [],
      "payable": true,
      "stateMutability": "payable",
      "type": "function"
    },
    {
      "constant": true,
      "inputs": [
        {
          "internalType": "address",
          "name": "_userAddress",
          "type": "address"
        }
      ],
      "name": "getUserHistory",
      "outputs": [
        {
          "components": [
            {
              "internalType": "bytes32",
              "name": "questionID",
              "type": "bytes32"
            },
            {
              "internalType": "string",
              "name": "questionText",
              "type": "string"
            },
            {
              "internalType": "bytes32",
              "name": "boardID",
              "type": "bytes32"
            },
            {
              "internalType": "uint256",
              "name": "price",
              "type": "uint256"
            },
            {
              "internalType": "uint256",
              "name": "priorityBonus",
              "type": "uint256"
            },
            {
              "internalType": "address payable",
              "name": "askUser",
              "type": "address"
            },
            {
              "internalType": "address payable",
              "name": "answerUser",
              "type": "address"
            },
            {
              "internalType": "bool",
              "name": "isAnswered",
              "type": "bool"
            }
          ],
          "internalType": "struct BuyAnAnswer.Question[]",
          "name": "",
          "type": "tuple[]"
        }
      ],
      "payable": false,
      "stateMutability": "view",
      "type": "function"
    },
    {
      "constant": true,
      "inputs": [],
      "name": "getUnansweredQuestions",
      "outputs": [
        {
          "components": [
            {
              "internalType": "bytes32",
              "name": "questionID",
              "type": "bytes32"
            },
            {
              "internalType": "string",
              "name": "questionText",
              "type": "string"
            },
            {
              "internalType": "bytes32",
              "name": "boardID",
              "type": "bytes32"
            },
            {
              "internalType": "uint256",
              "name": "price",
              "type": "uint256"
            },
            {
              "internalType": "uint256",
              "name": "priorityBonus",
              "type": "uint256"
            },
            {
              "internalType": "address payable",
              "name": "askUser",
              "type": "address"
            },
            {
              "internalType": "address payable",
              "name": "answerUser",
              "type": "address"
            },
            {
              "internalType": "bool",
              "name": "isAnswered",
              "type": "bool"
            }
          ],
          "internalType": "struct BuyAnAnswer.Question[]",
          "name": "",
          "type": "tuple[]"
        }
      ],
      "payable": false,
      "stateMutability": "view",
      "type": "function"
    },
    {
      "constant": true,
      "inputs": [
        {
          "internalType": "address",
          "name": "_userAddress",
          "type": "address"
        }
      ],
      "name": "getUserReceivedQuestions",
      "outputs": [
        {
          "components": [
            {
              "internalType": "bytes32",
              "name": "questionID",
              "type": "bytes32"
            },
            {
              "internalType": "string",
              "name": "questionText",
              "type": "string"
            },
            {
              "internalType": "bytes32",
              "name": "boardID",
              "type": "bytes32"
            },
            {
              "internalType": "uint256",
              "name": "price",
              "type": "uint256"
            },
            {
              "internalType": "uint256",
              "name": "priorityBonus",
              "type": "uint256"
            },
            {
              "internalType": "address payable",
              "name": "askUser",
              "type": "address"
            },
            {
              "internalType": "address payable",
              "name": "answerUser",
              "type": "address"
            },
            {
              "internalType": "bool",
              "name": "isAnswered",
              "type": "bool"
            }
          ],
          "internalType": "struct BuyAnAnswer.Question[]",
          "name": "",
          "type": "tuple[]"
        }
      ],
      "payable": false,
      "stateMutability": "view",
      "type": "function"
    },
    {
      "constant": true,
      "inputs": [
        {
          "internalType": "address",
          "name": "_userAddress",
          "type": "address"
        }
      ],
      "name": "getUserDeclinedQuestions",
      "outputs": [
        {
          "components": [
            {
              "internalType": "bytes32",
              "name": "questionID",
              "type": "bytes32"
            },
            {
              "internalType": "string",
              "name": "questionText",
              "type": "string"
            },
            {
              "internalType": "bytes32",
              "name": "boardID",
              "type": "bytes32"
            },
            {
              "internalType": "uint256",
              "name": "price",
              "type": "uint256"
            },
            {
              "internalType": "uint256",
              "name": "priorityBonus",
              "type": "uint256"
            },
            {
              "internalType": "address payable",
              "name": "askUser",
              "type": "address"
            },
            {
              "internalType": "address payable",
              "name": "answerUser",
              "type": "address"
            },
            {
              "internalType": "bool",
              "name": "isAnswered",
              "type": "bool"
            }
          ],
          "internalType": "struct BuyAnAnswer.Question[]",
          "name": "",
          "type": "tuple[]"
        }
      ],
      "payable": false,
      "stateMutability": "view",
      "type": "function"
    },
    {
      "constant": true,
      "inputs": [
        {
          "internalType": "address",
          "name": "_userAddress",
          "type": "address"
        }
      ],
      "name": "getUserAnsweredQuestions",
      "outputs": [
        {
          "components": [
            {
              "components": [
                {
                  "internalType": "bytes32",
                  "name": "questionID",
                  "type": "bytes32"
                },
                {
                  "internalType": "string",
                  "name": "questionText",
                  "type": "string"
                },
                {
                  "internalType": "bytes32",
                  "name": "boardID",
                  "type": "bytes32"
                },
                {
                  "internalType": "uint256",
                  "name": "price",
                  "type": "uint256"
                },
                {
                  "internalType": "uint256",
                  "name": "priorityBonus",
                  "type": "uint256"
                },
                {
                  "internalType": "address payable",
                  "name": "askUser",
                  "type": "address"
                },
                {
                  "internalType": "address payable",
                  "name": "answerUser",
                  "type": "address"
                },
                {
                  "internalType": "bool",
                  "name": "isAnswered",
                  "type": "bool"
                }
              ],
              "internalType": "struct BuyAnAnswer.Question",
              "name": "question",
              "type": "tuple"
            },
            {
              "internalType": "string",
              "name": "answerText",
              "type": "string"
            }
          ],
          "internalType": "struct BuyAnAnswer.Answer[]",
          "name": "",
          "type": "tuple[]"
        }
      ],
      "payable": false,
      "stateMutability": "view",
      "type": "function"
    },
    {
      "constant": true,
      "inputs": [
        {
          "internalType": "address",
          "name": "_userAddress",
          "type": "address"
        }
      ],
      "name": "getUserBalance",
      "outputs": [
        {
          "internalType": "uint256",
          "name": "",
          "type": "uint256"
        }
      ],
      "payable": false,
      "stateMutability": "view",
      "type": "function"
    },
    {
      "constant": true,
      "inputs": [
        {
          "internalType": "address",
          "name": "_userAddress",
          "type": "address"
        }
      ],
      "name": "getUserBoardID",
      "outputs": [
        {
          "internalType": "bytes32",
          "name": "",
          "type": "bytes32"
        }
      ],
      "payable": false,
      "stateMutability": "view",
      "type": "function"
    },
    {
      "constant": true,
      "inputs": [
        {
          "internalType": "address",
          "name": "_userAddress",
          "type": "address"
        }
      ],
      "name": "getUserHeadline",
      "outputs": [
        {
          "internalType": "string",
          "name": "",
          "type": "string"
        }
      ],
      "payable": false,
      "stateMutability": "view",
      "type": "function"
    },
    {
      "constant": true,
      "inputs": [
        {
          "internalType": "address",
          "name": "_userAddress",
          "type": "address"
        }
      ],
      "name": "getUserBio",
      "outputs": [
        {
          "internalType": "string",
          "name": "",
          "type": "string"
        }
      ],
      "payable": false,
      "stateMutability": "view",
      "type": "function"
    },
    {
      "constant": true,
      "inputs": [
        {
          "internalType": "address",
          "name": "_userAddress",
          "type": "address"
        }
      ],
      "name": "getUserMinimumPrice",
      "outputs": [
        {
          "internalType": "uint256",
          "name": "",
          "type": "uint256"
        }
      ],
      "payable": false,
      "stateMutability": "view",
      "type": "function"
    },
    {
      "constant": true,
      "inputs": [
        {
          "internalType": "string",
          "name": "_username",
          "type": "string"
        }
      ],
      "name": "getUserByUsername",
      "outputs": [
        {
          "components": [
            {
              "internalType": "address payable",
              "name": "userAddress",
              "type": "address"
            },
            {
              "internalType": "string",
              "name": "username",
              "type": "string"
            },
            {
              "internalType": "string",
              "name": "name",
              "type": "string"
            },
            {
              "internalType": "string",
              "name": "email",
              "type": "string"
            },
            {
              "internalType": "string",
              "name": "password",
              "type": "string"
            },
            {
              "internalType": "uint256",
              "name": "balance",
              "type": "uint256"
            },
            {
              "internalType": "bytes32",
              "name": "boardID",
              "type": "bytes32"
            },
            {
              "internalType": "string",
              "name": "headline",
              "type": "string"
            },
            {
              "internalType": "string",
              "name": "bio",
              "type": "string"
            },
            {
              "internalType": "uint256",
              "name": "minimumPrice",
              "type": "uint256"
            }
          ],
          "internalType": "struct BuyAnAnswer.User",
          "name": "",
          "type": "tuple"
        }
      ],
      "payable": false,
      "stateMutability": "view",
      "type": "function"
    }
  ],
  "bytecode": "0x608060405234801561001057600080fd5b50615c5c80620000216000396000f3fe6080604052600436106101665760003560e01c80637271d930116100d1578063a87430ba1161008a578063caea00ce11610064578063caea00ce1461060b578063d129604b14610648578063d7d43d1514610671578063e364f337146106b557610166565b8063a87430ba1461056c578063b77e17f4146105b2578063c02d72fd146105ce57610166565b80637271d930146103fb5780637718f4ec1461042657806385dc9a541461046a578063872f003a146104ae57806395addb90146104eb5780639f42af631461052f57610166565b8063477348921161012357806347734892146102845780634fb3d3b1146102c1578063503af5e1146102fe5780635a3862041461033b5780635ac23133146103785780636f77926b146103be57610166565b806303f9706f1461016b57806308d8568e146101a85780630b2679b6146101c4578063153500aa146102015780632080cc971461022a578063278d292014610246575b600080fd5b34801561017757600080fd5b50610192600480360361018d9190810190614ddc565b6106f9565b60405161019f919061596c565b60405180910390f35b6101c260048036036101bd91908101906150ed565b610744565b005b3480156101d057600080fd5b506101eb60048036036101e69190810190614ddc565b610efc565b6040516101f8919061580d565b60405180910390f35b34801561020d57600080fd5b506102286004803603610223919081019061506e565b6111e2565b005b610244600480360361023f9190810190614e6a565b6112d9565b005b34801561025257600080fd5b5061026d60048036036102689190810190614e05565b611a5f565b60405161027b929190615913565b60405180910390f35b34801561029057600080fd5b506102ab60048036036102a69190810190614ddc565b611cd1565b6040516102b8919061596c565b60405180910390f35b3480156102cd57600080fd5b506102e860048036036102e39190810190614ddc565b611d1c565b6040516102f5919061582f565b60405180910390f35b34801561030a57600080fd5b5061032560048036036103209190810190614ddc565b611f4c565b604051610332919061582f565b60405180910390f35b34801561034757600080fd5b50610362600480360361035d9190810190614ddc565b61217c565b60405161036f91906158f1565b60405180910390f35b34801561038457600080fd5b5061039f600480360361039a9190810190614ebe565b61225f565b6040516103b59a99989796959493929190615747565b60405180910390f35b3480156103ca57600080fd5b506103e560048036036103e09190810190614ddc565b612679565b6040516103f2919061594a565b60405180910390f35b34801561040757600080fd5b50610410612b12565b60405161041d919061582f565b60405180910390f35b34801561043257600080fd5b5061044d60048036036104489190810190614e05565b612d40565b60405161046198979695949392919061586c565b60405180910390f35b34801561047657600080fd5b50610491600480360361048c9190810190614e05565b612e87565b6040516104a598979695949392919061586c565b60405180910390f35b3480156104ba57600080fd5b506104d560048036036104d09190810190614ddc565b612fce565b6040516104e2919061582f565b60405180910390f35b3480156104f757600080fd5b50610512600480360361050d9190810190614e41565b6131fe565b60405161052698979695949392919061586c565b60405180910390f35b34801561053b57600080fd5b5061055660048036036105519190810190614eff565b61332b565b604051610563919061594a565b60405180910390f35b34801561057857600080fd5b50610593600480360361058e9190810190614ddc565b6137a4565b6040516105a99a99989796959493929190615747565b60405180910390f35b6105cc60048036036105c79190810190614e41565b613ba8565b005b3480156105da57600080fd5b506105f560048036036105f09190810190614ddc565b61433a565b6040516106029190615851565b60405180910390f35b34801561061757600080fd5b50610632600480360361062d9190810190614ddc565b614385565b60405161063f91906158f1565b60405180910390f35b34801561065457600080fd5b5061066f600480360361066a9190810190614f40565b614468565b005b34801561067d57600080fd5b5061069860048036036106939190810190614e05565b61477c565b6040516106ac98979695949392919061586c565b60405180910390f35b3480156106c157600080fd5b506106dc60048036036106d79190810190614e05565b6148c3565b6040516106f098979695949392919061586c565b60405180910390f35b60008060008373ffffffffffffffffffffffffffffffffffffffff1673ffffffffffffffffffffffffffffffffffffffff168152602001908152602001600020600901549050919050565b61074c614a3d565b6040518061010001604052808561076285612679565b60c001518661077087612679565b61012001510187338860405160200161078e969594939291906156b7565b6040516020818303038152906040528051906020012081526020018581526020016107b884612679565b60c001518152602001846107cb85612679565b61012001510181526020018481526020013373ffffffffffffffffffffffffffffffffffffffff1681526020018373ffffffffffffffffffffffffffffffffffffffff168152602001600015158152509050600260003373ffffffffffffffffffffffffffffffffffffffff1673ffffffffffffffffffffffffffffffffffffffff16815260200190815260200160002081908060018154018082558091505090600182039060005260206000209060070201600090919290919091506000820151816000015560208201518160010190805190602001906108ae929190614ab6565b5060408201518160020155606082015181600301556080820151816004015560a08201518160050160006101000a81548173ffffffffffffffffffffffffffffffffffffffff021916908373ffffffffffffffffffffffffffffffffffffffff16021790555060c08201518160060160006101000a81548173ffffffffffffffffffffffffffffffffffffffff021916908373ffffffffffffffffffffffffffffffffffffffff16021790555060e08201518160060160146101000a81548160ff021916908315150217905550505050600260008373ffffffffffffffffffffffffffffffffffffffff1673ffffffffffffffffffffffffffffffffffffffff1681526020019081526020016000208190806001815401808255809150509060018203906000526020600020906007020160009091929091909150600082015181600001556020820151816001019080519060200190610a0f929190614ab6565b5060408201518160020155606082015181600301556080820151816004015560a08201518160050160006101000a81548173ffffffffffffffffffffffffffffffffffffffff021916908373ffffffffffffffffffffffffffffffffffffffff16021790555060c08201518160060160006101000a81548173ffffffffffffffffffffffffffffffffffffffff021916908373ffffffffffffffffffffffffffffffffffffffff16021790555060e08201518160060160146101000a81548160ff021916908315150217905550505050600760008373ffffffffffffffffffffffffffffffffffffffff1673ffffffffffffffffffffffffffffffffffffffff1681526020019081526020016000208190806001815401808255809150509060018203906000526020600020906007020160009091929091909150600082015181600001556020820151816001019080519060200190610b70929190614ab6565b5060408201518160020155606082015181600301556080820151816004015560a08201518160050160006101000a81548173ffffffffffffffffffffffffffffffffffffffff021916908373ffffffffffffffffffffffffffffffffffffffff16021790555060c08201518160060160006101000a81548173ffffffffffffffffffffffffffffffffffffffff021916908373ffffffffffffffffffffffffffffffffffffffff16021790555060e08201518160060160146101000a81548160ff021916908315150217905550505050806006600086610c4f86612679565b60c0015187610c5d88612679565b610120015101883389604051602001610c7b969594939291906156b7565b604051602081830303815290604052805190602001208152602001908152602001600020600082015181600001556020820151816001019080519060200190610cc5929190614ab6565b5060408201518160020155606082015181600301556080820151816004015560a08201518160050160006101000a81548173ffffffffffffffffffffffffffffffffffffffff021916908373ffffffffffffffffffffffffffffffffffffffff16021790555060c08201518160060160006101000a81548173ffffffffffffffffffffffffffffffffffffffff021916908373ffffffffffffffffffffffffffffffffffffffff16021790555060e08201518160060160146101000a81548160ff021916908315150217905550905050600360008373ffffffffffffffffffffffffffffffffffffffff1673ffffffffffffffffffffffffffffffffffffffff1681526020019081526020016000208190806001815401808255809150509060018203906000526020600020906007020160009091929091909150600082015181600001556020820151816001019080519060200190610e26929190614ab6565b5060408201518160020155606082015181600301556080820151816004015560a08201518160050160006101000a81548173ffffffffffffffffffffffffffffffffffffffff021916908373ffffffffffffffffffffffffffffffffffffffff16021790555060c08201518160060160006101000a81548173ffffffffffffffffffffffffffffffffffffffff021916908373ffffffffffffffffffffffffffffffffffffffff16021790555060e08201518160060160146101000a81548160ff02191690831515021790555050505050505050565b6060600560008373ffffffffffffffffffffffffffffffffffffffff1673ffffffffffffffffffffffffffffffffffffffff168152602001908152602001600020805480602002602001604051908101604052809291908181526020016000905b828210156111d75783829060005260206000209060080201604051806040016040529081600082016040518061010001604052908160008201548152602001600182018054600181600116156101000203166002900480601f0160208091040260200160405190810160405280929190818152602001828054600181600116156101000203166002900480156110345780601f1061100957610100808354040283529160200191611034565b820191906000526020600020905b81548152906001019060200180831161101757829003601f168201915b505050505081526020016002820154815260200160038201548152602001600482015481526020016005820160009054906101000a900473ffffffffffffffffffffffffffffffffffffffff1673ffffffffffffffffffffffffffffffffffffffff1673ffffffffffffffffffffffffffffffffffffffff1681526020016006820160009054906101000a900473ffffffffffffffffffffffffffffffffffffffff1673ffffffffffffffffffffffffffffffffffffffff1673ffffffffffffffffffffffffffffffffffffffff1681526020016006820160149054906101000a900460ff1615151515815250508152602001600782018054600181600116156101000203166002900480601f0160208091040260200160405190810160405280929190818152602001828054600181600116156101000203166002900480156111bf5780601f10611194576101008083540402835291602001916111bf565b820191906000526020600020905b8154815290600101906020018083116111a257829003601f168201915b50505050508152505081526020019060010190610f5d565b505050509050919050565b826000803373ffffffffffffffffffffffffffffffffffffffff1673ffffffffffffffffffffffffffffffffffffffff1681526020019081526020016000206007019080519060200190611237929190614b36565b50816000803373ffffffffffffffffffffffffffffffffffffffff1673ffffffffffffffffffffffffffffffffffffffff168152602001908152602001600020600801908051906020019061128d929190614b36565b50806000803373ffffffffffffffffffffffffffffffffffffffff1673ffffffffffffffffffffffffffffffffffffffff16815260200190815260200160002060090181905550505050565b6112e1614a3d565b60008090505b600360003373ffffffffffffffffffffffffffffffffffffffff1673ffffffffffffffffffffffffffffffffffffffff1681526020019081526020016000208054905081101561159d5783600360003373ffffffffffffffffffffffffffffffffffffffff1673ffffffffffffffffffffffffffffffffffffffff168152602001908152602001600020828154811061137c57fe5b906000526020600020906007020160000154141561159057600360003373ffffffffffffffffffffffffffffffffffffffff1673ffffffffffffffffffffffffffffffffffffffff16815260200190815260200160002081815481106113de57fe5b90600052602060002090600702016040518061010001604052908160008201548152602001600182018054600181600116156101000203166002900480601f01602080910402602001604051908101604052809291908181526020018280546001816001161561010002031660029004801561149b5780601f106114705761010080835404028352916020019161149b565b820191906000526020600020905b81548152906001019060200180831161147e57829003601f168201915b505050505081526020016002820154815260200160038201548152602001600482015481526020016005820160009054906101000a900473ffffffffffffffffffffffffffffffffffffffff1673ffffffffffffffffffffffffffffffffffffffff1673ffffffffffffffffffffffffffffffffffffffff1681526020016006820160009054906101000a900473ffffffffffffffffffffffffffffffffffffffff1673ffffffffffffffffffffffffffffffffffffffff1673ffffffffffffffffffffffffffffffffffffffff1681526020016006820160149054906101000a900460ff161515151581525050915061159d565b80806001019150506112e7565b506115a6614bb6565b6040518060400160405280838152602001848152509050600560003373ffffffffffffffffffffffffffffffffffffffff1673ffffffffffffffffffffffffffffffffffffffff1681526020019081526020016000208190806001815401808255809150509060018203906000526020600020906008020160009091929091909150600082015181600001600082015181600001556020820151816001019080519060200190611657929190614ab6565b5060408201518160020155606082015181600301556080820151816004015560a08201518160050160006101000a81548173ffffffffffffffffffffffffffffffffffffffff021916908373ffffffffffffffffffffffffffffffffffffffff16021790555060c08201518160060160006101000a81548173ffffffffffffffffffffffffffffffffffffffff021916908373ffffffffffffffffffffffffffffffffffffffff16021790555060e08201518160060160146101000a81548160ff02191690831515021790555050506020820151816007019080519060200190611742929190614ab6565b5050505060018260e0019015159081151581525050338260c0019073ffffffffffffffffffffffffffffffffffffffff16908173ffffffffffffffffffffffffffffffffffffffff1681525050600260008360a0015173ffffffffffffffffffffffffffffffffffffffff1673ffffffffffffffffffffffffffffffffffffffff1681526020019081526020016000208290806001815401808255809150509060018203906000526020600020906007020160009091929091909150600082015181600001556020820151816001019080519060200190611824929190614ab6565b5060408201518160020155606082015181600301556080820151816004015560a08201518160050160006101000a81548173ffffffffffffffffffffffffffffffffffffffff021916908373ffffffffffffffffffffffffffffffffffffffff16021790555060c08201518160060160006101000a81548173ffffffffffffffffffffffffffffffffffffffff021916908373ffffffffffffffffffffffffffffffffffffffff16021790555060e08201518160060160146101000a81548160ff021916908315150217905550505050600260008360c0015173ffffffffffffffffffffffffffffffffffffffff1673ffffffffffffffffffffffffffffffffffffffff1681526020019081526020016000208290806001815401808255809150509060018203906000526020600020906007020160009091929091909150600082015181600001556020820151816001019080519060200190611989929190614ab6565b5060408201518160020155606082015181600301556080820151816004015560a08201518160050160006101000a81548173ffffffffffffffffffffffffffffffffffffffff021916908373ffffffffffffffffffffffffffffffffffffffff16021790555060c08201518160060160006101000a81548173ffffffffffffffffffffffffffffffffffffffff021916908373ffffffffffffffffffffffffffffffffffffffff16021790555060e08201518160060160146101000a81548160ff02191690831515021790555050505050505050565b60056020528160005260406000208181548110611a7857fe5b906000526020600020906008020160009150915050806000016040518061010001604052908160008201548152602001600182018054600181600116156101000203166002900480601f016020809104026020016040519081016040528092919081815260200182805460018160011615610100020316600290048015611b405780601f10611b1557610100808354040283529160200191611b40565b820191906000526020600020905b815481529060010190602001808311611b2357829003601f168201915b505050505081526020016002820154815260200160038201548152602001600482015481526020016005820160009054906101000a900473ffffffffffffffffffffffffffffffffffffffff1673ffffffffffffffffffffffffffffffffffffffff1673ffffffffffffffffffffffffffffffffffffffff1681526020016006820160009054906101000a900473ffffffffffffffffffffffffffffffffffffffff1673ffffffffffffffffffffffffffffffffffffffff1673ffffffffffffffffffffffffffffffffffffffff1681526020016006820160149054906101000a900460ff16151515158152505090806007018054600181600116156101000203166002900480601f016020809104026020016040519081016040528092919081815260200182805460018160011615610100020316600290048015611cc75780601f10611c9c57610100808354040283529160200191611cc7565b820191906000526020600020905b815481529060010190602001808311611caa57829003601f168201915b5050505050905082565b60008060008373ffffffffffffffffffffffffffffffffffffffff1673ffffffffffffffffffffffffffffffffffffffff168152602001908152602001600020600501549050919050565b6060600260008373ffffffffffffffffffffffffffffffffffffffff1673ffffffffffffffffffffffffffffffffffffffff168152602001908152602001600020805480602002602001604051908101604052809291908181526020016000905b82821015611f4157838290600052602060002090600702016040518061010001604052908160008201548152602001600182018054600181600116156101000203166002900480601f016020809104026020016040519081016040528092919081815260200182805460018160011615610100020316600290048015611e445780601f10611e1957610100808354040283529160200191611e44565b820191906000526020600020905b815481529060010190602001808311611e2757829003601f168201915b505050505081526020016002820154815260200160038201548152602001600482015481526020016005820160009054906101000a900473ffffffffffffffffffffffffffffffffffffffff1673ffffffffffffffffffffffffffffffffffffffff1673ffffffffffffffffffffffffffffffffffffffff1681526020016006820160009054906101000a900473ffffffffffffffffffffffffffffffffffffffff1673ffffffffffffffffffffffffffffffffffffffff1673ffffffffffffffffffffffffffffffffffffffff1681526020016006820160149054906101000a900460ff16151515158152505081526020019060010190611d7d565b505050509050919050565b6060600460008373ffffffffffffffffffffffffffffffffffffffff1673ffffffffffffffffffffffffffffffffffffffff168152602001908152602001600020805480602002602001604051908101604052809291908181526020016000905b8282101561217157838290600052602060002090600702016040518061010001604052908160008201548152602001600182018054600181600116156101000203166002900480601f0160208091040260200160405190810160405280929190818152602001828054600181600116156101000203166002900480156120745780601f1061204957610100808354040283529160200191612074565b820191906000526020600020905b81548152906001019060200180831161205757829003601f168201915b505050505081526020016002820154815260200160038201548152602001600482015481526020016005820160009054906101000a900473ffffffffffffffffffffffffffffffffffffffff1673ffffffffffffffffffffffffffffffffffffffff1673ffffffffffffffffffffffffffffffffffffffff1681526020016006820160009054906101000a900473ffffffffffffffffffffffffffffffffffffffff1673ffffffffffffffffffffffffffffffffffffffff1673ffffffffffffffffffffffffffffffffffffffff1681526020016006820160149054906101000a900460ff16151515158152505081526020019060010190611fad565b505050509050919050565b60606000808373ffffffffffffffffffffffffffffffffffffffff1673ffffffffffffffffffffffffffffffffffffffff1681526020019081526020016000206008018054600181600116156101000203166002900480601f0160208091040260200160405190810160405280929190818152602001828054600181600116156101000203166002900480156122535780601f1061222857610100808354040283529160200191612253565b820191906000526020600020905b81548152906001019060200180831161223657829003601f168201915b50505050509050919050565b6001818051602081018201805184825260208301602085012081835280955050505050506000915090508060000160009054906101000a900473ffffffffffffffffffffffffffffffffffffffff1690806001018054600181600116156101000203166002900480601f0160208091040260200160405190810160405280929190818152602001828054600181600116156101000203166002900480156123475780601f1061231c57610100808354040283529160200191612347565b820191906000526020600020905b81548152906001019060200180831161232a57829003601f168201915b505050505090806002018054600181600116156101000203166002900480601f0160208091040260200160405190810160405280929190818152602001828054600181600116156101000203166002900480156123e55780601f106123ba576101008083540402835291602001916123e5565b820191906000526020600020905b8154815290600101906020018083116123c857829003601f168201915b505050505090806003018054600181600116156101000203166002900480601f0160208091040260200160405190810160405280929190818152602001828054600181600116156101000203166002900480156124835780601f1061245857610100808354040283529160200191612483565b820191906000526020600020905b81548152906001019060200180831161246657829003601f168201915b505050505090806004018054600181600116156101000203166002900480601f0160208091040260200160405190810160405280929190818152602001828054600181600116156101000203166002900480156125215780601f106124f657610100808354040283529160200191612521565b820191906000526020600020905b81548152906001019060200180831161250457829003601f168201915b505050505090806005015490806006015490806007018054600181600116156101000203166002900480601f0160208091040260200160405190810160405280929190818152602001828054600181600116156101000203166002900480156125cb5780601f106125a0576101008083540402835291602001916125cb565b820191906000526020600020905b8154815290600101906020018083116125ae57829003601f168201915b505050505090806008018054600181600116156101000203166002900480601f0160208091040260200160405190810160405280929190818152602001828054600181600116156101000203166002900480156126695780601f1061263e57610100808354040283529160200191612669565b820191906000526020600020905b81548152906001019060200180831161264c57829003601f168201915b505050505090806009015490508a565b612681614bd6565b6000808373ffffffffffffffffffffffffffffffffffffffff1673ffffffffffffffffffffffffffffffffffffffff168152602001908152602001600020604051806101400160405290816000820160009054906101000a900473ffffffffffffffffffffffffffffffffffffffff1673ffffffffffffffffffffffffffffffffffffffff1673ffffffffffffffffffffffffffffffffffffffff168152602001600182018054600181600116156101000203166002900480601f0160208091040260200160405190810160405280929190818152602001828054600181600116156101000203166002900480156127ba5780601f1061278f576101008083540402835291602001916127ba565b820191906000526020600020905b81548152906001019060200180831161279d57829003601f168201915b50505050508152602001600282018054600181600116156101000203166002900480601f01602080910402602001604051908101604052809291908181526020018280546001816001161561010002031660029004801561285c5780601f106128315761010080835404028352916020019161285c565b820191906000526020600020905b81548152906001019060200180831161283f57829003601f168201915b50505050508152602001600382018054600181600116156101000203166002900480601f0160208091040260200160405190810160405280929190818152602001828054600181600116156101000203166002900480156128fe5780601f106128d3576101008083540402835291602001916128fe565b820191906000526020600020905b8154815290600101906020018083116128e157829003601f168201915b50505050508152602001600482018054600181600116156101000203166002900480601f0160208091040260200160405190810160405280929190818152602001828054600181600116156101000203166002900480156129a05780601f10612975576101008083540402835291602001916129a0565b820191906000526020600020905b81548152906001019060200180831161298357829003601f168201915b505050505081526020016005820154815260200160068201548152602001600782018054600181600116156101000203166002900480601f016020809104026020016040519081016040528092919081815260200182805460018160011615610100020316600290048015612a565780601f10612a2b57610100808354040283529160200191612a56565b820191906000526020600020905b815481529060010190602001808311612a3957829003601f168201915b50505050508152602001600882018054600181600116156101000203166002900480601f016020809104026020016040519081016040528092919081815260200182805460018160011615610100020316600290048015612af85780601f10612acd57610100808354040283529160200191612af8565b820191906000526020600020905b815481529060010190602001808311612adb57829003601f168201915b505050505081526020016009820154815250509050919050565b6060600760003373ffffffffffffffffffffffffffffffffffffffff1673ffffffffffffffffffffffffffffffffffffffff168152602001908152602001600020805480602002602001604051908101604052809291908181526020016000905b82821015612d3757838290600052602060002090600702016040518061010001604052908160008201548152602001600182018054600181600116156101000203166002900480601f016020809104026020016040519081016040528092919081815260200182805460018160011615610100020316600290048015612c3a5780601f10612c0f57610100808354040283529160200191612c3a565b820191906000526020600020905b815481529060010190602001808311612c1d57829003601f168201915b505050505081526020016002820154815260200160038201548152602001600482015481526020016005820160009054906101000a900473ffffffffffffffffffffffffffffffffffffffff1673ffffffffffffffffffffffffffffffffffffffff1673ffffffffffffffffffffffffffffffffffffffff1681526020016006820160009054906101000a900473ffffffffffffffffffffffffffffffffffffffff1673ffffffffffffffffffffffffffffffffffffffff1673ffffffffffffffffffffffffffffffffffffffff1681526020016006820160149054906101000a900460ff16151515158152505081526020019060010190612b73565b50505050905090565b60026020528160005260406000208181548110612d5957fe5b906000526020600020906007020160009150915050806000015490806001018054600181600116156101000203166002900480601f016020809104026020016040519081016040528092919081815260200182805460018160011615610100020316600290048015612e0c5780601f10612de157610100808354040283529160200191612e0c565b820191906000526020600020905b815481529060010190602001808311612def57829003601f168201915b5050505050908060020154908060030154908060040154908060050160009054906101000a900473ffffffffffffffffffffffffffffffffffffffff16908060060160009054906101000a900473ffffffffffffffffffffffffffffffffffffffff16908060060160149054906101000a900460ff16905088565b60046020528160005260406000208181548110612ea057fe5b906000526020600020906007020160009150915050806000015490806001018054600181600116156101000203166002900480601f016020809104026020016040519081016040528092919081815260200182805460018160011615610100020316600290048015612f535780601f10612f2857610100808354040283529160200191612f53565b820191906000526020600020905b815481529060010190602001808311612f3657829003601f168201915b5050505050908060020154908060030154908060040154908060050160009054906101000a900473ffffffffffffffffffffffffffffffffffffffff16908060060160009054906101000a900473ffffffffffffffffffffffffffffffffffffffff16908060060160149054906101000a900460ff16905088565b6060600360008373ffffffffffffffffffffffffffffffffffffffff1673ffffffffffffffffffffffffffffffffffffffff168152602001908152602001600020805480602002602001604051908101604052809291908181526020016000905b828210156131f357838290600052602060002090600702016040518061010001604052908160008201548152602001600182018054600181600116156101000203166002900480601f0160208091040260200160405190810160405280929190818152602001828054600181600116156101000203166002900480156130f65780601f106130cb576101008083540402835291602001916130f6565b820191906000526020600020905b8154815290600101906020018083116130d957829003601f168201915b505050505081526020016002820154815260200160038201548152602001600482015481526020016005820160009054906101000a900473ffffffffffffffffffffffffffffffffffffffff1673ffffffffffffffffffffffffffffffffffffffff1673ffffffffffffffffffffffffffffffffffffffff1681526020016006820160009054906101000a900473ffffffffffffffffffffffffffffffffffffffff1673ffffffffffffffffffffffffffffffffffffffff1673ffffffffffffffffffffffffffffffffffffffff1681526020016006820160149054906101000a900460ff1615151515815250508152602001906001019061302f565b505050509050919050565b6006602052806000526040600020600091509050806000015490806001018054600181600116156101000203166002900480601f0160208091040260200160405190810160405280929190818152602001828054600181600116156101000203166002900480156132b05780601f10613285576101008083540402835291602001916132b0565b820191906000526020600020905b81548152906001019060200180831161329357829003601f168201915b5050505050908060020154908060030154908060040154908060050160009054906101000a900473ffffffffffffffffffffffffffffffffffffffff16908060060160009054906101000a900473ffffffffffffffffffffffffffffffffffffffff16908060060160149054906101000a900460ff16905088565b613333614bd6565b60018260405161334391906156a0565b9081526020016040518091039020604051806101400160405290816000820160009054906101000a900473ffffffffffffffffffffffffffffffffffffffff1673ffffffffffffffffffffffffffffffffffffffff1673ffffffffffffffffffffffffffffffffffffffff168152602001600182018054600181600116156101000203166002900480601f01602080910402602001604051908101604052809291908181526020018280546001816001161561010002031660029004801561344c5780601f106134215761010080835404028352916020019161344c565b820191906000526020600020905b81548152906001019060200180831161342f57829003601f168201915b50505050508152602001600282018054600181600116156101000203166002900480601f0160208091040260200160405190810160405280929190818152602001828054600181600116156101000203166002900480156134ee5780601f106134c3576101008083540402835291602001916134ee565b820191906000526020600020905b8154815290600101906020018083116134d157829003601f168201915b50505050508152602001600382018054600181600116156101000203166002900480601f0160208091040260200160405190810160405280929190818152602001828054600181600116156101000203166002900480156135905780601f1061356557610100808354040283529160200191613590565b820191906000526020600020905b81548152906001019060200180831161357357829003601f168201915b50505050508152602001600482018054600181600116156101000203166002900480601f0160208091040260200160405190810160405280929190818152602001828054600181600116156101000203166002900480156136325780601f1061360757610100808354040283529160200191613632565b820191906000526020600020905b81548152906001019060200180831161361557829003601f168201915b505050505081526020016005820154815260200160068201548152602001600782018054600181600116156101000203166002900480601f0160208091040260200160405190810160405280929190818152602001828054600181600116156101000203166002900480156136e85780601f106136bd576101008083540402835291602001916136e8565b820191906000526020600020905b8154815290600101906020018083116136cb57829003601f168201915b50505050508152602001600882018054600181600116156101000203166002900480601f01602080910402602001604051908101604052809291908181526020018280546001816001161561010002031660029004801561378a5780601f1061375f5761010080835404028352916020019161378a565b820191906000526020600020905b81548152906001019060200180831161376d57829003601f168201915b505050505081526020016009820154815250509050919050565b60006020528060005260406000206000915090508060000160009054906101000a900473ffffffffffffffffffffffffffffffffffffffff1690806001018054600181600116156101000203166002900480601f0160208091040260200160405190810160405280929190818152602001828054600181600116156101000203166002900480156138765780601f1061384b57610100808354040283529160200191613876565b820191906000526020600020905b81548152906001019060200180831161385957829003601f168201915b505050505090806002018054600181600116156101000203166002900480601f0160208091040260200160405190810160405280929190818152602001828054600181600116156101000203166002900480156139145780601f106138e957610100808354040283529160200191613914565b820191906000526020600020905b8154815290600101906020018083116138f757829003601f168201915b505050505090806003018054600181600116156101000203166002900480601f0160208091040260200160405190810160405280929190818152602001828054600181600116156101000203166002900480156139b25780601f10613987576101008083540402835291602001916139b2565b820191906000526020600020905b81548152906001019060200180831161399557829003601f168201915b505050505090806004018054600181600116156101000203166002900480601f016020809104026020016040519081016040528092919081815260200182805460018160011615610100020316600290048015613a505780601f10613a2557610100808354040283529160200191613a50565b820191906000526020600020905b815481529060010190602001808311613a3357829003601f168201915b505050505090806005015490806006015490806007018054600181600116156101000203166002900480601f016020809104026020016040519081016040528092919081815260200182805460018160011615610100020316600290048015613afa5780601f10613acf57610100808354040283529160200191613afa565b820191906000526020600020905b815481529060010190602001808311613add57829003601f168201915b505050505090806008018054600181600116156101000203166002900480601f016020809104026020016040519081016040528092919081815260200182805460018160011615610100020316600290048015613b985780601f10613b6d57610100808354040283529160200191613b98565b820191906000526020600020905b815481529060010190602001808311613b7b57829003601f168201915b505050505090806009015490508a565b613bb0614a3d565b60008090505b600360003373ffffffffffffffffffffffffffffffffffffffff1673ffffffffffffffffffffffffffffffffffffffff16815260200190815260200160002080549050811015613e6c5782600360003373ffffffffffffffffffffffffffffffffffffffff1673ffffffffffffffffffffffffffffffffffffffff1681526020019081526020016000208281548110613c4b57fe5b9060005260206000209060070201600001541415613e5f57600360003373ffffffffffffffffffffffffffffffffffffffff1673ffffffffffffffffffffffffffffffffffffffff1681526020019081526020016000208181548110613cad57fe5b90600052602060002090600702016040518061010001604052908160008201548152602001600182018054600181600116156101000203166002900480601f016020809104026020016040519081016040528092919081815260200182805460018160011615610100020316600290048015613d6a5780601f10613d3f57610100808354040283529160200191613d6a565b820191906000526020600020905b815481529060010190602001808311613d4d57829003601f168201915b505050505081526020016002820154815260200160038201548152602001600482015481526020016005820160009054906101000a900473ffffffffffffffffffffffffffffffffffffffff1673ffffffffffffffffffffffffffffffffffffffff1673ffffffffffffffffffffffffffffffffffffffff1681526020016006820160009054906101000a900473ffffffffffffffffffffffffffffffffffffffff1673ffffffffffffffffffffffffffffffffffffffff1673ffffffffffffffffffffffffffffffffffffffff1681526020016006820160149054906101000a900460ff1615151515815250509150613e6c565b8080600101915050613bb6565b50600460003373ffffffffffffffffffffffffffffffffffffffff1673ffffffffffffffffffffffffffffffffffffffff1681526020019081526020016000208190806001815401808255809150509060018203906000526020600020906007020160009091929091909150600082015181600001556020820151816001019080519060200190613efe929190614ab6565b5060408201518160020155606082015181600301556080820151816004015560a08201518160050160006101000a81548173ffffffffffffffffffffffffffffffffffffffff021916908373ffffffffffffffffffffffffffffffffffffffff16021790555060c08201518160060160006101000a81548173ffffffffffffffffffffffffffffffffffffffff021916908373ffffffffffffffffffffffffffffffffffffffff16021790555060e08201518160060160146101000a81548160ff021916908315150217905550505050600260008260a0015173ffffffffffffffffffffffffffffffffffffffff1673ffffffffffffffffffffffffffffffffffffffff1681526020019081526020016000208190806001815401808255809150509060018203906000526020600020906007020160009091929091909150600082015181600001556020820151816001019080519060200190614063929190614ab6565b5060408201518160020155606082015181600301556080820151816004015560a08201518160050160006101000a81548173ffffffffffffffffffffffffffffffffffffffff021916908373ffffffffffffffffffffffffffffffffffffffff16021790555060c08201518160060160006101000a81548173ffffffffffffffffffffffffffffffffffffffff021916908373ffffffffffffffffffffffffffffffffffffffff16021790555060e08201518160060160146101000a81548160ff021916908315150217905550505050600260008260c0015173ffffffffffffffffffffffffffffffffffffffff1673ffffffffffffffffffffffffffffffffffffffff16815260200190815260200160002081908060018154018082558091505090600182039060005260206000209060070201600090919290919091506000820151816000015560208201518160010190805190602001906141c8929190614ab6565b5060408201518160020155606082015181600301556080820151816004015560a08201518160050160006101000a81548173ffffffffffffffffffffffffffffffffffffffff021916908373ffffffffffffffffffffffffffffffffffffffff16021790555060c08201518160060160006101000a81548173ffffffffffffffffffffffffffffffffffffffff021916908373ffffffffffffffffffffffffffffffffffffffff16021790555060e08201518160060160146101000a81548160ff0219169083151502179055505050508060c0015173ffffffffffffffffffffffffffffffffffffffff166108fc82606001519081150290604051600060405180830381858888f193505050501580156142e6573d6000803e3d6000fd5b508060a0015173ffffffffffffffffffffffffffffffffffffffff166108fc82608001519081150290604051600060405180830381858888f19350505050158015614335573d6000803e3d6000fd5b505050565b60008060008373ffffffffffffffffffffffffffffffffffffffff1673ffffffffffffffffffffffffffffffffffffffff168152602001908152602001600020600601549050919050565b60606000808373ffffffffffffffffffffffffffffffffffffffff1673ffffffffffffffffffffffffffffffffffffffff1681526020019081526020016000206007018054600181600116156101000203166002900480601f01602080910402602001604051908101604052809291908181526020018280546001816001161561010002031660029004801561445c5780601f106144315761010080835404028352916020019161445c565b820191906000526020600020905b81548152906001019060200180831161443f57829003601f168201915b50505050509050919050565b60006144748887614a0a565b90506000339050614483614bd6565b6040518061014001604052808373ffffffffffffffffffffffffffffffffffffffff1681526020018b81526020018a815260200189815260200188815260200160008152602001848152602001878152602001868152602001858152509050806000803373ffffffffffffffffffffffffffffffffffffffff1673ffffffffffffffffffffffffffffffffffffffff16815260200190815260200160002060008201518160000160006101000a81548173ffffffffffffffffffffffffffffffffffffffff021916908373ffffffffffffffffffffffffffffffffffffffff1602179055506020820151816001019080519060200190614584929190614ab6565b5060408201518160020190805190602001906145a1929190614ab6565b5060608201518160030190805190602001906145be929190614ab6565b5060808201518160040190805190602001906145db929190614ab6565b5060a0820151816005015560c0820151816006015560e082015181600701908051906020019061460c929190614ab6565b5061010082015181600801908051906020019061462a929190614ab6565b5061012082015181600901559050508060018b60405161464a91906156a0565b908152602001604051809103902060008201518160000160006101000a81548173ffffffffffffffffffffffffffffffffffffffff021916908373ffffffffffffffffffffffffffffffffffffffff16021790555060208201518160010190805190602001906146bb929190614ab6565b5060408201518160020190805190602001906146d8929190614ab6565b5060608201518160030190805190602001906146f5929190614ab6565b506080820151816004019080519060200190614712929190614ab6565b5060a0820151816005015560c0820151816006015560e0820151816007019080519060200190614743929190614ab6565b50610100820151816008019080519060200190614761929190614ab6565b50610120820151816009015590505050505050505050505050565b6007602052816000526040600020818154811061479557fe5b906000526020600020906007020160009150915050806000015490806001018054600181600116156101000203166002900480601f0160208091040260200160405190810160405280929190818152602001828054600181600116156101000203166002900480156148485780601f1061481d57610100808354040283529160200191614848565b820191906000526020600020905b81548152906001019060200180831161482b57829003601f168201915b5050505050908060020154908060030154908060040154908060050160009054906101000a900473ffffffffffffffffffffffffffffffffffffffff16908060060160009054906101000a900473ffffffffffffffffffffffffffffffffffffffff16908060060160149054906101000a900460ff16905088565b600360205281600052604060002081815481106148dc57fe5b906000526020600020906007020160009150915050806000015490806001018054600181600116156101000203166002900480601f01602080910402602001604051908101604052809291908181526020018280546001816001161561010002031660029004801561498f5780601f106149645761010080835404028352916020019161498f565b820191906000526020600020905b81548152906001019060200180831161497257829003601f168201915b5050505050908060020154908060030154908060040154908060050160009054906101000a900473ffffffffffffffffffffffffffffffffffffffff16908060060160009054906101000a900473ffffffffffffffffffffffffffffffffffffffff16908060060160149054906101000a900460ff16905088565b60008282604051602001614a1f929190615723565b60405160208183030381529060405280519060200120905092915050565b6040518061010001604052806000801916815260200160608152602001600080191681526020016000815260200160008152602001600073ffffffffffffffffffffffffffffffffffffffff168152602001600073ffffffffffffffffffffffffffffffffffffffff1681526020016000151581525090565b828054600181600116156101000203166002900490600052602060002090601f016020900481019282601f10614af757805160ff1916838001178555614b25565b82800160010185558215614b25579182015b82811115614b24578251825591602001919060010190614b09565b5b509050614b329190614c42565b5090565b828054600181600116156101000203166002900490600052602060002090601f016020900481019282601f10614b7757805160ff1916838001178555614ba5565b82800160010185558215614ba5579182015b82811115614ba4578251825591602001919060010190614b89565b5b509050614bb29190614c42565b5090565b6040518060400160405280614bc9614c67565b8152602001606081525090565b604051806101400160405280600073ffffffffffffffffffffffffffffffffffffffff1681526020016060815260200160608152602001606081526020016060815260200160008152602001600080191681526020016060815260200160608152602001600081525090565b614c6491905b80821115614c60576000816000905550600101614c48565b5090565b90565b6040518061010001604052806000801916815260200160608152602001600080191681526020016000815260200160008152602001600073ffffffffffffffffffffffffffffffffffffffff168152602001600073ffffffffffffffffffffffffffffffffffffffff1681526020016000151581525090565b600081359050614cef81615bbd565b92915050565b600081359050614d0481615bd4565b92915050565b600081359050614d1981615beb565b92915050565b600082601f830112614d3057600080fd5b8135614d43614d3e826159b4565b615987565b91508082526020830160208301858383011115614d5f57600080fd5b614d6a838284615b25565b50505092915050565b600082601f830112614d8457600080fd5b8135614d97614d92826159e0565b615987565b91508082526020830160208301858383011115614db357600080fd5b614dbe838284615b25565b50505092915050565b600081359050614dd681615c02565b92915050565b600060208284031215614dee57600080fd5b6000614dfc84828501614ce0565b91505092915050565b60008060408385031215614e1857600080fd5b6000614e2685828601614ce0565b9250506020614e3785828601614dc7565b9150509250929050565b600060208284031215614e5357600080fd5b6000614e6184828501614d0a565b91505092915050565b60008060408385031215614e7d57600080fd5b6000614e8b85828601614d0a565b925050602083013567ffffffffffffffff811115614ea857600080fd5b614eb485828601614d73565b9150509250929050565b600060208284031215614ed057600080fd5b600082013567ffffffffffffffff811115614eea57600080fd5b614ef684828501614d1f565b91505092915050565b600060208284031215614f1157600080fd5b600082013567ffffffffffffffff811115614f2b57600080fd5b614f3784828501614d73565b91505092915050565b600080600080600080600060e0888a031215614f5b57600080fd5b600088013567ffffffffffffffff811115614f7557600080fd5b614f818a828b01614d73565b975050602088013567ffffffffffffffff811115614f9e57600080fd5b614faa8a828b01614d73565b965050604088013567ffffffffffffffff811115614fc757600080fd5b614fd38a828b01614d73565b955050606088013567ffffffffffffffff811115614ff057600080fd5b614ffc8a828b01614d73565b945050608088013567ffffffffffffffff81111561501957600080fd5b6150258a828b01614d73565b93505060a088013567ffffffffffffffff81111561504257600080fd5b61504e8a828b01614d73565b92505060c061505f8a828b01614dc7565b91505092959891949750929550565b60008060006060848603121561508357600080fd5b600084013567ffffffffffffffff81111561509d57600080fd5b6150a986828701614d73565b935050602084013567ffffffffffffffff8111156150c657600080fd5b6150d286828701614d73565b92505060406150e386828701614dc7565b9150509250925092565b60008060006060848603121561510257600080fd5b600084013567ffffffffffffffff81111561511c57600080fd5b61512886828701614d73565b935050602061513986828701614dc7565b925050604061514a86828701614cf5565b9150509250925092565b600061516083836153ca565b905092915050565b6000615174838361540e565b905092915050565b61518581615ad3565b82525050565b61519481615ad3565b82525050565b6151ab6151a682615ad3565b615b67565b82525050565b60006151bc82615a2c565b6151c68185615a72565b9350836020820285016151d885615a0c565b8060005b8581101561521457848403895281516151f58582615154565b945061520083615a58565b925060208a019950506001810190506151dc565b50829750879550505050505092915050565b600061523182615a37565b61523b8185615a83565b93508360208202850161524d85615a1c565b8060005b85811015615289578484038952815161526a8582615168565b945061527583615a65565b925060208a01995050600181019050615251565b50829750879550505050505092915050565b6152a481615ae5565b82525050565b6152b381615ae5565b82525050565b6152c281615af1565b82525050565b6152d181615af1565b82525050565b6152e86152e382615af1565b615b79565b82525050565b60006152f982615a4d565b6153038185615aa5565b9350615313818560208601615b34565b61531c81615b9f565b840191505092915050565b600061533282615a4d565b61533c8185615ab6565b935061534c818560208601615b34565b80840191505092915050565b600061536382615a42565b61536d8185615a94565b935061537d818560208601615b34565b61538681615b9f565b840191505092915050565b600061539c82615a42565b6153a68185615aa5565b93506153b6818560208601615b34565b6153bf81615b9f565b840191505092915050565b600060408301600083015184820360008601526153e7828261540e565b915050602083015184820360208601526154018282615358565b9150508091505092915050565b60006101008301600083015161542760008601826152b9565b506020830151848203602086015261543f8282615358565b915050604083015161545460408601826152b9565b506060830151615467606086018261566b565b50608083015161547a608086018261566b565b5060a083015161548d60a086018261517c565b5060c08301516154a060c086018261517c565b5060e08301516154b360e086018261529b565b508091505092915050565b6000610100830160008301516154d760008601826152b9565b50602083015184820360208601526154ef8282615358565b915050604083015161550460408601826152b9565b506060830151615517606086018261566b565b50608083015161552a608086018261566b565b5060a083015161553d60a086018261517c565b5060c083015161555060c086018261517c565b5060e083015161556360e086018261529b565b508091505092915050565b600061014083016000830151615587600086018261517c565b506020830151848203602086015261559f8282615358565b915050604083015184820360408601526155b98282615358565b915050606083015184820360608601526155d38282615358565b915050608083015184820360808601526155ed8282615358565b91505060a083015161560260a086018261566b565b5060c083015161561560c08601826152b9565b5060e083015184820360e086015261562d8282615358565b9150506101008301518482036101008601526156498282615358565b91505061012083015161566061012086018261566b565b508091505092915050565b61567481615b1b565b82525050565b61568381615b1b565b82525050565b61569a61569582615b1b565b615b95565b82525050565b60006156ac8284615327565b915081905092915050565b60006156c38289615327565b91506156cf82886152d7565b6020820191506156df8287615689565b6020820191506156ef8286615689565b6020820191506156ff828561519a565b60148201915061570f828461519a565b601482019150819050979650505050505050565b600061572f8285615327565b915061573b8284615327565b91508190509392505050565b60006101408201905061575d600083018d61518b565b818103602083015261576f818c615391565b90508181036040830152615783818b615391565b90508181036060830152615797818a615391565b905081810360808301526157ab8189615391565b90506157ba60a083018861567a565b6157c760c08301876152c8565b81810360e08301526157d98186615391565b90508181036101008301526157ee8185615391565b90506157fe61012083018461567a565b9b9a5050505050505050505050565b6000602082019050818103600083015261582781846151b1565b905092915050565b600060208201905081810360008301526158498184615226565b905092915050565b600060208201905061586660008301846152c8565b92915050565b600061010082019050615882600083018b6152c8565b8181036020830152615894818a615391565b90506158a360408301896152c8565b6158b0606083018861567a565b6158bd608083018761567a565b6158ca60a083018661518b565b6158d760c083018561518b565b6158e460e08301846152aa565b9998505050505050505050565b6000602082019050818103600083015261590b81846152ee565b905092915050565b6000604082019050818103600083015261592d81856154be565b905081810360208301526159418184615391565b90509392505050565b60006020820190508181036000830152615964818461556e565b905092915050565b6000602082019050615981600083018461567a565b92915050565b6000604051905081810181811067ffffffffffffffff821117156159aa57600080fd5b8060405250919050565b600067ffffffffffffffff8211156159cb57600080fd5b601f19601f8301169050602081019050919050565b600067ffffffffffffffff8211156159f757600080fd5b601f19601f8301169050602081019050919050565b6000819050602082019050919050565b6000819050602082019050919050565b600081519050919050565b600081519050919050565b600081519050919050565b600081519050919050565b6000602082019050919050565b6000602082019050919050565b600082825260208201905092915050565b600082825260208201905092915050565b600082825260208201905092915050565b600082825260208201905092915050565b600081905092915050565b6000615acc82615afb565b9050919050565b6000615ade82615afb565b9050919050565b60008115159050919050565b6000819050919050565b600073ffffffffffffffffffffffffffffffffffffffff82169050919050565b6000819050919050565b82818337600083830152505050565b60005b83811015615b52578082015181840152602081019050615b37565b83811115615b61576000848401525b50505050565b6000615b7282615b83565b9050919050565b6000819050919050565b6000615b8e82615bb0565b9050919050565b6000819050919050565b6000601f19601f8301169050919050565b60008160601b9050919050565b615bc681615ac1565b8114615bd157600080fd5b50565b615bdd81615ad3565b8114615be857600080fd5b50565b615bf481615af1565b8114615bff57600080fd5b50565b615c0b81615b1b565b8114615c1657600080fd5b5056fea365627a7a7231582010abf518a44b1d0ac893b2406d854d048f38619d4e519eb7a8cc1a272e9da43e6c6578706572696d656e74616cf564736f6c63430005100040",
  "source": "// SPDX-License-Identifier: MIT\npragma solidity >=0.5.0 <0.9.0;\npragma experimental ABIEncoderV2;\n\ncontract BuyAnAnswer {\n    // the front end will be able to call the following:\n    // - create user\n    // - update user\n    //  - get user by username\n    // - post question to user by choosing user address\n    // - post answer to question received by choosing questionID\n    // - decline question received by choosing questionID\n    // - get user history (all questions and answers)\n    // - get unanswered questions\n    // - get received questions\n    // - get declined questions\n    // - get answered questions\n    // - get user balance\n\n    // CREATE ALL NECESSARY EVENTS\n\n    struct User {\n        address payable userAddress;\n        string username;\n        string name;\n        string email;\n        string password;\n        uint256 balance;\n        bytes32 boardID;\n        string headline;\n        string bio;\n        uint256 minimumPrice;\n        // Social[] socials;\n    }\n\n    struct Social {\n        string platform;\n        string socialUrl;\n    }\n\n    struct Question {\n        bytes32 questionID;\n        string questionText;\n        bytes32 boardID;\n        uint256 price;\n        uint256 priorityBonus;\n        address payable askUser;\n        address payable answerUser;\n        bool isAnswered;\n    }\n\n    struct Answer {\n        Question question;\n        string answerText;\n    }\n\n    mapping(address => User) public users;\n    mapping(string => User) public usersByUsername;\n    mapping(address => Question[]) public history;\n    mapping(address => Question[]) public receivedQuestions;\n    mapping(address => Question[]) public declinedQuestions;\n    mapping(address => Answer[]) public answeredQuestions;\n    mapping(bytes32 => Question) public questions;\n\n    // create social\n\n    // function createSocial(\n    //     string memory _platform,\n    //     string memory _socialUrl\n    // ) public {\n    //     Social memory newSocial = Social(_platform, _socialUrl);\n    //     users[msg.sender].socials.push(newSocial);\n    // }\n\n    function createBoardID(string memory usrnm, string memory eml)\n        internal\n        returns (bytes32)\n    {\n        return keccak256(abi.encodePacked(usrnm, eml));\n    }\n\n    // create user\n\n    function createUser(\n        string memory _username,\n        string memory _name,\n        string memory _email,\n        string memory _password,\n        // bytes32 _boardID,\n        string memory _headline,\n        string memory _bio,\n        uint256 _minimumPrice\n    ) public // Social[] memory _socials\n    {\n        // check if there is already a user with this address\n        // if yes, throw error\n        // if no, create user\n\n        // checking if user exists\n\n        // if (users[msg.sender].username != \"\") {\n        //     revert(\"User already exists\");\n        // }\n\n        bytes32 _boardID = createBoardID(_username, _email);\n\n        address payable userAddress = msg.sender;\n\n        User memory newUser = User(\n            userAddress,\n            _username,\n            _name,\n            _email,\n            _password,\n            0,\n            _boardID,\n            _headline,\n            _bio,\n            _minimumPrice\n            // _socials,\n            // new Question[](0)\n        );\n        users[msg.sender] = newUser;\n        usersByUsername[_username] = newUser;\n    }\n\n    // get user\n\n    function getUser(address _userAddress) public view returns (User memory) {\n        return users[_userAddress];\n    }\n\n    // update user (only update headline, bio, minimum price)\n\n    function updateUser(\n        string memory _headline,\n        string memory _bio,\n        uint256 _minimumPrice\n    ) public {\n        users[msg.sender].headline = _headline;\n        users[msg.sender].bio = _bio;\n        users[msg.sender].minimumPrice = _minimumPrice;\n    }\n\n    // post question from user to another user\n\n    function postQuestion(\n        string memory _questionText,\n        uint256 _priorityBonus,\n        address payable _answerUser\n    ) public payable {\n        Question memory newQuestion = Question(\n            keccak256(\n                abi.encodePacked(\n                    _questionText,\n                    getUser(_answerUser).boardID,\n                    (getUser(_answerUser).minimumPrice + _priorityBonus),\n                    _priorityBonus,\n                    msg.sender,\n                    _answerUser\n                )\n            ),\n            _questionText,\n            getUser(_answerUser).boardID,\n            (getUser(_answerUser).minimumPrice + _priorityBonus),\n            _priorityBonus,\n            msg.sender,\n            _answerUser,\n            false\n        );\n        history[msg.sender].push(newQuestion);\n        history[_answerUser].push(newQuestion);\n        unansweredQuestions[_answerUser].push(newQuestion);\n        questions[\n            keccak256(\n                abi.encodePacked(\n                    _questionText,\n                    getUser(_answerUser).boardID,\n                    (getUser(_answerUser).minimumPrice + _priorityBonus),\n                    _priorityBonus,\n                    msg.sender,\n                    _answerUser\n                )\n            )\n        ] = newQuestion;\n        receivedQuestions[_answerUser].push(newQuestion);\n    }\n\n    // post answer from user to question\n\n    function postAnswer(bytes32 _questionID, string memory _answerText)\n        public\n        payable\n    {\n        Question memory question;\n        for (uint256 i = 0; i < receivedQuestions[msg.sender].length; i++) {\n            if (receivedQuestions[msg.sender][i].questionID == _questionID) {\n                question = receivedQuestions[msg.sender][i];\n                break;\n            }\n        }\n        Answer memory newAnswer = Answer(question, _answerText);\n\n        answeredQuestions[msg.sender].push(newAnswer);\n\n        question.isAnswered = true;\n        question.answerUser = msg.sender;\n        history[question.askUser].push(question);\n        history[question.answerUser].push(question);\n        // question.answerUser.transfer(question.price);\n        // question.askUser.transfer(question.priorityBonus);\n        // payable(question.answerUser).transfer(question.price);\n        // payable(question.askUser).transfer(question.price);\n    }\n\n    // decline question from user to question\n\n    function declineQuestion(bytes32 _questionID) public payable {\n        Question memory question;\n        for (uint256 i = 0; i < receivedQuestions[msg.sender].length; i++) {\n            if (receivedQuestions[msg.sender][i].questionID == _questionID) {\n                question = receivedQuestions[msg.sender][i];\n                break;\n            }\n        }\n        declinedQuestions[msg.sender].push(question);\n        history[question.askUser].push(question);\n        history[question.answerUser].push(question);\n        question.answerUser.transfer(question.price);\n        question.askUser.transfer(question.priorityBonus);\n    }\n\n    // get user history\n\n    function getUserHistory(address _userAddress)\n        public\n        view\n        returns (Question[] memory)\n    {\n        return history[_userAddress];\n    }\n\n    // create mapping for unanswered questions\n\n    mapping(address => Question[]) public unansweredQuestions;\n\n    // get unanswered questions\n\n    function getUnansweredQuestions() public view returns (Question[] memory) {\n        return unansweredQuestions[msg.sender];\n    }\n\n    // get user received questions\n\n    function getUserReceivedQuestions(address _userAddress)\n        public\n        view\n        returns (Question[] memory)\n    {\n        return receivedQuestions[_userAddress];\n    }\n\n    // get user declined questions\n\n    function getUserDeclinedQuestions(address _userAddress)\n        public\n        view\n        returns (Question[] memory)\n    {\n        return declinedQuestions[_userAddress];\n    }\n\n    // get user answered questions\n\n    function getUserAnsweredQuestions(address _userAddress)\n        public\n        view\n        returns (Answer[] memory)\n    {\n        return answeredQuestions[_userAddress];\n    }\n\n    // get user balance\n\n    function getUserBalance(address _userAddress)\n        public\n        view\n        returns (uint256)\n    {\n        return users[_userAddress].balance;\n    }\n\n    // get user boardID\n\n    function getUserBoardID(address _userAddress)\n        public\n        view\n        returns (bytes32)\n    {\n        return users[_userAddress].boardID;\n    }\n\n    // get user headline\n\n    function getUserHeadline(address _userAddress)\n        public\n        view\n        returns (string memory)\n    {\n        return users[_userAddress].headline;\n    }\n\n    // get user bio\n\n    function getUserBio(address _userAddress)\n        public\n        view\n        returns (string memory)\n    {\n        return users[_userAddress].bio;\n    }\n\n    // get user minimum price\n\n    function getUserMinimumPrice(address _userAddress)\n        public\n        view\n        returns (uint256)\n    {\n        return users[_userAddress].minimumPrice;\n    }\n\n    // get user socials\n\n    // function getUserSocials(address _userAddress) public view returns (Social[] memory) {\n    //     return users[_userAddress].socials;\n    // }\n\n    // get user socials by platform\n\n    // function getUserSocialsByPlatform(address _userAddress, string memory _platform) public view returns (Social memory) {\n    //     for (uint256 i = 0; i < users[_userAddress].socials.length; i++) {\n    //         if (keccak256(abi.encodePacked(users[_userAddress].socials[i].platform)) == keccak256(abi.encodePacked(_platform))) {\n    //             return users[_userAddress].socials[i];\n    //         }\n    //     }\n    // }\n\n    // get user by username\n\n    function getUserByUsername(string memory _username)\n        public\n        view\n        returns (User memory)\n    {\n        return usersByUsername[_username];\n    }\n}\n",
  "sourcePath": "/Users/jayanthkomarraju/Documents/GitHub/buyananswer.eth/contracts/BuyAnAnswer.sol",
  "compiler": {
    "name": "solc",
    "version": "0.5.16+commit.9c3226ce.Emscripten.clang"
  },
  "schemaVersion": "3.2.3",
  "updatedAt": "2023-02-06T06:00:14.658Z",
  "devdoc": {
    "methods": {}
  },
  "userdoc": {
    "methods": {}
  }
}