{
  "contractName": "BuyAnAnswer",
  "abi": [
    {
      "constant": true,
      "inputs": [
        {
          "name": "",
          "type": "address"
        },
        {
          "name": "",
          "type": "uint256"
        }
      ],
      "name": "answeredQuestions",
      "outputs": [
        {
          "components": [
            {
              "name": "questionID",
              "type": "bytes32"
            },
            {
              "name": "questionText",
              "type": "string"
            },
            {
              "name": "boardID",
              "type": "bytes32"
            },
            {
              "name": "price",
              "type": "uint256"
            },
            {
              "name": "priorityBonus",
              "type": "uint256"
            },
            {
              "name": "askUser",
              "type": "address"
            },
            {
              "name": "answerUser",
              "type": "address"
            },
            {
              "name": "isAnswered",
              "type": "bool"
            }
          ],
          "name": "question",
          "type": "tuple"
        },
        {
          "name": "answerText",
          "type": "string"
        }
      ],
      "payable": false,
      "stateMutability": "view",
      "type": "function"
    },
    {
      "constant": true,
      "inputs": [
        {
          "name": "",
          "type": "address"
        }
      ],
      "name": "usernameByAddress",
      "outputs": [
        {
          "name": "",
          "type": "string"
        }
      ],
      "payable": false,
      "stateMutability": "view",
      "type": "function"
    },
    {
      "constant": true,
      "inputs": [
        {
          "name": "",
          "type": "address"
        },
        {
          "name": "",
          "type": "uint256"
        }
      ],
      "name": "askedQuestions",
      "outputs": [
        {
          "name": "questionID",
          "type": "bytes32"
        },
        {
          "name": "questionText",
          "type": "string"
        },
        {
          "name": "boardID",
          "type": "bytes32"
        },
        {
          "name": "price",
          "type": "uint256"
        },
        {
          "name": "priorityBonus",
          "type": "uint256"
        },
        {
          "name": "askUser",
          "type": "address"
        },
        {
          "name": "answerUser",
          "type": "address"
        },
        {
          "name": "isAnswered",
          "type": "bool"
        }
      ],
      "payable": false,
      "stateMutability": "view",
      "type": "function"
    },
    {
      "constant": true,
      "inputs": [
        {
          "name": "",
          "type": "address"
        },
        {
          "name": "",
          "type": "uint256"
        }
      ],
      "name": "history",
      "outputs": [
        {
          "name": "questionID",
          "type": "bytes32"
        },
        {
          "name": "questionText",
          "type": "string"
        },
        {
          "name": "boardID",
          "type": "bytes32"
        },
        {
          "name": "price",
          "type": "uint256"
        },
        {
          "name": "priorityBonus",
          "type": "uint256"
        },
        {
          "name": "askUser",
          "type": "address"
        },
        {
          "name": "answerUser",
          "type": "address"
        },
        {
          "name": "isAnswered",
          "type": "bool"
        }
      ],
      "payable": false,
      "stateMutability": "view",
      "type": "function"
    },
    {
      "constant": true,
      "inputs": [
        {
          "name": "",
          "type": "address"
        },
        {
          "name": "",
          "type": "uint256"
        }
      ],
      "name": "declinedQuestions",
      "outputs": [
        {
          "name": "questionID",
          "type": "bytes32"
        },
        {
          "name": "questionText",
          "type": "string"
        },
        {
          "name": "boardID",
          "type": "bytes32"
        },
        {
          "name": "price",
          "type": "uint256"
        },
        {
          "name": "priorityBonus",
          "type": "uint256"
        },
        {
          "name": "askUser",
          "type": "address"
        },
        {
          "name": "answerUser",
          "type": "address"
        },
        {
          "name": "isAnswered",
          "type": "bool"
        }
      ],
      "payable": false,
      "stateMutability": "view",
      "type": "function"
    },
    {
      "constant": true,
      "inputs": [
        {
          "name": "",
          "type": "bytes32"
        }
      ],
      "name": "questions",
      "outputs": [
        {
          "name": "questionID",
          "type": "bytes32"
        },
        {
          "name": "questionText",
          "type": "string"
        },
        {
          "name": "boardID",
          "type": "bytes32"
        },
        {
          "name": "price",
          "type": "uint256"
        },
        {
          "name": "priorityBonus",
          "type": "uint256"
        },
        {
          "name": "askUser",
          "type": "address"
        },
        {
          "name": "answerUser",
          "type": "address"
        },
        {
          "name": "isAnswered",
          "type": "bool"
        }
      ],
      "payable": false,
      "stateMutability": "view",
      "type": "function"
    },
    {
      "constant": true,
      "inputs": [
        {
          "name": "",
          "type": "address"
        }
      ],
      "name": "users",
      "outputs": [
        {
          "name": "userAddress",
          "type": "address"
        },
        {
          "name": "username",
          "type": "string"
        },
        {
          "name": "name",
          "type": "string"
        },
        {
          "name": "email",
          "type": "string"
        },
        {
          "name": "password",
          "type": "string"
        },
        {
          "name": "balance",
          "type": "uint256"
        },
        {
          "name": "boardID",
          "type": "bytes32"
        },
        {
          "name": "headline",
          "type": "string"
        },
        {
          "name": "bio",
          "type": "string"
        },
        {
          "name": "minimumPrice",
          "type": "uint256"
        }
      ],
      "payable": false,
      "stateMutability": "view",
      "type": "function"
    },
    {
      "constant": true,
      "inputs": [
        {
          "name": "",
          "type": "address"
        },
        {
          "name": "",
          "type": "uint256"
        }
      ],
      "name": "unansweredQuestions",
      "outputs": [
        {
          "name": "questionID",
          "type": "bytes32"
        },
        {
          "name": "questionText",
          "type": "string"
        },
        {
          "name": "boardID",
          "type": "bytes32"
        },
        {
          "name": "price",
          "type": "uint256"
        },
        {
          "name": "priorityBonus",
          "type": "uint256"
        },
        {
          "name": "askUser",
          "type": "address"
        },
        {
          "name": "answerUser",
          "type": "address"
        },
        {
          "name": "isAnswered",
          "type": "bool"
        }
      ],
      "payable": false,
      "stateMutability": "view",
      "type": "function"
    },
    {
      "constant": true,
      "inputs": [
        {
          "name": "",
          "type": "address"
        },
        {
          "name": "",
          "type": "uint256"
        }
      ],
      "name": "receivedQuestions",
      "outputs": [
        {
          "name": "questionID",
          "type": "bytes32"
        },
        {
          "name": "questionText",
          "type": "string"
        },
        {
          "name": "boardID",
          "type": "bytes32"
        },
        {
          "name": "price",
          "type": "uint256"
        },
        {
          "name": "priorityBonus",
          "type": "uint256"
        },
        {
          "name": "askUser",
          "type": "address"
        },
        {
          "name": "answerUser",
          "type": "address"
        },
        {
          "name": "isAnswered",
          "type": "bool"
        }
      ],
      "payable": false,
      "stateMutability": "view",
      "type": "function"
    },
    {
      "anonymous": false,
      "inputs": [
        {
          "indexed": false,
          "name": "userAddress",
          "type": "address"
        },
        {
          "indexed": false,
          "name": "username",
          "type": "string"
        },
        {
          "indexed": false,
          "name": "name",
          "type": "string"
        },
        {
          "indexed": false,
          "name": "email",
          "type": "string"
        },
        {
          "indexed": false,
          "name": "password",
          "type": "string"
        },
        {
          "indexed": false,
          "name": "balance",
          "type": "uint256"
        },
        {
          "indexed": false,
          "name": "boardID",
          "type": "bytes32"
        },
        {
          "indexed": false,
          "name": "headline",
          "type": "string"
        },
        {
          "indexed": false,
          "name": "bio",
          "type": "string"
        },
        {
          "indexed": false,
          "name": "minimumPrice",
          "type": "uint256"
        }
      ],
      "name": "UserCreated",
      "type": "event"
    },
    {
      "anonymous": false,
      "inputs": [
        {
          "indexed": false,
          "name": "userAddress",
          "type": "address"
        },
        {
          "indexed": false,
          "name": "username",
          "type": "string"
        },
        {
          "indexed": false,
          "name": "name",
          "type": "string"
        },
        {
          "indexed": false,
          "name": "email",
          "type": "string"
        },
        {
          "indexed": false,
          "name": "password",
          "type": "string"
        },
        {
          "indexed": false,
          "name": "balance",
          "type": "uint256"
        },
        {
          "indexed": false,
          "name": "boardID",
          "type": "bytes32"
        },
        {
          "indexed": false,
          "name": "headline",
          "type": "string"
        },
        {
          "indexed": false,
          "name": "bio",
          "type": "string"
        },
        {
          "indexed": false,
          "name": "minimumPrice",
          "type": "uint256"
        }
      ],
      "name": "UserUpdated",
      "type": "event"
    },
    {
      "anonymous": false,
      "inputs": [
        {
          "indexed": false,
          "name": "questionID",
          "type": "bytes32"
        },
        {
          "indexed": false,
          "name": "questionText",
          "type": "string"
        },
        {
          "indexed": false,
          "name": "boardID",
          "type": "bytes32"
        },
        {
          "indexed": false,
          "name": "price",
          "type": "uint256"
        },
        {
          "indexed": false,
          "name": "priorityBonus",
          "type": "uint256"
        },
        {
          "indexed": false,
          "name": "askUser",
          "type": "address"
        },
        {
          "indexed": false,
          "name": "answerUser",
          "type": "address"
        },
        {
          "indexed": false,
          "name": "isAnswered",
          "type": "bool"
        }
      ],
      "name": "QuestionPosted",
      "type": "event"
    },
    {
      "anonymous": false,
      "inputs": [
        {
          "indexed": false,
          "name": "questionID",
          "type": "bytes32"
        },
        {
          "indexed": false,
          "name": "questionText",
          "type": "string"
        },
        {
          "indexed": false,
          "name": "boardID",
          "type": "bytes32"
        },
        {
          "indexed": false,
          "name": "price",
          "type": "uint256"
        },
        {
          "indexed": false,
          "name": "priorityBonus",
          "type": "uint256"
        },
        {
          "indexed": false,
          "name": "askUser",
          "type": "address"
        },
        {
          "indexed": false,
          "name": "answerUser",
          "type": "address"
        },
        {
          "indexed": false,
          "name": "isAnswered",
          "type": "bool"
        }
      ],
      "name": "AnswerPosted",
      "type": "event"
    },
    {
      "anonymous": false,
      "inputs": [
        {
          "indexed": false,
          "name": "questionID",
          "type": "bytes32"
        },
        {
          "indexed": false,
          "name": "questionText",
          "type": "string"
        },
        {
          "indexed": false,
          "name": "boardID",
          "type": "bytes32"
        },
        {
          "indexed": false,
          "name": "price",
          "type": "uint256"
        },
        {
          "indexed": false,
          "name": "priorityBonus",
          "type": "uint256"
        },
        {
          "indexed": false,
          "name": "askUser",
          "type": "address"
        },
        {
          "indexed": false,
          "name": "answerUser",
          "type": "address"
        },
        {
          "indexed": false,
          "name": "isAnswered",
          "type": "bool"
        }
      ],
      "name": "QuestionDeclined",
      "type": "event"
    },
    {
      "constant": false,
      "inputs": [
        {
          "name": "_username",
          "type": "string"
        },
        {
          "name": "_name",
          "type": "string"
        },
        {
          "name": "_email",
          "type": "string"
        },
        {
          "name": "_password",
          "type": "string"
        },
        {
          "name": "_headline",
          "type": "string"
        },
        {
          "name": "_bio",
          "type": "string"
        },
        {
          "name": "_minimumPrice",
          "type": "uint256"
        }
      ],
      "name": "createUser",
      "outputs": [],
      "payable": false,
      "stateMutability": "nonpayable",
      "type": "function"
    },
    {
      "constant": true,
      "inputs": [
        {
          "name": "_userAddress",
          "type": "address"
        }
      ],
      "name": "getUser",
      "outputs": [
        {
          "components": [
            {
              "name": "userAddress",
              "type": "address"
            },
            {
              "name": "username",
              "type": "string"
            },
            {
              "name": "name",
              "type": "string"
            },
            {
              "name": "email",
              "type": "string"
            },
            {
              "name": "password",
              "type": "string"
            },
            {
              "name": "balance",
              "type": "uint256"
            },
            {
              "name": "boardID",
              "type": "bytes32"
            },
            {
              "name": "headline",
              "type": "string"
            },
            {
              "name": "bio",
              "type": "string"
            },
            {
              "name": "minimumPrice",
              "type": "uint256"
            }
          ],
          "name": "",
          "type": "tuple"
        }
      ],
      "payable": false,
      "stateMutability": "view",
      "type": "function"
    },
    {
      "constant": false,
      "inputs": [
        {
          "name": "_headline",
          "type": "string"
        },
        {
          "name": "_bio",
          "type": "string"
        },
        {
          "name": "_minimumPrice",
          "type": "uint256"
        }
      ],
      "name": "updateUser",
      "outputs": [],
      "payable": false,
      "stateMutability": "nonpayable",
      "type": "function"
    },
    {
      "constant": false,
      "inputs": [
        {
          "name": "_questionText",
          "type": "string"
        },
        {
          "name": "_priorityBonus",
          "type": "uint256"
        },
        {
          "name": "_answerUser",
          "type": "address"
        }
      ],
      "name": "postQuestion",
      "outputs": [],
      "payable": true,
      "stateMutability": "payable",
      "type": "function"
    },
    {
      "constant": false,
      "inputs": [
        {
          "name": "_questionID",
          "type": "bytes32"
        },
        {
          "name": "_answerText",
          "type": "string"
        }
      ],
      "name": "postAnswer",
      "outputs": [],
      "payable": true,
      "stateMutability": "payable",
      "type": "function"
    },
    {
      "constant": false,
      "inputs": [
        {
          "name": "_questionID",
          "type": "bytes32"
        }
      ],
      "name": "declineQuestion",
      "outputs": [],
      "payable": true,
      "stateMutability": "payable",
      "type": "function"
    },
    {
      "constant": true,
      "inputs": [
        {
          "name": "_userAddress",
          "type": "address"
        }
      ],
      "name": "getUserHistory",
      "outputs": [
        {
          "components": [
            {
              "name": "questionID",
              "type": "bytes32"
            },
            {
              "name": "questionText",
              "type": "string"
            },
            {
              "name": "boardID",
              "type": "bytes32"
            },
            {
              "name": "price",
              "type": "uint256"
            },
            {
              "name": "priorityBonus",
              "type": "uint256"
            },
            {
              "name": "askUser",
              "type": "address"
            },
            {
              "name": "answerUser",
              "type": "address"
            },
            {
              "name": "isAnswered",
              "type": "bool"
            }
          ],
          "name": "",
          "type": "tuple[]"
        }
      ],
      "payable": false,
      "stateMutability": "view",
      "type": "function"
    },
    {
      "constant": true,
      "inputs": [],
      "name": "getUnansweredQuestions",
      "outputs": [
        {
          "components": [
            {
              "name": "questionID",
              "type": "bytes32"
            },
            {
              "name": "questionText",
              "type": "string"
            },
            {
              "name": "boardID",
              "type": "bytes32"
            },
            {
              "name": "price",
              "type": "uint256"
            },
            {
              "name": "priorityBonus",
              "type": "uint256"
            },
            {
              "name": "askUser",
              "type": "address"
            },
            {
              "name": "answerUser",
              "type": "address"
            },
            {
              "name": "isAnswered",
              "type": "bool"
            }
          ],
          "name": "",
          "type": "tuple[]"
        }
      ],
      "payable": false,
      "stateMutability": "view",
      "type": "function"
    },
    {
      "constant": true,
      "inputs": [
        {
          "name": "_userAddress",
          "type": "address"
        }
      ],
      "name": "getUserReceivedQuestions",
      "outputs": [
        {
          "components": [
            {
              "name": "questionID",
              "type": "bytes32"
            },
            {
              "name": "questionText",
              "type": "string"
            },
            {
              "name": "boardID",
              "type": "bytes32"
            },
            {
              "name": "price",
              "type": "uint256"
            },
            {
              "name": "priorityBonus",
              "type": "uint256"
            },
            {
              "name": "askUser",
              "type": "address"
            },
            {
              "name": "answerUser",
              "type": "address"
            },
            {
              "name": "isAnswered",
              "type": "bool"
            }
          ],
          "name": "",
          "type": "tuple[]"
        }
      ],
      "payable": false,
      "stateMutability": "view",
      "type": "function"
    },
    {
      "constant": true,
      "inputs": [
        {
          "name": "_userAddress",
          "type": "address"
        }
      ],
      "name": "getUserDeclinedQuestions",
      "outputs": [
        {
          "components": [
            {
              "name": "questionID",
              "type": "bytes32"
            },
            {
              "name": "questionText",
              "type": "string"
            },
            {
              "name": "boardID",
              "type": "bytes32"
            },
            {
              "name": "price",
              "type": "uint256"
            },
            {
              "name": "priorityBonus",
              "type": "uint256"
            },
            {
              "name": "askUser",
              "type": "address"
            },
            {
              "name": "answerUser",
              "type": "address"
            },
            {
              "name": "isAnswered",
              "type": "bool"
            }
          ],
          "name": "",
          "type": "tuple[]"
        }
      ],
      "payable": false,
      "stateMutability": "view",
      "type": "function"
    },
    {
      "constant": true,
      "inputs": [
        {
          "name": "_userAddress",
          "type": "address"
        }
      ],
      "name": "getUserAnsweredQuestions",
      "outputs": [
        {
          "components": [
            {
              "components": [
                {
                  "name": "questionID",
                  "type": "bytes32"
                },
                {
                  "name": "questionText",
                  "type": "string"
                },
                {
                  "name": "boardID",
                  "type": "bytes32"
                },
                {
                  "name": "price",
                  "type": "uint256"
                },
                {
                  "name": "priorityBonus",
                  "type": "uint256"
                },
                {
                  "name": "askUser",
                  "type": "address"
                },
                {
                  "name": "answerUser",
                  "type": "address"
                },
                {
                  "name": "isAnswered",
                  "type": "bool"
                }
              ],
              "name": "question",
              "type": "tuple"
            },
            {
              "name": "answerText",
              "type": "string"
            }
          ],
          "name": "",
          "type": "tuple[]"
        }
      ],
      "payable": false,
      "stateMutability": "view",
      "type": "function"
    },
    {
      "constant": true,
      "inputs": [
        {
          "name": "_userAddress",
          "type": "address"
        }
      ],
      "name": "getUserBalance",
      "outputs": [
        {
          "name": "",
          "type": "uint256"
        }
      ],
      "payable": false,
      "stateMutability": "view",
      "type": "function"
    },
    {
      "constant": true,
      "inputs": [
        {
          "name": "_userAddress",
          "type": "address"
        }
      ],
      "name": "getUserBoardID",
      "outputs": [
        {
          "name": "",
          "type": "bytes32"
        }
      ],
      "payable": false,
      "stateMutability": "view",
      "type": "function"
    },
    {
      "constant": true,
      "inputs": [
        {
          "name": "_userAddress",
          "type": "address"
        }
      ],
      "name": "getUserHeadline",
      "outputs": [
        {
          "name": "",
          "type": "string"
        }
      ],
      "payable": false,
      "stateMutability": "view",
      "type": "function"
    },
    {
      "constant": true,
      "inputs": [
        {
          "name": "_userAddress",
          "type": "address"
        }
      ],
      "name": "getUserBio",
      "outputs": [
        {
          "name": "",
          "type": "string"
        }
      ],
      "payable": false,
      "stateMutability": "view",
      "type": "function"
    },
    {
      "constant": true,
      "inputs": [
        {
          "name": "_userAddress",
          "type": "address"
        }
      ],
      "name": "getUserMinimumPrice",
      "outputs": [
        {
          "name": "",
          "type": "uint256"
        }
      ],
      "payable": false,
      "stateMutability": "view",
      "type": "function"
    },
    {
      "constant": true,
      "inputs": [
        {
          "name": "_userAddress",
          "type": "address"
        }
      ],
      "name": "getUsernameByAddress",
      "outputs": [
        {
          "name": "",
          "type": "string"
        }
      ],
      "payable": false,
      "stateMutability": "view",
      "type": "function"
    }
  ],
  "bytecode": "0x608060405234801561001057600080fd5b506155a480620000216000396000f3fe60806040526004361061014e576000357c01000000000000000000000000000000000000000000000000000000009004806303f9706f1461015357806308d8568e146101905780630b2679b6146101ac578063153500aa146101e95780632080cc9714610212578063278d29201461022e578063322befc31461026c57806332bd55fe146102a957806347734892146102ed5780634fb3d3b11461032a578063503af5e1146103675780635a386204146103a45780636f77926b146103e15780637271d9301461041e5780637718f4ec1461044957806385dc9a541461048d578063872f003a146104d157806395addb901461050e578063a87430ba14610552578063b77e17f414610598578063c02d72fd146105b4578063caea00ce146105f1578063d129604b1461062e578063d7d43d1514610657578063e364f3371461069b578063ed1a998d146106df575b600080fd5b34801561015f57600080fd5b5061017a600480360361017591908101906149db565b61071c565b6040516101879190615371565b60405180910390f35b6101aa60048036036101a59190810190614c6a565b610767565b005b3480156101b857600080fd5b506101d360048036036101ce91908101906149db565b6110e2565b6040516101e091906151f0565b60405180910390f35b3480156101f557600080fd5b50610210600480360361020b9190810190614beb565b6113c9565b005b61022c60048036036102279190810190614a69565b6114c0565b005b34801561023a57600080fd5b5061025560048036036102509190810190614a04565b611c4b565b604051610263929190615318565b60405180910390f35b34801561027857600080fd5b50610293600480360361028e91908101906149db565b611ec0565b6040516102a091906152d4565b60405180910390f35b3480156102b557600080fd5b506102d060048036036102cb9190810190614a04565b611f70565b6040516102e498979695949392919061524f565b60405180910390f35b3480156102f957600080fd5b50610314600480360361030f91908101906149db565b6120b9565b6040516103219190615371565b60405180910390f35b34801561033657600080fd5b50610351600480360361034c91908101906149db565b612104565b60405161035e9190615212565b60405180910390f35b34801561037357600080fd5b5061038e600480360361038991908101906149db565b612335565b60405161039b9190615212565b60405180910390f35b3480156103b057600080fd5b506103cb60048036036103c691908101906149db565b612566565b6040516103d891906152f6565b60405180910390f35b3480156103ed57600080fd5b50610408600480360361040391908101906149db565b612649565b604051610415919061534f565b60405180910390f35b34801561042a57600080fd5b50610433612ae3565b6040516104409190615212565b60405180910390f35b34801561045557600080fd5b50610470600480360361046b9190810190614a04565b612d12565b60405161048498979695949392919061524f565b60405180910390f35b34801561049957600080fd5b506104b460048036036104af9190810190614a04565b612e5b565b6040516104c898979695949392919061524f565b60405180910390f35b3480156104dd57600080fd5b506104f860048036036104f391908101906149db565b612fa4565b6040516105059190615212565b60405180910390f35b34801561051a57600080fd5b5061053560048036036105309190810190614a40565b6131d5565b60405161054998979695949392919061524f565b60405180910390f35b34801561055e57600080fd5b50610579600480360361057491908101906149db565b613302565b60405161058f9a9998979695949392919061512a565b60405180910390f35b6105b260048036036105ad9190810190614a40565b613706565b005b3480156105c057600080fd5b506105db60048036036105d691908101906149db565b613e9d565b6040516105e89190615234565b60405180910390f35b3480156105fd57600080fd5b50610618600480360361061391908101906149db565b613ee8565b60405161062591906152f6565b60405180910390f35b34801561063a57600080fd5b5061065560048036036106509190810190614abd565b613fcb565b005b34801561066357600080fd5b5061067e60048036036106799190810190614a04565b614247565b60405161069298979695949392919061524f565b60405180910390f35b3480156106a757600080fd5b506106c260048036036106bd9190810190614a04565b614390565b6040516106d698979695949392919061524f565b60405180910390f35b3480156106eb57600080fd5b50610706600480360361070191908101906149db565b6144d9565b60405161071391906152f6565b60405180910390f35b60008060008373ffffffffffffffffffffffffffffffffffffffff1673ffffffffffffffffffffffffffffffffffffffff168152602001908152602001600020600901549050919050565b61076f61468d565b610100604051908101604052808561078685612649565b60c001518661079487612649565b6101200151018733886040516020018087805190602001908083835b6020831015156107d557805182526020820191506020810190506020830392506107b0565b6001836020036101000a0380198251168184511680821785525050505050509050018681526020018581526020018481526020018373ffffffffffffffffffffffffffffffffffffffff1673ffffffffffffffffffffffffffffffffffffffff166c010000000000000000000000000281526014018273ffffffffffffffffffffffffffffffffffffffff1673ffffffffffffffffffffffffffffffffffffffff166c0100000000000000000000000002815260140196505050505050506040516020818303038152906040528051906020012081526020018581526020016108bd84612649565b60c001518152602001846108d085612649565b61012001510181526020018481526020013373ffffffffffffffffffffffffffffffffffffffff1681526020018373ffffffffffffffffffffffffffffffffffffffff168152602001600015158152509050600360003373ffffffffffffffffffffffffffffffffffffffff1673ffffffffffffffffffffffffffffffffffffffff16815260200190815260200160002081908060018154018082558091505090600182039060005260206000209060070201600090919290919091506000820151816000015560208201518160010190805190602001906109b3929190614707565b5060408201518160020155606082015181600301556080820151816004015560a08201518160050160006101000a81548173ffffffffffffffffffffffffffffffffffffffff021916908373ffffffffffffffffffffffffffffffffffffffff16021790555060c08201518160060160006101000a81548173ffffffffffffffffffffffffffffffffffffffff021916908373ffffffffffffffffffffffffffffffffffffffff16021790555060e08201518160060160146101000a81548160ff021916908315150217905550505050600360008373ffffffffffffffffffffffffffffffffffffffff1673ffffffffffffffffffffffffffffffffffffffff1681526020019081526020016000208190806001815401808255809150509060018203906000526020600020906007020160009091929091909150600082015181600001556020820151816001019080519060200190610b14929190614707565b5060408201518160020155606082015181600301556080820151816004015560a08201518160050160006101000a81548173ffffffffffffffffffffffffffffffffffffffff021916908373ffffffffffffffffffffffffffffffffffffffff16021790555060c08201518160060160006101000a81548173ffffffffffffffffffffffffffffffffffffffff021916908373ffffffffffffffffffffffffffffffffffffffff16021790555060e08201518160060160146101000a81548160ff021916908315150217905550505050600860008373ffffffffffffffffffffffffffffffffffffffff1673ffffffffffffffffffffffffffffffffffffffff1681526020019081526020016000208190806001815401808255809150509060018203906000526020600020906007020160009091929091909150600082015181600001556020820151816001019080519060200190610c75929190614707565b5060408201518160020155606082015181600301556080820151816004015560a08201518160050160006101000a81548173ffffffffffffffffffffffffffffffffffffffff021916908373ffffffffffffffffffffffffffffffffffffffff16021790555060c08201518160060160006101000a81548173ffffffffffffffffffffffffffffffffffffffff021916908373ffffffffffffffffffffffffffffffffffffffff16021790555060e08201518160060160146101000a81548160ff021916908315150217905550505050806007600086610d5486612649565b60c0015187610d6288612649565b6101200151018833896040516020018087805190602001908083835b602083101515610da35780518252602082019150602081019050602083039250610d7e565b6001836020036101000a0380198251168184511680821785525050505050509050018681526020018581526020018481526020018373ffffffffffffffffffffffffffffffffffffffff1673ffffffffffffffffffffffffffffffffffffffff166c010000000000000000000000000281526014018273ffffffffffffffffffffffffffffffffffffffff1673ffffffffffffffffffffffffffffffffffffffff166c010000000000000000000000000281526014019650505050505050604051602081830303815290604052805190602001208152602001908152602001600020600082015181600001556020820151816001019080519060200190610eab929190614707565b5060408201518160020155606082015181600301556080820151816004015560a08201518160050160006101000a81548173ffffffffffffffffffffffffffffffffffffffff021916908373ffffffffffffffffffffffffffffffffffffffff16021790555060c08201518160060160006101000a81548173ffffffffffffffffffffffffffffffffffffffff021916908373ffffffffffffffffffffffffffffffffffffffff16021790555060e08201518160060160146101000a81548160ff021916908315150217905550905050600460008373ffffffffffffffffffffffffffffffffffffffff1673ffffffffffffffffffffffffffffffffffffffff168152602001908152602001600020819080600181540180825580915050906001820390600052602060002090600702016000909192909190915060008201518160000155602082015181600101908051906020019061100c929190614707565b5060408201518160020155606082015181600301556080820151816004015560a08201518160050160006101000a81548173ffffffffffffffffffffffffffffffffffffffff021916908373ffffffffffffffffffffffffffffffffffffffff16021790555060c08201518160060160006101000a81548173ffffffffffffffffffffffffffffffffffffffff021916908373ffffffffffffffffffffffffffffffffffffffff16021790555060e08201518160060160146101000a81548160ff02191690831515021790555050505050505050565b6060600660008373ffffffffffffffffffffffffffffffffffffffff1673ffffffffffffffffffffffffffffffffffffffff168152602001908152602001600020805480602002602001604051908101604052809291908181526020016000905b828210156113be578382906000526020600020906008020160408051908101604052908160008201610100604051908101604052908160008201548152602001600182018054600181600116156101000203166002900480601f01602080910402602001604051908101604052809291908181526020018280546001816001161561010002031660029004801561121b5780601f106111f05761010080835404028352916020019161121b565b820191906000526020600020905b8154815290600101906020018083116111fe57829003601f168201915b505050505081526020016002820154815260200160038201548152602001600482015481526020016005820160009054906101000a900473ffffffffffffffffffffffffffffffffffffffff1673ffffffffffffffffffffffffffffffffffffffff1673ffffffffffffffffffffffffffffffffffffffff1681526020016006820160009054906101000a900473ffffffffffffffffffffffffffffffffffffffff1673ffffffffffffffffffffffffffffffffffffffff1673ffffffffffffffffffffffffffffffffffffffff1681526020016006820160149054906101000a900460ff1615151515815250508152602001600782018054600181600116156101000203166002900480601f0160208091040260200160405190810160405280929190818152602001828054600181600116156101000203166002900480156113a65780601f1061137b576101008083540402835291602001916113a6565b820191906000526020600020905b81548152906001019060200180831161138957829003601f168201915b50505050508152505081526020019060010190611143565b505050509050919050565b826000803373ffffffffffffffffffffffffffffffffffffffff1673ffffffffffffffffffffffffffffffffffffffff168152602001908152602001600020600701908051906020019061141e929190614787565b50816000803373ffffffffffffffffffffffffffffffffffffffff1673ffffffffffffffffffffffffffffffffffffffff1681526020019081526020016000206008019080519060200190611474929190614787565b50806000803373ffffffffffffffffffffffffffffffffffffffff1673ffffffffffffffffffffffffffffffffffffffff16815260200190815260200160002060090181905550505050565b6114c861468d565b60008090505b600460003373ffffffffffffffffffffffffffffffffffffffff1673ffffffffffffffffffffffffffffffffffffffff168152602001908152602001600020805490508110156117895783600460003373ffffffffffffffffffffffffffffffffffffffff1673ffffffffffffffffffffffffffffffffffffffff1681526020019081526020016000208281548110151561156557fe5b906000526020600020906007020160000154141561177c57600460003373ffffffffffffffffffffffffffffffffffffffff1673ffffffffffffffffffffffffffffffffffffffff168152602001908152602001600020818154811015156115c957fe5b9060005260206000209060070201610100604051908101604052908160008201548152602001600182018054600181600116156101000203166002900480601f0160208091040260200160405190810160405280929190818152602001828054600181600116156101000203166002900480156116875780601f1061165c57610100808354040283529160200191611687565b820191906000526020600020905b81548152906001019060200180831161166a57829003601f168201915b505050505081526020016002820154815260200160038201548152602001600482015481526020016005820160009054906101000a900473ffffffffffffffffffffffffffffffffffffffff1673ffffffffffffffffffffffffffffffffffffffff1673ffffffffffffffffffffffffffffffffffffffff1681526020016006820160009054906101000a900473ffffffffffffffffffffffffffffffffffffffff1673ffffffffffffffffffffffffffffffffffffffff1673ffffffffffffffffffffffffffffffffffffffff1681526020016006820160149054906101000a900460ff1615151515815250509150611789565b80806001019150506114ce565b50611792614807565b6040805190810160405280838152602001848152509050600660003373ffffffffffffffffffffffffffffffffffffffff1673ffffffffffffffffffffffffffffffffffffffff1681526020019081526020016000208190806001815401808255809150509060018203906000526020600020906008020160009091929091909150600082015181600001600082015181600001556020820151816001019080519060200190611843929190614707565b5060408201518160020155606082015181600301556080820151816004015560a08201518160050160006101000a81548173ffffffffffffffffffffffffffffffffffffffff021916908373ffffffffffffffffffffffffffffffffffffffff16021790555060c08201518160060160006101000a81548173ffffffffffffffffffffffffffffffffffffffff021916908373ffffffffffffffffffffffffffffffffffffffff16021790555060e08201518160060160146101000a81548160ff0219169083151502179055505050602082015181600701908051906020019061192e929190614707565b5050505060018260e0019015159081151581525050338260c0019073ffffffffffffffffffffffffffffffffffffffff16908173ffffffffffffffffffffffffffffffffffffffff1681525050600360008360a0015173ffffffffffffffffffffffffffffffffffffffff1673ffffffffffffffffffffffffffffffffffffffff1681526020019081526020016000208290806001815401808255809150509060018203906000526020600020906007020160009091929091909150600082015181600001556020820151816001019080519060200190611a10929190614707565b5060408201518160020155606082015181600301556080820151816004015560a08201518160050160006101000a81548173ffffffffffffffffffffffffffffffffffffffff021916908373ffffffffffffffffffffffffffffffffffffffff16021790555060c08201518160060160006101000a81548173ffffffffffffffffffffffffffffffffffffffff021916908373ffffffffffffffffffffffffffffffffffffffff16021790555060e08201518160060160146101000a81548160ff021916908315150217905550505050600360008360c0015173ffffffffffffffffffffffffffffffffffffffff1673ffffffffffffffffffffffffffffffffffffffff1681526020019081526020016000208290806001815401808255809150509060018203906000526020600020906007020160009091929091909150600082015181600001556020820151816001019080519060200190611b75929190614707565b5060408201518160020155606082015181600301556080820151816004015560a08201518160050160006101000a81548173ffffffffffffffffffffffffffffffffffffffff021916908373ffffffffffffffffffffffffffffffffffffffff16021790555060c08201518160060160006101000a81548173ffffffffffffffffffffffffffffffffffffffff021916908373ffffffffffffffffffffffffffffffffffffffff16021790555060e08201518160060160146101000a81548160ff02191690831515021790555050505050505050565b600660205281600052604060002081815481101515611c6657fe5b90600052602060002090600802016000915091505080600001610100604051908101604052908160008201548152602001600182018054600181600116156101000203166002900480601f016020809104026020016040519081016040528092919081815260200182805460018160011615610100020316600290048015611d2f5780601f10611d0457610100808354040283529160200191611d2f565b820191906000526020600020905b815481529060010190602001808311611d1257829003601f168201915b505050505081526020016002820154815260200160038201548152602001600482015481526020016005820160009054906101000a900473ffffffffffffffffffffffffffffffffffffffff1673ffffffffffffffffffffffffffffffffffffffff1673ffffffffffffffffffffffffffffffffffffffff1681526020016006820160009054906101000a900473ffffffffffffffffffffffffffffffffffffffff1673ffffffffffffffffffffffffffffffffffffffff1673ffffffffffffffffffffffffffffffffffffffff1681526020016006820160149054906101000a900460ff16151515158152505090806007018054600181600116156101000203166002900480601f016020809104026020016040519081016040528092919081815260200182805460018160011615610100020316600290048015611eb65780601f10611e8b57610100808354040283529160200191611eb6565b820191906000526020600020905b815481529060010190602001808311611e9957829003601f168201915b5050505050905082565b60016020528060005260406000206000915090508054600181600116156101000203166002900480601f016020809104026020016040519081016040528092919081815260200182805460018160011615610100020316600290048015611f685780601f10611f3d57610100808354040283529160200191611f68565b820191906000526020600020905b815481529060010190602001808311611f4b57829003601f168201915b505050505081565b600260205281600052604060002081815481101515611f8b57fe5b906000526020600020906007020160009150915050806000015490806001018054600181600116156101000203166002900480601f01602080910402602001604051908101604052809291908181526020018280546001816001161561010002031660029004801561203e5780601f106120135761010080835404028352916020019161203e565b820191906000526020600020905b81548152906001019060200180831161202157829003601f168201915b5050505050908060020154908060030154908060040154908060050160009054906101000a900473ffffffffffffffffffffffffffffffffffffffff16908060060160009054906101000a900473ffffffffffffffffffffffffffffffffffffffff16908060060160149054906101000a900460ff16905088565b60008060008373ffffffffffffffffffffffffffffffffffffffff1673ffffffffffffffffffffffffffffffffffffffff168152602001908152602001600020600501549050919050565b6060600360008373ffffffffffffffffffffffffffffffffffffffff1673ffffffffffffffffffffffffffffffffffffffff168152602001908152602001600020805480602002602001604051908101604052809291908181526020016000905b8282101561232a5783829060005260206000209060070201610100604051908101604052908160008201548152602001600182018054600181600116156101000203166002900480601f01602080910402602001604051908101604052809291908181526020018280546001816001161561010002031660029004801561222d5780601f106122025761010080835404028352916020019161222d565b820191906000526020600020905b81548152906001019060200180831161221057829003601f168201915b505050505081526020016002820154815260200160038201548152602001600482015481526020016005820160009054906101000a900473ffffffffffffffffffffffffffffffffffffffff1673ffffffffffffffffffffffffffffffffffffffff1673ffffffffffffffffffffffffffffffffffffffff1681526020016006820160009054906101000a900473ffffffffffffffffffffffffffffffffffffffff1673ffffffffffffffffffffffffffffffffffffffff1673ffffffffffffffffffffffffffffffffffffffff1681526020016006820160149054906101000a900460ff16151515158152505081526020019060010190612165565b505050509050919050565b6060600560008373ffffffffffffffffffffffffffffffffffffffff1673ffffffffffffffffffffffffffffffffffffffff168152602001908152602001600020805480602002602001604051908101604052809291908181526020016000905b8282101561255b5783829060005260206000209060070201610100604051908101604052908160008201548152602001600182018054600181600116156101000203166002900480601f01602080910402602001604051908101604052809291908181526020018280546001816001161561010002031660029004801561245e5780601f106124335761010080835404028352916020019161245e565b820191906000526020600020905b81548152906001019060200180831161244157829003601f168201915b505050505081526020016002820154815260200160038201548152602001600482015481526020016005820160009054906101000a900473ffffffffffffffffffffffffffffffffffffffff1673ffffffffffffffffffffffffffffffffffffffff1673ffffffffffffffffffffffffffffffffffffffff1681526020016006820160009054906101000a900473ffffffffffffffffffffffffffffffffffffffff1673ffffffffffffffffffffffffffffffffffffffff1673ffffffffffffffffffffffffffffffffffffffff1681526020016006820160149054906101000a900460ff16151515158152505081526020019060010190612396565b505050509050919050565b60606000808373ffffffffffffffffffffffffffffffffffffffff1673ffffffffffffffffffffffffffffffffffffffff1681526020019081526020016000206008018054600181600116156101000203166002900480601f01602080910402602001604051908101604052809291908181526020018280546001816001161561010002031660029004801561263d5780601f106126125761010080835404028352916020019161263d565b820191906000526020600020905b81548152906001019060200180831161262057829003601f168201915b50505050509050919050565b612651614829565b6000808373ffffffffffffffffffffffffffffffffffffffff1673ffffffffffffffffffffffffffffffffffffffff16815260200190815260200160002061014060405190810160405290816000820160009054906101000a900473ffffffffffffffffffffffffffffffffffffffff1673ffffffffffffffffffffffffffffffffffffffff1673ffffffffffffffffffffffffffffffffffffffff168152602001600182018054600181600116156101000203166002900480601f01602080910402602001604051908101604052809291908181526020018280546001816001161561010002031660029004801561278b5780601f106127605761010080835404028352916020019161278b565b820191906000526020600020905b81548152906001019060200180831161276e57829003601f168201915b50505050508152602001600282018054600181600116156101000203166002900480601f01602080910402602001604051908101604052809291908181526020018280546001816001161561010002031660029004801561282d5780601f106128025761010080835404028352916020019161282d565b820191906000526020600020905b81548152906001019060200180831161281057829003601f168201915b50505050508152602001600382018054600181600116156101000203166002900480601f0160208091040260200160405190810160405280929190818152602001828054600181600116156101000203166002900480156128cf5780601f106128a4576101008083540402835291602001916128cf565b820191906000526020600020905b8154815290600101906020018083116128b257829003601f168201915b50505050508152602001600482018054600181600116156101000203166002900480601f0160208091040260200160405190810160405280929190818152602001828054600181600116156101000203166002900480156129715780601f1061294657610100808354040283529160200191612971565b820191906000526020600020905b81548152906001019060200180831161295457829003601f168201915b505050505081526020016005820154815260200160068201548152602001600782018054600181600116156101000203166002900480601f016020809104026020016040519081016040528092919081815260200182805460018160011615610100020316600290048015612a275780601f106129fc57610100808354040283529160200191612a27565b820191906000526020600020905b815481529060010190602001808311612a0a57829003601f168201915b50505050508152602001600882018054600181600116156101000203166002900480601f016020809104026020016040519081016040528092919081815260200182805460018160011615610100020316600290048015612ac95780601f10612a9e57610100808354040283529160200191612ac9565b820191906000526020600020905b815481529060010190602001808311612aac57829003601f168201915b505050505081526020016009820154815250509050919050565b6060600860003373ffffffffffffffffffffffffffffffffffffffff1673ffffffffffffffffffffffffffffffffffffffff168152602001908152602001600020805480602002602001604051908101604052809291908181526020016000905b82821015612d095783829060005260206000209060070201610100604051908101604052908160008201548152602001600182018054600181600116156101000203166002900480601f016020809104026020016040519081016040528092919081815260200182805460018160011615610100020316600290048015612c0c5780601f10612be157610100808354040283529160200191612c0c565b820191906000526020600020905b815481529060010190602001808311612bef57829003601f168201915b505050505081526020016002820154815260200160038201548152602001600482015481526020016005820160009054906101000a900473ffffffffffffffffffffffffffffffffffffffff1673ffffffffffffffffffffffffffffffffffffffff1673ffffffffffffffffffffffffffffffffffffffff1681526020016006820160009054906101000a900473ffffffffffffffffffffffffffffffffffffffff1673ffffffffffffffffffffffffffffffffffffffff1673ffffffffffffffffffffffffffffffffffffffff1681526020016006820160149054906101000a900460ff16151515158152505081526020019060010190612b44565b50505050905090565b600360205281600052604060002081815481101515612d2d57fe5b906000526020600020906007020160009150915050806000015490806001018054600181600116156101000203166002900480601f016020809104026020016040519081016040528092919081815260200182805460018160011615610100020316600290048015612de05780601f10612db557610100808354040283529160200191612de0565b820191906000526020600020905b815481529060010190602001808311612dc357829003601f168201915b5050505050908060020154908060030154908060040154908060050160009054906101000a900473ffffffffffffffffffffffffffffffffffffffff16908060060160009054906101000a900473ffffffffffffffffffffffffffffffffffffffff16908060060160149054906101000a900460ff16905088565b600560205281600052604060002081815481101515612e7657fe5b906000526020600020906007020160009150915050806000015490806001018054600181600116156101000203166002900480601f016020809104026020016040519081016040528092919081815260200182805460018160011615610100020316600290048015612f295780601f10612efe57610100808354040283529160200191612f29565b820191906000526020600020905b815481529060010190602001808311612f0c57829003601f168201915b5050505050908060020154908060030154908060040154908060050160009054906101000a900473ffffffffffffffffffffffffffffffffffffffff16908060060160009054906101000a900473ffffffffffffffffffffffffffffffffffffffff16908060060160149054906101000a900460ff16905088565b6060600460008373ffffffffffffffffffffffffffffffffffffffff1673ffffffffffffffffffffffffffffffffffffffff168152602001908152602001600020805480602002602001604051908101604052809291908181526020016000905b828210156131ca5783829060005260206000209060070201610100604051908101604052908160008201548152602001600182018054600181600116156101000203166002900480601f0160208091040260200160405190810160405280929190818152602001828054600181600116156101000203166002900480156130cd5780601f106130a2576101008083540402835291602001916130cd565b820191906000526020600020905b8154815290600101906020018083116130b057829003601f168201915b505050505081526020016002820154815260200160038201548152602001600482015481526020016005820160009054906101000a900473ffffffffffffffffffffffffffffffffffffffff1673ffffffffffffffffffffffffffffffffffffffff1673ffffffffffffffffffffffffffffffffffffffff1681526020016006820160009054906101000a900473ffffffffffffffffffffffffffffffffffffffff1673ffffffffffffffffffffffffffffffffffffffff1673ffffffffffffffffffffffffffffffffffffffff1681526020016006820160149054906101000a900460ff16151515158152505081526020019060010190613005565b505050509050919050565b6007602052806000526040600020600091509050806000015490806001018054600181600116156101000203166002900480601f0160208091040260200160405190810160405280929190818152602001828054600181600116156101000203166002900480156132875780601f1061325c57610100808354040283529160200191613287565b820191906000526020600020905b81548152906001019060200180831161326a57829003601f168201915b5050505050908060020154908060030154908060040154908060050160009054906101000a900473ffffffffffffffffffffffffffffffffffffffff16908060060160009054906101000a900473ffffffffffffffffffffffffffffffffffffffff16908060060160149054906101000a900460ff16905088565b60006020528060005260406000206000915090508060000160009054906101000a900473ffffffffffffffffffffffffffffffffffffffff1690806001018054600181600116156101000203166002900480601f0160208091040260200160405190810160405280929190818152602001828054600181600116156101000203166002900480156133d45780601f106133a9576101008083540402835291602001916133d4565b820191906000526020600020905b8154815290600101906020018083116133b757829003601f168201915b505050505090806002018054600181600116156101000203166002900480601f0160208091040260200160405190810160405280929190818152602001828054600181600116156101000203166002900480156134725780601f1061344757610100808354040283529160200191613472565b820191906000526020600020905b81548152906001019060200180831161345557829003601f168201915b505050505090806003018054600181600116156101000203166002900480601f0160208091040260200160405190810160405280929190818152602001828054600181600116156101000203166002900480156135105780601f106134e557610100808354040283529160200191613510565b820191906000526020600020905b8154815290600101906020018083116134f357829003601f168201915b505050505090806004018054600181600116156101000203166002900480601f0160208091040260200160405190810160405280929190818152602001828054600181600116156101000203166002900480156135ae5780601f10613583576101008083540402835291602001916135ae565b820191906000526020600020905b81548152906001019060200180831161359157829003601f168201915b505050505090806005015490806006015490806007018054600181600116156101000203166002900480601f0160208091040260200160405190810160405280929190818152602001828054600181600116156101000203166002900480156136585780601f1061362d57610100808354040283529160200191613658565b820191906000526020600020905b81548152906001019060200180831161363b57829003601f168201915b505050505090806008018054600181600116156101000203166002900480601f0160208091040260200160405190810160405280929190818152602001828054600181600116156101000203166002900480156136f65780601f106136cb576101008083540402835291602001916136f6565b820191906000526020600020905b8154815290600101906020018083116136d957829003601f168201915b505050505090806009015490508a565b61370e61468d565b60008090505b600460003373ffffffffffffffffffffffffffffffffffffffff1673ffffffffffffffffffffffffffffffffffffffff168152602001908152602001600020805490508110156139cf5782600460003373ffffffffffffffffffffffffffffffffffffffff1673ffffffffffffffffffffffffffffffffffffffff168152602001908152602001600020828154811015156137ab57fe5b90600052602060002090600702016000015414156139c257600460003373ffffffffffffffffffffffffffffffffffffffff1673ffffffffffffffffffffffffffffffffffffffff1681526020019081526020016000208181548110151561380f57fe5b9060005260206000209060070201610100604051908101604052908160008201548152602001600182018054600181600116156101000203166002900480601f0160208091040260200160405190810160405280929190818152602001828054600181600116156101000203166002900480156138cd5780601f106138a2576101008083540402835291602001916138cd565b820191906000526020600020905b8154815290600101906020018083116138b057829003601f168201915b505050505081526020016002820154815260200160038201548152602001600482015481526020016005820160009054906101000a900473ffffffffffffffffffffffffffffffffffffffff1673ffffffffffffffffffffffffffffffffffffffff1673ffffffffffffffffffffffffffffffffffffffff1681526020016006820160009054906101000a900473ffffffffffffffffffffffffffffffffffffffff1673ffffffffffffffffffffffffffffffffffffffff1673ffffffffffffffffffffffffffffffffffffffff1681526020016006820160149054906101000a900460ff16151515158152505091506139cf565b8080600101915050613714565b50600560003373ffffffffffffffffffffffffffffffffffffffff1673ffffffffffffffffffffffffffffffffffffffff1681526020019081526020016000208190806001815401808255809150509060018203906000526020600020906007020160009091929091909150600082015181600001556020820151816001019080519060200190613a61929190614707565b5060408201518160020155606082015181600301556080820151816004015560a08201518160050160006101000a81548173ffffffffffffffffffffffffffffffffffffffff021916908373ffffffffffffffffffffffffffffffffffffffff16021790555060c08201518160060160006101000a81548173ffffffffffffffffffffffffffffffffffffffff021916908373ffffffffffffffffffffffffffffffffffffffff16021790555060e08201518160060160146101000a81548160ff021916908315150217905550505050600360008260a0015173ffffffffffffffffffffffffffffffffffffffff1673ffffffffffffffffffffffffffffffffffffffff1681526020019081526020016000208190806001815401808255809150509060018203906000526020600020906007020160009091929091909150600082015181600001556020820151816001019080519060200190613bc6929190614707565b5060408201518160020155606082015181600301556080820151816004015560a08201518160050160006101000a81548173ffffffffffffffffffffffffffffffffffffffff021916908373ffffffffffffffffffffffffffffffffffffffff16021790555060c08201518160060160006101000a81548173ffffffffffffffffffffffffffffffffffffffff021916908373ffffffffffffffffffffffffffffffffffffffff16021790555060e08201518160060160146101000a81548160ff021916908315150217905550505050600360008260c0015173ffffffffffffffffffffffffffffffffffffffff1673ffffffffffffffffffffffffffffffffffffffff1681526020019081526020016000208190806001815401808255809150509060018203906000526020600020906007020160009091929091909150600082015181600001556020820151816001019080519060200190613d2b929190614707565b5060408201518160020155606082015181600301556080820151816004015560a08201518160050160006101000a81548173ffffffffffffffffffffffffffffffffffffffff021916908373ffffffffffffffffffffffffffffffffffffffff16021790555060c08201518160060160006101000a81548173ffffffffffffffffffffffffffffffffffffffff021916908373ffffffffffffffffffffffffffffffffffffffff16021790555060e08201518160060160146101000a81548160ff0219169083151502179055505050508060c0015173ffffffffffffffffffffffffffffffffffffffff166108fc82606001519081150290604051600060405180830381858888f19350505050158015613e49573d6000803e3d6000fd5b508060a0015173ffffffffffffffffffffffffffffffffffffffff166108fc82608001519081150290604051600060405180830381858888f19350505050158015613e98573d6000803e3d6000fd5b505050565b60008060008373ffffffffffffffffffffffffffffffffffffffff1673ffffffffffffffffffffffffffffffffffffffff168152602001908152602001600020600601549050919050565b60606000808373ffffffffffffffffffffffffffffffffffffffff1673ffffffffffffffffffffffffffffffffffffffff1681526020019081526020016000206007018054600181600116156101000203166002900480601f016020809104026020016040519081016040528092919081815260200182805460018160011615610100020316600290048015613fbf5780601f10613f9457610100808354040283529160200191613fbf565b820191906000526020600020905b815481529060010190602001808311613fa257829003601f168201915b50505050509050919050565b6000613fd788876145ba565b90506000339050613fe6614829565b610140604051908101604052808373ffffffffffffffffffffffffffffffffffffffff1681526020018b81526020018a815260200189815260200188815260200160008152602001848152602001878152602001868152602001858152509050806000803373ffffffffffffffffffffffffffffffffffffffff1673ffffffffffffffffffffffffffffffffffffffff16815260200190815260200160002060008201518160000160006101000a81548173ffffffffffffffffffffffffffffffffffffffff021916908373ffffffffffffffffffffffffffffffffffffffff16021790555060208201518160010190805190602001906140e8929190614707565b506040820151816002019080519060200190614105929190614707565b506060820151816003019080519060200190614122929190614707565b50608082015181600401908051906020019061413f929190614707565b5060a0820151816005015560c0820151816006015560e0820151816007019080519060200190614170929190614707565b5061010082015181600801908051906020019061418e929190614707565b50610120820151816009015590505089600160008473ffffffffffffffffffffffffffffffffffffffff1673ffffffffffffffffffffffffffffffffffffffff16815260200190815260200160002090805190602001906141f0929190614787565b507f0ced4802a454836801009dfca10894ad70dfdf5cfd7174d56f40ff57b82af9d3828b8b8b8b6000898d8d8d6040516142339a99989796959493929190615064565b60405180910390a150505050505050505050565b60086020528160005260406000208181548110151561426257fe5b906000526020600020906007020160009150915050806000015490806001018054600181600116156101000203166002900480601f0160208091040260200160405190810160405280929190818152602001828054600181600116156101000203166002900480156143155780601f106142ea57610100808354040283529160200191614315565b820191906000526020600020905b8154815290600101906020018083116142f857829003601f168201915b5050505050908060020154908060030154908060040154908060050160009054906101000a900473ffffffffffffffffffffffffffffffffffffffff16908060060160009054906101000a900473ffffffffffffffffffffffffffffffffffffffff16908060060160149054906101000a900460ff16905088565b6004602052816000526040600020818154811015156143ab57fe5b906000526020600020906007020160009150915050806000015490806001018054600181600116156101000203166002900480601f01602080910402602001604051908101604052809291908181526020018280546001816001161561010002031660029004801561445e5780601f106144335761010080835404028352916020019161445e565b820191906000526020600020905b81548152906001019060200180831161444157829003601f168201915b5050505050908060020154908060030154908060040154908060050160009054906101000a900473ffffffffffffffffffffffffffffffffffffffff16908060060160009054906101000a900473ffffffffffffffffffffffffffffffffffffffff16908060060160149054906101000a900460ff16905088565b6060600160008373ffffffffffffffffffffffffffffffffffffffff1673ffffffffffffffffffffffffffffffffffffffff1681526020019081526020016000208054600181600116156101000203166002900480601f0160208091040260200160405190810160405280929190818152602001828054600181600116156101000203166002900480156145ae5780601f10614583576101008083540402835291602001916145ae565b820191906000526020600020905b81548152906001019060200180831161459157829003601f168201915b50505050509050919050565b600082826040516020018083805190602001908083835b6020831015156145f657805182526020820191506020810190506020830392506145d1565b6001836020036101000a03801982511681845116808217855250505050505090500182805190602001908083835b6020831015156146495780518252602082019150602081019050602083039250614624565b6001836020036101000a0380198251168184511680821785525050505050509050019250505060405160208183030381529060405280519060200120905092915050565b610100604051908101604052806000801916815260200160608152602001600080191681526020016000815260200160008152602001600073ffffffffffffffffffffffffffffffffffffffff168152602001600073ffffffffffffffffffffffffffffffffffffffff1681526020016000151581525090565b828054600181600116156101000203166002900490600052602060002090601f016020900481019282601f1061474857805160ff1916838001178555614776565b82800160010185558215614776579182015b8281111561477557825182559160200191906001019061475a565b5b5090506147839190614896565b5090565b828054600181600116156101000203166002900490600052602060002090601f016020900481019282601f106147c857805160ff19168380011785556147f6565b828001600101855582156147f6579182015b828111156147f55782518255916020019190600101906147da565b5b5090506148039190614896565b5090565b6101206040519081016040528061481c6148bb565b8152602001606081525090565b61014060405190810160405280600073ffffffffffffffffffffffffffffffffffffffff1681526020016060815260200160608152602001606081526020016060815260200160008152602001600080191681526020016060815260200160608152602001600081525090565b6148b891905b808211156148b457600081600090555060010161489c565b5090565b90565b610100604051908101604052806000801916815260200160608152602001600080191681526020016000815260200160008152602001600073ffffffffffffffffffffffffffffffffffffffff168152602001600073ffffffffffffffffffffffffffffffffffffffff1681526020016000151581525090565b60006149418235615497565b905092915050565b600061495582356154a9565b905092915050565b600061496982356154bb565b905092915050565b600082601f830112151561498457600080fd5b8135614997614992826153b9565b61538c565b915080825260208301602083018583830111156149b357600080fd5b6149be838284615517565b50505092915050565b60006149d382356154c5565b905092915050565b6000602082840312156149ed57600080fd5b60006149fb84828501614935565b91505092915050565b60008060408385031215614a1757600080fd5b6000614a2585828601614935565b9250506020614a36858286016149c7565b9150509250929050565b600060208284031215614a5257600080fd5b6000614a608482850161495d565b91505092915050565b60008060408385031215614a7c57600080fd5b6000614a8a8582860161495d565b925050602083013567ffffffffffffffff811115614aa757600080fd5b614ab385828601614971565b9150509250929050565b600080600080600080600060e0888a031215614ad857600080fd5b600088013567ffffffffffffffff811115614af257600080fd5b614afe8a828b01614971565b975050602088013567ffffffffffffffff811115614b1b57600080fd5b614b278a828b01614971565b965050604088013567ffffffffffffffff811115614b4457600080fd5b614b508a828b01614971565b955050606088013567ffffffffffffffff811115614b6d57600080fd5b614b798a828b01614971565b945050608088013567ffffffffffffffff811115614b9657600080fd5b614ba28a828b01614971565b93505060a088013567ffffffffffffffff811115614bbf57600080fd5b614bcb8a828b01614971565b92505060c0614bdc8a828b016149c7565b91505092959891949750929550565b600080600060608486031215614c0057600080fd5b600084013567ffffffffffffffff811115614c1a57600080fd5b614c2686828701614971565b935050602084013567ffffffffffffffff811115614c4357600080fd5b614c4f86828701614971565b9250506040614c60868287016149c7565b9150509250925092565b600080600060608486031215614c7f57600080fd5b600084013567ffffffffffffffff811115614c9957600080fd5b614ca586828701614971565b9350506020614cb6868287016149c7565b9250506040614cc786828701614949565b9150509250925092565b614cda816154cf565b82525050565b614ce981615445565b82525050565b6000614cfa826153ff565b80845260208401935083602082028501614d13856153e5565b60005b84811015614d4c578383038852614d2e838351614e64565b9250614d398261542b565b9150602088019750600181019050614d16565b508196508694505050505092915050565b6000614d688261540a565b80845260208401935083602082028501614d81856153f2565b60005b84811015614dba578383038852614d9c838351614ea8565b9250614da782615438565b9150602088019750600181019050614d84565b508196508694505050505092915050565b614dd481615457565b82525050565b614de381615463565b82525050565b614df2816154e1565b82525050565b6000614e0382615420565b808452614e17816020860160208601615526565b614e2081615559565b602085010191505092915050565b6000614e3982615415565b808452614e4d816020860160208601615526565b614e5681615559565b602085010191505092915050565b60006040830160008301518482036000860152614e818282614ea8565b91505060208301518482036020860152614e9b8282614e2e565b9150508091505092915050565b600061010083016000830151614ec16000860182614dda565b5060208301518482036020860152614ed98282614e2e565b9150506040830151614eee6040860182614dda565b506060830151614f016060860182615055565b506080830151614f146080860182615055565b5060a0830151614f2760a0860182614ce0565b5060c0830151614f3a60c0860182614ce0565b5060e0830151614f4d60e0860182614dcb565b508091505092915050565b600061014083016000830151614f716000860182614ce0565b5060208301518482036020860152614f898282614e2e565b91505060408301518482036040860152614fa38282614e2e565b91505060608301518482036060860152614fbd8282614e2e565b91505060808301518482036080860152614fd78282614e2e565b91505060a0830151614fec60a0860182615055565b5060c0830151614fff60c0860182614dda565b5060e083015184820360e08601526150178282614e2e565b9150506101008301518482036101008601526150338282614e2e565b91505061012083015161504a610120860182615055565b508091505092915050565b61505e8161548d565b82525050565b60006101408201905061507a600083018d614cd1565b818103602083015261508c818c614df8565b905081810360408301526150a0818b614df8565b905081810360608301526150b4818a614df8565b905081810360808301526150c88189614df8565b90506150d760a0830188614de9565b6150e460c0830187614dda565b81810360e08301526150f68186614df8565b905081810361010083015261510b8185614df8565b905061511b610120830184615055565b9b9a5050505050505050505050565b600061014082019050615140600083018d614ce0565b8181036020830152615152818c614e2e565b90508181036040830152615166818b614e2e565b9050818103606083015261517a818a614e2e565b9050818103608083015261518e8189614e2e565b905061519d60a0830188615055565b6151aa60c0830187614dda565b81810360e08301526151bc8186614e2e565b90508181036101008301526151d18185614e2e565b90506151e1610120830184615055565b9b9a5050505050505050505050565b6000602082019050818103600083015261520a8184614cef565b905092915050565b6000602082019050818103600083015261522c8184614d5d565b905092915050565b60006020820190506152496000830184614dda565b92915050565b600061010082019050615265600083018b614dda565b8181036020830152615277818a614e2e565b90506152866040830189614dda565b6152936060830188615055565b6152a06080830187615055565b6152ad60a0830186614ce0565b6152ba60c0830185614ce0565b6152c760e0830184614dcb565b9998505050505050505050565b600060208201905081810360008301526152ee8184614e2e565b905092915050565b600060208201905081810360008301526153108184614df8565b905092915050565b600060408201905081810360008301526153328185614ea8565b905081810360208301526153468184614e2e565b90509392505050565b600060208201905081810360008301526153698184614f58565b905092915050565b60006020820190506153866000830184615055565b92915050565b6000604051905081810181811067ffffffffffffffff821117156153af57600080fd5b8060405250919050565b600067ffffffffffffffff8211156153d057600080fd5b601f19601f8301169050602081019050919050565b6000602082019050919050565b6000602082019050919050565b600081519050919050565b600081519050919050565b600081519050919050565b600081519050919050565b6000602082019050919050565b6000602082019050919050565b60006154508261546d565b9050919050565b60008115159050919050565b6000819050919050565b600073ffffffffffffffffffffffffffffffffffffffff82169050919050565b6000819050919050565b60006154a28261546d565b9050919050565b60006154b48261546d565b9050919050565b6000819050919050565b6000819050919050565b60006154da826154f3565b9050919050565b60006154ec8261548d565b9050919050565b60006154fe82615505565b9050919050565b60006155108261546d565b9050919050565b82818337600083830152505050565b60005b83811015615544578082015181840152602081019050615529565b83811115615553576000848401525b50505050565b6000601f19601f830116905091905056fea265627a7a72305820066c0a4c55cf9d5051412ea70ab9f3235f04f8421065048afd87d6184e76c71a6c6578706572696d656e74616cf50037",
  "source": "// SPDX-License-Identifier: MIT\npragma solidity >=0.5.0 <0.9.0;\npragma experimental ABIEncoderV2;\n\ncontract BuyAnAnswer {\n    // the front end will be able to call the following:\n    // - create user\n    // - update user\n    //  - get user by username\n    // - post question to user by choosing user address\n    // - post answer to question received by choosing questionID\n    // - decline question received by choosing questionID\n    // - get user history (all questions and answers)\n    // - get unanswered questions\n    // - get received questions\n    // - get declined questions\n    // - get answered questions\n    // - get user balance\n\n    // CREATE ALL NECESSARY EVENTS\n\n    event UserCreated(\n        address userAddress,\n        string username,\n        string name,\n        string email,\n        string password,\n        uint256 balance,\n        bytes32 boardID,\n        string headline,\n        string bio,\n        uint256 minimumPrice\n    );\n\n    event UserUpdated(\n        address userAddress,\n        string username,\n        string name,\n        string email,\n        string password,\n        uint256 balance,\n        bytes32 boardID,\n        string headline,\n        string bio,\n        uint256 minimumPrice\n    );\n\n    event QuestionPosted(\n        bytes32 questionID,\n        string questionText,\n        bytes32 boardID,\n        uint256 price,\n        uint256 priorityBonus,\n        address askUser,\n        address answerUser,\n        bool isAnswered\n    );\n\n    event AnswerPosted(\n        bytes32 questionID,\n        string questionText,\n        bytes32 boardID,\n        uint256 price,\n        uint256 priorityBonus,\n        address askUser,\n        address answerUser,\n        bool isAnswered\n    );\n\n    event QuestionDeclined(\n        bytes32 questionID,\n        string questionText,\n        bytes32 boardID,\n        uint256 price,\n        uint256 priorityBonus,\n        address askUser,\n        address answerUser,\n        bool isAnswered\n    );\n\n    // CREATE ALL NECESSARY STRUCTS\n\n    struct User {\n        address payable userAddress;\n        string username;\n        string name;\n        string email;\n        string password;\n        uint256 balance;\n        bytes32 boardID;\n        string headline;\n        string bio;\n        uint256 minimumPrice;\n        // Social[] socials;\n    }\n\n    struct Social {\n        string platform;\n        string socialUrl;\n    }\n\n    struct Question {\n        bytes32 questionID;\n        string questionText;\n        bytes32 boardID;\n        uint256 price;\n        uint256 priorityBonus;\n        address payable askUser;\n        address payable answerUser;\n        bool isAnswered;\n    }\n\n    struct Answer {\n        Question question;\n        string answerText;\n    }\n\n    mapping(address => User) public users;\n    // mapping(string => User) public usersByUsername;\n    mapping(address => string) public usernameByAddress;\n    mapping(address => Question[]) public askedQuestions;\n    mapping(address => Question[]) public history;\n    mapping(address => Question[]) public receivedQuestions;\n    mapping(address => Question[]) public declinedQuestions;\n    mapping(address => Answer[]) public answeredQuestions;\n    mapping(bytes32 => Question) public questions;\n\n    // create social\n\n    // function createSocial(\n    //     string memory _platform,\n    //     string memory _socialUrl\n    // ) public {\n    //     Social memory newSocial = Social(_platform, _socialUrl);\n    //     users[msg.sender].socials.push(newSocial);\n    // }\n\n    function createBoardID(string memory usrnm, string memory eml)\n        internal\n        returns (bytes32)\n    {\n        return keccak256(abi.encodePacked(usrnm, eml));\n    }\n\n    // create user\n\n    function createUser(\n        string memory _username,\n        string memory _name,\n        string memory _email,\n        string memory _password,\n        // bytes32 _boardID,\n        string memory _headline,\n        string memory _bio,\n        uint256 _minimumPrice // Social[] memory _socials\n    ) public {\n        // check if there is already a user with this address\n        // if yes, throw error\n        // if no, create user\n\n        // checking if user exists\n\n        // if (users[msg.sender].username != \"\") {\n        //     revert(\"User already exists\");\n        // }\n\n        bytes32 _boardID = createBoardID(_username, _email);\n\n        address payable userAddress = msg.sender;\n\n        User memory newUser = User(\n            userAddress,\n            _username,\n            _name,\n            _email,\n            _password,\n            0,\n            _boardID,\n            _headline,\n            _bio,\n            _minimumPrice\n            // _socials,\n            // new Question[](0)\n        );\n        users[msg.sender] = newUser;\n        usernameByAddress[userAddress] = _username;\n\n        emit UserCreated(\n            userAddress,\n            _username,\n            _name,\n            _email,\n            _password,\n            0,\n            _boardID,\n            _headline,\n            _bio,\n            _minimumPrice\n        );\n    }\n\n    // get user\n\n    function getUser(address _userAddress) public view returns (User memory) {\n        return users[_userAddress];\n    }\n\n    // update user (only update headline, bio, minimum price)\n\n    function updateUser(\n        string memory _headline,\n        string memory _bio,\n        uint256 _minimumPrice\n    ) public {\n        users[msg.sender].headline = _headline;\n        users[msg.sender].bio = _bio;\n        users[msg.sender].minimumPrice = _minimumPrice;\n    }\n\n    // post question from user to another user\n\n    function postQuestion(\n        string memory _questionText,\n        uint256 _priorityBonus,\n        address payable _answerUser\n    ) public payable {\n        Question memory newQuestion = Question(\n            keccak256(\n                abi.encodePacked(\n                    _questionText,\n                    getUser(_answerUser).boardID,\n                    (getUser(_answerUser).minimumPrice + _priorityBonus),\n                    _priorityBonus,\n                    msg.sender,\n                    _answerUser\n                )\n            ),\n            _questionText,\n            getUser(_answerUser).boardID,\n            (getUser(_answerUser).minimumPrice + _priorityBonus),\n            _priorityBonus,\n            msg.sender,\n            _answerUser,\n            false\n        );\n        history[msg.sender].push(newQuestion);\n        history[_answerUser].push(newQuestion);\n        unansweredQuestions[_answerUser].push(newQuestion);\n        questions[\n            keccak256(\n                abi.encodePacked(\n                    _questionText,\n                    getUser(_answerUser).boardID,\n                    (getUser(_answerUser).minimumPrice + _priorityBonus),\n                    _priorityBonus,\n                    msg.sender,\n                    _answerUser\n                )\n            )\n        ] = newQuestion;\n        receivedQuestions[_answerUser].push(newQuestion);\n    }\n\n    // post answer from user to question\n\n    function postAnswer(bytes32 _questionID, string memory _answerText)\n        public\n        payable\n    {\n        Question memory question;\n        for (uint256 i = 0; i < receivedQuestions[msg.sender].length; i++) {\n            if (receivedQuestions[msg.sender][i].questionID == _questionID) {\n                question = receivedQuestions[msg.sender][i];\n                break;\n            }\n        }\n        Answer memory newAnswer = Answer(question, _answerText);\n\n        answeredQuestions[msg.sender].push(newAnswer);\n\n        question.isAnswered = true;\n        question.answerUser = msg.sender;\n        history[question.askUser].push(question);\n        history[question.answerUser].push(question);\n        // question.answerUser.transfer(question.price);\n        // question.askUser.transfer(question.priorityBonus);\n        // payable(question.answerUser).transfer(question.price);\n        // payable(question.askUser).transfer(question.price);\n    }\n\n    // decline question from user to question\n\n    function declineQuestion(bytes32 _questionID) public payable {\n        Question memory question;\n        for (uint256 i = 0; i < receivedQuestions[msg.sender].length; i++) {\n            if (receivedQuestions[msg.sender][i].questionID == _questionID) {\n                question = receivedQuestions[msg.sender][i];\n                break;\n            }\n        }\n        declinedQuestions[msg.sender].push(question);\n        history[question.askUser].push(question);\n        history[question.answerUser].push(question);\n        question.answerUser.transfer(question.price);\n        question.askUser.transfer(question.priorityBonus);\n    }\n\n    // get user history\n\n    function getUserHistory(address _userAddress)\n        public\n        view\n        returns (Question[] memory)\n    {\n        return history[_userAddress];\n    }\n\n    // create mapping for unanswered questions\n\n    mapping(address => Question[]) public unansweredQuestions;\n\n    // get unanswered questions\n\n    function getUnansweredQuestions() public view returns (Question[] memory) {\n        return unansweredQuestions[msg.sender];\n    }\n\n    // get user received questions\n\n    function getUserReceivedQuestions(address _userAddress)\n        public\n        view\n        returns (Question[] memory)\n    {\n        return receivedQuestions[_userAddress];\n    }\n\n    // get user declined questions\n\n    function getUserDeclinedQuestions(address _userAddress)\n        public\n        view\n        returns (Question[] memory)\n    {\n        return declinedQuestions[_userAddress];\n    }\n\n    // get user answered questions\n\n    function getUserAnsweredQuestions(address _userAddress)\n        public\n        view\n        returns (Answer[] memory)\n    {\n        return answeredQuestions[_userAddress];\n    }\n\n    // get user balance\n\n    function getUserBalance(address _userAddress)\n        public\n        view\n        returns (uint256)\n    {\n        return users[_userAddress].balance;\n    }\n\n    // get user boardID\n\n    function getUserBoardID(address _userAddress)\n        public\n        view\n        returns (bytes32)\n    {\n        return users[_userAddress].boardID;\n    }\n\n    // get user headline\n\n    function getUserHeadline(address _userAddress)\n        public\n        view\n        returns (string memory)\n    {\n        return users[_userAddress].headline;\n    }\n\n    // get user bio\n\n    function getUserBio(address _userAddress)\n        public\n        view\n        returns (string memory)\n    {\n        return users[_userAddress].bio;\n    }\n\n    // get user minimum price\n\n    function getUserMinimumPrice(address _userAddress)\n        public\n        view\n        returns (uint256)\n    {\n        return users[_userAddress].minimumPrice;\n    }\n\n    // get user socials\n\n    // function getUserSocials(address _userAddress) public view returns (Social[] memory) {\n    //     return users[_userAddress].socials;\n    // }\n\n    // get user socials by platform\n\n    // function getUserSocialsByPlatform(address _userAddress, string memory _platform) public view returns (Social memory) {\n    //     for (uint256 i = 0; i < users[_userAddress].socials.length; i++) {\n    //         if (keccak256(abi.encodePacked(users[_userAddress].socials[i].platform)) == keccak256(abi.encodePacked(_platform))) {\n    //             return users[_userAddress].socials[i];\n    //         }\n    //     }\n    // }\n\n    // get user by username\n\n    function getUsernameByAddress(address _userAddress)\n        public\n        view\n        returns (string memory)\n    {\n        return usernameByAddress[_userAddress];\n    }\n}\n",
  "sourcePath": "/Users/jayanthkomarraju/Documents/GitHub/buyananswer.eth/contracts/BuyAnAnswer.sol",
  "compiler": {
    "name": "solc",
    "version": "0.5.1+commit.c8a2cb62.Emscripten.clang"
  },
  "schemaVersion": "3.2.3",
  "updatedAt": "2023-02-06T08:43:44.807Z",
  "networkType": "ethereum",
  "devdoc": {
    "methods": {}
  },
  "userdoc": {
    "methods": {}
  }
}